:020000040800F2
:100000003005002001010008051E00089B1C0008A7
:10001000011E0008890600081126000800000000E3
:10002000000000000000000000000000C9210008DE
:100030008D06000800000000F91F0008CB21000811
:100040001B0100081B0100081B0100081B01000820
:100050001B0100081B0100081B0100081B01000810
:100060001B0100081B0100081B0100081B01000800
:100070001B0100081B0100081B0100081B010008F0
:100080001B0100081B0100081B0100081B010008E0
:100090001B0100081B0100081B0100081B010008D0
:1000A0001B0100081B0100081B0100081B010008C0
:1000B0001B0100081B0100081B0100081B010008B0
:1000C0001B0100081B0100081B0100081B010008A0
:1000D0001B010008012600081B0100081B01000885
:1000E0001B0100081B0100081B010008DFF80CD0F1
:1000F00000F03AFA00480047512F00083005002070
:100100000648804706480047FEE7FEE7FEE7FEE7B1
:10011000FEE7FEE7FEE7FEE7FEE7FEE7392200081E
:10012000ED000008202A04DB203A21FA02F0002129
:10013000704721FA02F3D040C2F1200291400843F7
:1001400019467047D2B201E000F8012B491EFBD2DC
:1001500070470022F6E710B513460A4604461946D2
:10016000FFF7F0FF204610BD30B50B4601460020DA
:100170002022012409E021FA02F59D4205D303FA69
:1001800002F5491B04FA02F52844151EA2F10102EA
:10019000F1DC30BD2DE9F05F0546002092469B461C
:1001A00088460646814640241BE02846414647468D
:1001B0002246FFF7B7FF53465A46C01A914110D363
:1001C00011461846224600F0E1F92D1A67EB0108A6
:1001D0004F4622460120002100F0D8F917EB000914
:1001E0004E41201EA4F10104DFDC484631462A4678
:1001F0004346BDE8F09F2DE9FE4F804681EA0300AB
:10020000C00F0C46009021F0004123F00045B8EBF0
:100210000200A94105D24046214690461C460B46A5
:10022000024623F00040104347D0270DC7F30A00D1
:10023000C3F30A510290401A019040286BDAC3F3CD
:10024000130040F4801B0098924620B10023D2EBAB
:10025000030A63EB0B0B01985946C0F1400250466C
:1002600000F094F906460D4650465946019A00F0B2
:100270009CF910EB08006141002487EA115284EADE
:10028000E7731A4340D0009A62B3019A012A4FEAF9
:10029000075215DC001B61EB02014FF0004202EA3D
:1002A0000752CDE90042001C41F5801132462B4631
:1002B00000F09CF903B0BDE8F08F40462146F9E715
:1002C000001B61EB0201001C41F5801300185B412B
:1002D0002018A2F5001747EB030140EAD570B619C4
:1002E0006D4111E06D084FEA360645EAC0754FEAE8
:1002F0000752001B61EB0201001C41F58011490807
:100300004FEA30000019514132462B4603B0BDE898
:10031000F04F00F05CB90098012240000023D0EBC0
:10032000020263EBE073009821464FEAE074B8EBF9
:10033000000061EB0401E9E783F000435BE781F033
:10034000004158E72DE9FE4F81EA030404F0004420
:1003500021F0004100944FF0000B23F0004350EADD
:1003600001045ED052EA03045BD0C3F30A54C1F324
:100370000A552C44A4F2F3340194A0FB0254C1F3B7
:10038000130141F48011C3F3130343F4801301FB01
:10039000024400FB034E840A970A44EA815447EA68
:1003A0008357A4FB076802958D0A05FB07854FEA72
:1003B000932C04FB0C542705029D4FEA065847EA8C
:1003C0001637B5EB08056EEB070C870E920E47EA61
:1003D000811742EA8312A7FB0201B6EB0B0164EB23
:1003E00000042B0D43EA0C335E1844EB1C50DA4634
:1003F0005146E7FB0201C5F313044FEA0B3343EA0E
:1004000014534FEA0432019C43EA0603A4F10C049E
:100410000294009CCDE900B400F0E8F803B0BDE818
:10042000F08F00200146F9E72DE9F04D81EA030441
:1004300004F0004B21F0004514464FF0000A23F071
:10044000004150EA050220D054EA01021DD0C5F354
:100450000A570246C5F31303C1F31300C1F30A564A
:1004600040F4801543F48013A7EB0608101BD64612
:1004700008F2FD3873EB050002D308F1010801E032
:1004800092185B41B8F1000F03DA00200146BDE885
:10049000F08D00204FF48011064684460EE0171BB5
:1004A00073EB050705D3121B63EB050306434CEA08
:1004B000010C49084FEA300092185B4150EA0107ED
:1004C000EDD152EA030012D082EA040083EA05016A
:1004D000084305D0101BAB4106D20122002306E0E1
:1004E00000224FF0004302E06FF0010253101AEBBC
:1004F00006004CEB085110EB0A0041EB0B01BDE884
:10050000F04D00F064B8C1F30A52C1F3130140F298
:10051000FF3341F480119A4202DA0020014670470D
:1005200040F233439A42A2F2334202DC5242FFF7D6
:10053000F9BD00F02BB8000030B5041E71F10004C5
:1005400004DB4FF00044404264EB0101141E73F1E0
:10055000000405DB1C464FF00043524263EB0403EA
:10056000994208BF904230BD064C074D06E0E06856
:1005700040F0010394E8070098471034AC42F6D3EA
:10058000FFF7B8FD3430000854300008202A04DB9F
:10059000203A00FA02F1002070479140C2F1200396
:1005A00020FA03F3194390407047202A06DBCB174B
:1005B000203A41FA02F043EAE07306E041FA02F31E
:1005C000D040C2F12002914008431946704710B54F
:1005D000141E73F1000408DA401C41F10001921866
:1005E0005B411A4301D120F0010010BD2DE9F04D0F
:1005F00092469B4611B1B1FA81F202E0B0FA80F264
:1006000020329046FFF7C2FF04460F4640EA0A0038
:1006100041EA0B0153465A46084313D0114653EAA8
:10062000010019D0C8F140025046FFF77BFD054696
:100630000E46504659464246FFF7A8FF084305D0EC
:10064000012004E020463946BDE8F08D0020054336
:1006500046EAE0762C4337430A986305E40AA0EBA8
:1006600008000022FD0A44EA47540A3002D500205F
:100670000146E9E7010510196941DDE9084500195E
:100680006941BDE8F04DA2E700BFFEE7704772B6D2
:1006900000BFFEE770B50446002594F8210002284B
:1006A00003D00420A063012548E02068006820F002
:1006B0000E00216808602068006820F001002168B1
:1006C00008601F492068884201D1012026E01C49AA
:1006D00014312068884201D110201FE018492831C8
:1006E0002068884201D1801518E015493C31206806
:1006F000884201D1801411E01149503120688842AC
:1007000002D14FF4803009E00D49643120688842FD
:1007100002D14FF4801001E04FF080700849083991
:100720004860012084F8210000BF002084F82000E8
:1007300000BF606B10B12046616B8847284670BDD2
:10074000080002402DE9F8470346002294466EE176
:100750004FF0010808FA02F4D1F8008008EA04001A
:10076000A0427DD1DFF8DCA2D1F80480A8EB0A0911
:10077000D0453AD014DCB8F1030F50D009DCB8F101
:10078000000F31D0B8F1010F1CD0B8F1020F49D1E0
:1007900020E0B8F1110F18D0B8F1120F42D11EE0CD
:1007A000B9F5881F25D006DCB9F5803F20D0B9F512
:1007B000801F37D11AE0B9F5001F18D0B9F5041F12
:1007C00030D117E0D1F80CC02DE0D1F80C8008F141
:1007D000040C28E0D1F80C8008F1080C23E0D1F8D3
:1007E0000C8008F10C0C1EE000BF00BF00BF00BF72
:1007F00000BF00BFD1F80880B8F1000F02D14FF060
:10080000040C0BE0D1F80880B8F1010F03D14FF0D0
:10081000080C1C6102E04FF0080C5C6103E04FF033
:10082000000C00E000BF00BFFF2801D8984601E09F
:1008300003F104084646FF2802D84FEA820803E085
:10084000A2F108084FEA88084746D6F800804FF022
:100850000F0909FA07F928EA09080CFA07F900E074
:1008600088E048EA0908C6F80080D1F8048008F05A
:100870008058B8F1805F7DD100BFDFF8CC81D8F817
:10088000188048F00108DFF8C091C9F81880C84600
:10089000D8F8188008F00108CDF8008000BF00BF2C
:1008A0004FEAB9384FEA920958F829504FEA82784E
:1008B0004FEA18794FF00F0808FA09F825EA0805F9
:1008C000DFF88881434502D14FF0000816E0DFF8D9
:1008D0008081434502D14FF001080FE0DFF87481B9
:1008E000434502D14FF0020808E0DFF86C81434530
:1008F00002D14FF0030801E04FF004084FEA82797B
:100900004FEA197908FA09F848EA0505DFF84C8139
:100910004FEA920948F82950D1F8048008F4803849
:10092000B8F5803F0AD1DFF83881D8F8008048EA6E
:100930000008DFF82C91C9F8008009E0DFF8208179
:10094000D8F8008028EA0008DFF81491C9F8008080
:10095000D1F8048008F40038B8F5003F10D1DFF872
:10096000008108F10408D8F8008048EA0008DFF8A0
:10097000F09000E05AE009F10409C9F800800DE0A8
:10098000DFF8DC8008F10408D8F8008028EA0008C5
:10099000DFF8CC9009F10409C9F80080D1F804808F
:1009A00008F48018B8F5801F0ED1DFF8B48008F184
:1009B0000808D8F8008048EA0008DFF8A49009F198
:1009C0000809C9F800800DE0DFF8948008F10808F4
:1009D000D8F8008028EA0008DFF8849009F10809B7
:1009E000C9F80080D1F8048008F40018B8F5001F99
:1009F0000ED1DFF86C8008F10C08D8F8008048EAC6
:100A00000008DFF85C9009F10C09C9F800800DE0DE
:100A1000DFF84C8008F10C08D8F8008028EA0008BC
:100A2000DFF83C9009F10C09C9F80080521CD1F89C
:100A3000008028FA02F8B8F1000F7FF489AEBDE813
:100A4000F88700000000111000100240000801406B
:100A5000000C01400010014000140140080001405A
:100A6000000401400AB1016101E00B040361704719
:100A70000148006870470000040000200348006837
:100A800003490978084401490860704704000020C0
:100A90000C00002010B50848006840F0100006491E
:100AA0000860032000F0A8F8002000F007F800F02C
:100AB0002BF8002010BD00000020024070B5044655
:100AC0000E4800784FF47A71B1FBF0F00C490968D8
:100AD000B1FBF0F5284600F02BFF08B1012070BDF6
:100AE000102C07D200222146501E00F047F805487E
:100AF000046001E00120F2E70020F0E70C00002094
:100B0000100000200800002008B500BF11488069CF
:100B100040F001000F4988610846806900F001003B
:100B2000009000BF00BF00BF0846C06940F0805081
:100B3000C8610846C06900F08050009000BF00BF47
:100B400000BF0549486820F0E06040F00070486050
:100B500000BF08BD001002400000014001460846E9
:100B6000002809DB00F01F0301229A4043099B0083
:100B700003F1E023C3F8002100BF70472DE9F05FC7
:100B800080460D461646002701F054FD07463946BB
:100B90002A46334601F00700C0F1070ABAF1040FF4
:100BA00002D94FF0040A01E0C0F1070AD14600F172
:100BB000040ABAF1070F02D24FF0000A01E0A0F1D7
:100BC000030AD4464FF0010A0AFA09FAAAF1010A07
:100BD0000AEA020A0AFA0CFA4FF0010B0BFA0CFBB4
:100BE000ABF1010B0BEA030B4AEA0B04214640462A
:100BF00001F028FDBDE8F09F00BF00F00702064BA2
:100C000019684FF6FF031940044B0B4343EA0221D6
:100C1000014B196000BF70470CED00E00000FA05C1
:100C200070B504460D460CB9012070BD5A480068E5
:100C300000F00700A8420ED25748006820F00700D5
:100C40002843554908600846006800F00700A8429C
:100C500001D00120E9E7207800F0020002281DD130
:100C6000207800F00400042805D14C48406840F486
:100C7000E0604A494860207800F00800082805D163
:100C80004648406840F460504449486043484068E2
:100C900020F0F000A168084340494860207800F047
:100CA000010078B36068012806D13C48006800F470
:100CB000003090B90120B8E76068022806D13748B3
:100CC000006800F0007040B90120AEE733480068CA
:100CD00000F0020008B90120A7E73048406820F082
:100CE0000300616808432D494860FFF7C1FE0646CE
:100CF00009E0FFF7BDFE801B41F28831884202D92E
:100D0000032092E707E02548406800F00C00616886
:100D1000B0EB810FEDD12048006800F00700A84239
:100D20000ED91D48006820F0070028431A490860C2
:100D30000846006800F00700A84201D0012074E7CF
:100D4000207800F00400042807D11448406820F4FB
:100D5000E060E168084311494860207800F008002D
:100D6000082808D10D48406820F46050216940EA05
:100D7000C1000A49486000F03FF808494968C1F3DA
:100D80000311074A515CC8400649086006480068DC
:100D9000FFF794FE002048E70020024000100240C8
:100DA0001A300008100000200800002001480068E8
:100DB000704700001000002000B5FFF7F7FF04495E
:100DC0004968C1F30221034A515CC84000BD0000DC
:100DD000001002402A30000800B5FFF7E7FF044981
:100DE0004968C1F3C221034A515CC84000BD0000FC
:100DF000001002402A300008F0B585B00FF26C0CEC
:100E00009CE8E01001A8A0E8E0101CA52D68009562
:100E100000210022002300240020194D696801F000
:100E20000C05F5B1042D02D0082D19D101E01548AB
:100E300019E001ADC1F38346AC5D01F4803555B1D5
:100E40000F4D6D68C5F340451DF805200D4D6543F8
:100E5000B5FBF2F302E00C4D04FB05F3184602E08B
:100E600000BF084800BF00BF05B0F0BD0203040585
:100E7000060708090A0B0C0D0E0F101001020000E6
:100E80000010024000127A0000093D00F8B5044647
:100E90000CB90120F8BD207800F00100002878D0BE
:100EA000F848406800F00C0004280CD0F548406871
:100EB00000F00C00082811D1F248406800F480309E
:100EC000B0F5803F0AD1EF48006800F400300028F8
:100ED0005FD0606800285CD10120DBE700BF60685C
:100EE000B0F5803F06D1E748006840F48030E5491E
:100EF000086028E0606858B9E248006820F4803053
:100F0000E04908600846006820F4802008601AE084
:100F10006068B0F5A02F0BD1DA48006840F480205B
:100F2000D84908600846006840F4803008600AE04C
:100F3000D448006820F48030D24908600846006830
:100F400020F48020086000BF606888B1FFF790FD42
:100F5000054606E0FFF78CFD401B642801D90320FD
:100F600098E7C848006800F400300028F2D010E08C
:100F7000FFF77EFD054606E0FFF77AFD401B64287B
:100F800001D9032086E7BF48006800F4003000283C
:100F9000F2D1207800F00200022857D1B948406809
:100FA00000F00C0050B1B748406800F00C00082871
:100FB00018D1B448406800F4803098B9B14800684E
:100FC00000F0020020B12069012801D0012061E772
:100FD000AC48006820F0F800616940EAC100A94906
:100FE000086033E02069E8B10120A7490860FFF7F5
:100FF0003FFD054606E0FFF73BFD401B022801D9F7
:10100000032047E79F48006800F002000028F2D064
:101010009C48006820F0F800616940EAC1009949E5
:10102000086013E0002098490860FFF721FD05469D
:1010300006E0FFF71DFD401B022801D9032029E728
:101040009048006800F002000028F2D1207800F0FB
:10105000080008282DD1A069B8B101208B4908608B
:10106000FFF706FD054606E0FFF702FD401B0228DC
:1010700001D903200EE78348406A00F002000028EF
:10108000F2D0012000F0BAFF13E000207F49086091
:10109000FFF7EEFC054606E0FFF7EAFC401B0228DE
:1010A00001D90320F6E67748406A00F002000028E4
:1010B000F2D1207800F00400042873D10027714891
:1010C000C06900F0805070B900BF6E48C06940F040
:1010D00080506C49C8610846C06900F0805000909B
:1010E00000BF00BF01276A48006800F48070B0B9F3
:1010F0006748006840F4807065490860FFF7B8FCF5
:10110000054606E0FFF7B4FC401B642801D9032024
:10111000C0E65F48006800F480700028F2D000BF8D
:10112000E068012806D15748006A40F0010055499F
:10113000086227E0E06858B95248006A20F00100D0
:10114000504908620846006A20F00400086219E06D
:10115000E06805280BD14B48006A40F0040049497B
:1011600008620846006A40F0010008620AE045484B
:10117000006A20F00100434908620846006A20F036
:101180000400086200BFE068A0B1FFF771FC0546EB
:1011900009E0FFF76DFC401B41F28831884202D91B
:1011A000032077E622E03748006A00F002000028BA
:1011B000EFD012E0FFF75CFC054608E0FFF758FCB3
:1011C000401B41F28831884201D9032062E62D4854
:1011D000006A00F002000028F0D1012F05D1294853
:1011E000C06920F080502749C86100BFE069C8B3DA
:1011F0002448406800F00C00082860D0E06902280C
:1012000048D1002020490866FFF732FC054606E079
:10121000FFF72EFC401B022801D903203AE61948AB
:10122000006800F000700028F2D1206AB0F5803F1D
:1012300007D11448406820F40030A16808431149E0
:101240004860D4E9080108430E49496821F4741143
:1012500008430C49486001200B490866FFF708FC69
:10126000054607E03DE0FFF703FC401B022801D9DB
:1012700003200FE60348006800F000700028F2D059
:101280002FE0000000100240000042428004424271
:1012900000700040002014490866FFF7E9FB05468E
:1012A00006E0FFF7E5FB401B022801D90320F1E52A
:1012B0000E48006800F000700028F2D111E0E069EB
:1012C000012800D1E6E50948466806F48031206A25
:1012D000814204D106F47011606A814201D001207C
:1012E000D8E50020D6E50000000042420010024090
:1012F00010B504460CB9012010BD606A00B900BFEA
:101300000021A16294F8510028B9002084F850000F
:10131000204600F031F8022084F85100206800686F
:1013200020F0400021680860D4E901010843E16829
:1013300008432169084361690843218B01F4007166
:101340000843E1690843216A0843A16A0843216808
:1013500008600421A06901EA104021684860206803
:10136000C06920F400602168C86100206065012028
:1013700084F851000020BFE710B586B00446002075
:1013800002900390049005901A49206888422FD15A
:1013900000BF1948C06940F480401749C861084639
:1013A000C06900F48040019000BF00BF00BF084644
:1013B000806940F0080088610846806900F00800F4
:1013C000019000BF00BF4FF4204002900220039024
:1013D0000320059002A90948FFF7B4F94FF48040B3
:1013E000029000200390049002A90448FFF7AAF994
:1013F00006B010BD0038004000100240000C014053
:101400002DE9F8430446884616461D464FF000096C
:101410006068B0F5827F0DD1A06858B9042084F8C7
:1014200051003346424641462046009500F06BF994
:10143000BDE8F88300BF94F85000012801D10220D4
:10144000F6E7012084F8500000BFFFF711FB0746C4
:1014500094F85100012802D04FF0020978E0B8F169
:10146000000F00D016B94FF0010971E0042084F894
:10147000510000206065C4F83880A687E6872063A5
:10148000A086E08620646064A068B0F5004F05D1B6
:101490002068006820F480402168086020680068A7
:1014A00000F04000402805D02068006840F040006F
:1014B00021680860E068F8B91AE02068806800F0E8
:1014C000010050B12068007BA16B0870A06B401C2C
:1014D000A063E08F401EE0870AE0FFF7C9FAC01B57
:1014E000A84201D3681C00B915B94FF003092FE0D9
:1014F000E08F0028E1D11EE01AE02068806800F04B
:10150000010050B12068C068A16B0880A06B801CEE
:10151000A063E08F401EE0870AE0FFF7A9FAC01B36
:10152000A84201D3681C00B915B94FF003090FE0B8
:10153000E08F0028E1D13A462946204600F0A0FD80
:1015400008B120206065606D08B14FF0010900BF4F
:10155000012084F8510000BF002084F8500000BF33
:10156000484665E72DE9F84F0446884616461D466D
:101570004FF0000A00BF94F85000012802D1022069
:10158000BDE8F88F012084F8500000BFFFF770FA23
:101590000746B14694F85100012802D04FF0020AE4
:1015A000A7E0B8F1000F00D016B94FF0010AA0E093
:1015B000032084F8510000206065C4F83080A686BE
:1015C000E686A063A087E08760642064A068B0F529
:1015D000004F05D12068006840F480402168086011
:1015E0002068006800F04000402805D020680068AE
:1015F00040F0400021680860E068B0F5006F2FD12E
:10160000606810B1B9F1010F09D1206B0088216821
:10161000C860206B801C2063E08E401EE0861BE0CB
:101620002068806800F0020002280AD1206B008840
:101630002168C860206B801C2063E08E401EE0861D
:101640000AE0FFF715FAC01BA84201D3681C00B9D5
:1016500015B94FF0030A4CE0E08E0028E0D12EE0EF
:10166000606810B1B9F1010F09D1206B00782168D1
:101670000873206B401C2063E08E401EE0861BE058
:101680002068806800F0020002280AD1206B0078F0
:1016900021680873206B401C2063E08E401EE086AA
:1016A0000AE0FFF7E5F9C01BA84201D3681C00B9A6
:1016B00015B94FF0030A1CE0E08E0028E0D13A464D
:1016C0002946204600F018FD08B120206065A0687A
:1016D00050B900BF002000902068C06800902068CA
:1016E0008068009000BF00BF606D08B14FF0010A34
:1016F00000BF012084F8510000BF002084F8500092
:1017000000BF50463CE72DE9FF5F044688469146FE
:101710001D460E9E012002900020019000BF94F80B
:101720005000012803D1022004B0BDE8F09F012041
:1017300084F8500000BFFFF79BF9074694F851B0BA
:1017400060680390AA46BBF1010F0BD00398B0F577
:10175000827F04D1A06810B9BBF1040F02D002202F
:101760000190DBE0B8F1000F03D0B9F1000F00D019
:1017700015B901200190D1E094F85100042802D05D
:10178000052084F8510000206065C4F83890E58792
:10179000A587C4F83080E586A5862064606420684B
:1017A000006800F04000402805D02068006840F044
:1017B000400021680860E068B0F5006F4AD16068B9
:1017C00010B1BAF1010F09D1206B00882168C860FF
:1017D000206B801C2063E08E401EE08633E0206892
:1017E000806800F00200022810D1E08E70B10298EB
:1017F00001280BD1206B00882168C860206B801CF9
:101800002063E08E401EE086002002902068806801
:1018100000F0010068B1E08F58B12068C068A16B8A
:101820000880A06B801CA063E08F401EE087012031
:101830000290FFF71DF9C01BB04204D3701C10B119
:10184000032001906AE0E08E0028C8D1E08F0028D4
:10185000C5D14AE0606810B1BAF1010F09D1206B1F
:10186000007821680873206B401C2063E08E401EC6
:10187000E08634E02068806800F00200022810D181
:10188000E08E70B1029801280BD1206B007821689E
:101890000873206B401C2063E08E401EE086002011
:1018A00002902068806800F0010068B1E08F58B1B4
:1018B0002068C068A16B0870A06B401CA063E08F1B
:1018C000401EE08701200290FFF7D2F8C01BB04213
:1018D00001D3701C00B916B9032001901EE0E08E00
:1018E0000028C7D1E08F0028C4D13A4631462046AF
:1018F00000F002FC20B101200190202060650DE085
:10190000A06850B900BF002000902068C068009017
:1019100020688068009000BF00BF00BF012084F8ED
:10192000510000BF002084F8500000BF0198FBE682
:1019300070B504462546681EB0F1807F01D30120B2
:101940000FE0681E4FF0E02148610F214FF0FF309B
:1019500000F078FE00204FF0E02188610720086148
:10196000002070BD704700002DE9F0470446206854
:1019700005682068C668206847694FF00008C146BE
:1019800005F00F08B8F1000F0AD105F0200038B1BA
:1019900006F0200020B1204600F0A4FCBDE8F0874E
:1019A000B8F1000F6DD007F0010018B906F490707F
:1019B000002866D005F0010030B106F4807018B13F
:1019C000E06B40F00100E06305F0040030B107F087
:1019D000010018B1E06B40F00200E06305F0020086
:1019E00030B107F0010018B1E06B40F00400E06393
:1019F00005F0080030B107F0010018B1E06B40F0CD
:101A00000800E063E06B68B305F0200028B106F041
:101A1000200010B1204600F065FC20684069C0F34A
:101A20008019E06B00F0080010B9B9F1000F22D066
:101A3000204600F037FC2068406900F04000B0B15B
:101A40002068406920F0400021684861606B50B117
:101A50001748616B4863606BFEF71CFE10B1606B4A
:101A6000416B88470CE02046FFF77CFF08E02046EA
:101A7000FFF778FF04E02046FFF774FF0020E063E3
:101A80008CE705F0800030B106F0800018B12046E8
:101A900000F04CFD82E705F0400030B106F0400058
:101AA00018B1204600F00EFC78E700BF76E7000092
:101AB0009122000810B504460CB9012010BDA069A0
:101AC00000B100E000BF94F8390028B9002084F884
:101AD0003800204600F028F8242084F839002068D7
:101AE000C06820F400502168C860204600F04EFC19
:101AF0002068006920F490402168086120684069EE
:101B000020F02A00216848612068C06840F4005035
:101B10002168C8600020E063202084F8390084F840
:101B20003A000020CAE7000010B586B00446002045
:101B300002900390049005901E492068884236D197
:101B400000BF1D48806940F480401B4988610846F9
:101B5000806900F48040019000BF00BF00BF0846CC
:101B6000806940F0040088610846806900F0040044
:101B7000019000BF00BF481502900220039003208F
:101B8000059002A90D48FEF7DDFD4FF4806002903C
:101B900000200390049002A90848FEF7D3FD00221C
:101BA00011462520FEF7EAFF2520FEF7D7FF06B0F5
:101BB00010BD000000380140001002400008014044
:101BC00070472DE9F84304460D4616461F464FF070
:101BD000000994F8390020285CD105B116B901201C
:101BE000BDE8F88300BF94F83800012801D1022035
:101BF000F6E7012084F8380000BF0020E0632120D0
:101C000084F83900FEF734FF8146A684E6842BE091
:101C1000E08C401EE084A068B0F5805F16D14B4692
:101C2000002280212046009700F0B4FC08B1032078
:101C3000D6E7A846B8F80000C0F30800216848605D
:101C4000206908B9AD1C0FE06D1C0DE04B46002269
:101C500080212046009700F09DFC08B10320BFE7DB
:101C600015F8010B21684860E08C0028D0D14B4664
:101C7000002240212046009700F08CFC08B1032090
:101C8000AEE7202084F8390000BF002084F8380037
:101C900000BFA5E70220A3E7704700BFFEE70000F2
:101CA00000B585B00020019002900390049000BF21
:101CB0003148806940F010002F49886108468069EA
:101CC00000F01000009000BF00BF00BF0846806910
:101CD00040F0200088610846806900F020000090F4
:101CE00000BF00BF00BF0846806940F0080088615F
:101CF0000846806900F00800009000BF00BF00BFE8
:101D00000846806940F0040088610846806900F058
:101D10000400009000BF00BF00224FF4005117489C
:101D2000FEF7A0FE012260211548FEF79BFE4FF44E
:101D300000500190012002900020039002200490A6
:101D400001A90E48FEF7FEFC102001900020029031
:101D50000120039001A90A48FEF7F4FC60200190DD
:101D600001200290002003900320049001A9044860
:101D7000FEF7E8FC05B000BD001002400010014075
:101D8000000C014010B50E480E4908604FF48270F7
:101D9000486000210B488160C160016141614FF4DE
:101DA000007181611021C161002101624162816283
:101DB0000A21C162FFF79CFA08B1FEF768FC10BD6A
:101DC000003800405800002010B50B480B4908604F
:101DD0004FF4E1304860002108488160C160016132
:101DE0000C21416100218161C161FFF763FE08B1EF
:101DF000FEF74DFC10BD000000380140B00000208F
:101E000000BFFEE700BFFEE71FB513A103C9CDE980
:101E10000201052202A9302000F0B6F80522694629
:101E2000102000F045F8002406E01DF80400A52865
:101E300000D003E0601CC4B2052CF6DB00BF052C0B
:101E400005D007A000F0E6FB012004B010BD0AA0F9
:101E500000F0E0FB0020F8E7A5A5A5A5A50000007F
:101E60006E524632344C3031205445535420464152
:101E7000494C0D0A000000006E524632344C30319D
:101E80002054455354204F4B0D0A000010B500223A
:101E900040210648FEF7E6FD012220210348FEF717
:101EA000E1FD642001F03BF810BD0000000C014092
:101EB0002DE9F04104460D461646002220210A482D
:101EC000FEF7D0FD204601F089F807461023324680
:101ED00029460648FFF794FA012220210248FEF71E
:101EE000C1FD3846BDE8F081000C014058000020DB
:101EF00070B50446002220210848FEF7B3FD2046B5
:101F000001F06CF8FF2001F069F80546012220215C
:101F10000248FEF7A7FD284670BD0000000C0140F6
:101F200070B505460720FFF7E3FF0446214627204A
:101F300000F04AF804F0200010B10BA000F06AFB9A
:101F400004F0400068B1202229466120FFF7B0FF6D
:101F5000FF21E22000F038F807A000F05BFB002032
:101F600070BD0120FCE7000052582073656E6420AC
:101F700061636B210D0A0000525820726561642074
:101F800064617461210D0A002DE9F04104460D469B
:101F90001646002220210A48FEF764FD204601F083
:101FA0001DF807461023324629460648FFF7DAFA9D
:101FB000012220210248FEF755FD3846BDE8F08198
:101FC000000C01405800002070B505460C46002268
:101FD00020210848FEF746FD284600F0FFFF064690
:101FE000204600F0FBFF012220210248FEF73AFDC7
:101FF000304670BD000C01407047000008B508492C
:102000000968C9084FF47A72B1FBF2F141430091BB
:1020100000BF00BF00994A1E00920029F9D108BDF7
:102020001000002010B5002240211348FEF71AFDD1
:10203000052212492A20FFF7A7FF01212120FFF7DF
:10204000C3FF01212220FFF7BFFF78212520FFF7E2
:10205000BBFF20213120FFF7B7FF0F212620FFF71C
:10206000B3FF0F212020FFF7AFFF012240210248DC
:10207000FEF7F8FC10BD0000000C0140FC2F00082A
:10208000F8B504460E4615466068B0F5827F0DD15E
:10209000A068B0F5004F03D0A068B0F5806F05D1FF
:1020A0002068006820F04000216808606068B0F592
:1020B000827F11D1A068B0F5806F0DD13346002228
:1020C00001212046009500F02BF898B1606D40F09A
:1020D000200060650320F8BD3346002280212046A1
:1020E000009500F01DF828B1606D40F0200060659B
:1020F0000320F0E70020EEE7F8B504460D4616464B
:102100002B46002280212046009600F009F828B1D5
:10211000606D40F0200060650320F8BD0020FCE702
:102120002DE9F04104460E4617461D46DDF818809D
:102130003EE0681CD8B3FEF79BFCA0EB0800A84269
:1021400000D2A5BB2068406820F0E000216848600C
:102150006068B0F5827F0DD1A068B0F5004F03D064
:10216000A068B0F5806F05D12068006820F04000BD
:1021700021680860A06AB0F5005F0DD100BF20683B
:10218000006820F40050216808602068006840F46E
:1021900000502168086000BF012084F8510000BF92
:1021A000002084F8500000BF0320BDE8F081FFE765
:1021B000206880683040B04201D1012000E000205A
:1021C000B842B6D10020F0E7704710B5FEF756FCD4
:1021D00010BD00B58FB0282105A8FDF7BAFF142166
:1021E0006846FDF7B6FF0120059000040690002028
:1021F00007900120099002200C90C1030D914FF42B
:10220000E0110E9105A8FEF741FE08B1FEF73FFA76
:102210000F20009002200190002002904FF4806077
:1022200003900020049002216846FEF7F9FC08B1F3
:10223000FEF72DFA0FB000BD1148006840F0010014
:102240000F490860084640680E4908400C4948603C
:10225000084600680C4908400949086008460068BB
:1022600020F4802008600846406820F4FE004860A2
:102270004FF41F008860C8030449086070470000DD
:10228000001002400000FFF8FFFFF6FE08ED00E03E
:1022900070B505466C6A0020E085E0842046FFF7B3
:1022A00061FB70BD0168C96821F490710268D1605A
:1022B0000168496921F0010102685161202180F81B
:1022C0003A10704710B504462068C06820F04000FE
:1022D0002168C860202084F839002046FFF7DCFC24
:1022E000002010BD70B5044694F83A0022284AD167
:1022F000A068B0F5805F13D1A56A206940B9206855
:102300004068C0F308002880A06A801CA06219E021
:1023100020684068C0B22880A06A401CA06211E01A
:10232000206938B920684068C1B2A26A501CA06216
:10233000117007E02068406800F07F01A26A501C1D
:10234000A0621170E08D401E80B2E085C8B920689F
:10235000C06820F020002168C8602068C06820F4B0
:1023600080702168C8602068406920F00100216801
:102370004861202084F83A002046FFF721FC002025
:1023800070BD0020FCE70220FAE7000070B50446AB
:102390002168096921F44051E26811432268116102
:1023A0002269A1681143626941EA02052168C9688E
:1023B00041F20C62914329432268D1602168496946
:1023C00021F44071A269114322685161564A216883
:1023D000914254D1FEF700FD00EBC00101EB00116A
:1023E00062689200B1FBF2F100EBC00202EB001256
:1023F00063689B00B2FBF3F26423B2FBF3F202EBDF
:10240000C20303EB0212A1EB8201322202EB0111A3
:102410006422B1FBF2F101F0F00100EBC00202EB2B
:10242000001263689B00B2FBF3F26423B2FBF3F289
:1024300001EB021200EBC00101EB001163689B008D
:10244000B1FBF3F100EBC00303EB00136668B600C9
:10245000B3FBF6F36426B3FBF6F303EBC30606EB1C
:102460000313A1EB8301322303EB01116423B1FBBE
:10247000F3F101F00F0111442268916053E0FEF77F
:102480009BFC00EBC00101EB001162689200B1FB04
:10249000F2F100EBC00202EB001263689B00B2FB9A
:1024A000F3F26423B2FBF3F202EBC20303EB02127A
:1024B000A1EB8201322202EB01116422B1FBF2F1A5
:1024C00001F0F00100EBC00202EB001263689B0018
:1024D000B2FBF3F26423B2FBF3F201EB021200EB66
:1024E000C00101EB001163689B00B1FBF3F100EB4D
:1024F000C00303EB00136668B600B3FBF6F3642673
:10250000B3FBF6F303EBC30606EB0313A1EB830166
:10251000322303EB01116423B1FBF3F101F00F014E
:1025200011442268916070BD00380140014691F865
:10253000390021282CD18868B0F5805F0FD10A6A54
:102540001088C0F308000B685860086918B9086A59
:10255000801C086209E0086A401C086205E00B6AFA
:10256000581C086218780B685860C88C401E80B2EE
:10257000C88458B90868C06820F080000B68D8602B
:102580000868C06840F040000B68D86000207047C1
:102590000220FCE72DE9F04104460D461746984617
:1025A000069E21E0701CF8B12EB1FEF761FAA0EB97
:1025B0000800B04218D92068C06820F4D0702168A3
:1025C000C8602068406920F001002168486120202F
:1025D00084F8390084F83A0000BF002084F83800FD
:1025E00000BF0320BDE8F081206800682840A842B1
:1025F00001D1012000E00020B842D3D00020F1E753
:1026000010B50248FFF7B0F910BD0000B00000207F
:1026100000BFFEE70FB4054B10B503A9044A0298AA
:1026200000F0E6F810BC5DF814FB0000392F00083C
:102630001400002002480068C0F302207047000028
:102640000CED00E010B5002804DB0A07130E054A64
:10265000135406E00A07140E034A00F00F031B1F71
:10266000D45410BD00E400E018ED00E002E008C81A
:10267000121F08C1002AFAD170477047002001E0FC
:1026800001C1121F002AFBD1704700002DE9FF5F36
:10269000DDE90220010DDDF838B0024318D044F620
:1026A0001050A1F2FF3141430D140F98012820D0A2
:1026B000A5EB0B00401C5FEA000A4FF00004474EF8
:1026C000DFF81C91A046504616D5CAF1000728E055
:1026D0000F98012443A2012808D0002100980F9BE5
:1026E000C0E90021C0E90243BDE8FF9F6FEA0B018A
:1026F000F4E7CBF10000DEE7074612E0F80707D069
:102700002246334640464946FDF71CFE8046894630
:102710002246334610461946FDF714FE04460E467F
:102720007F10002FEAD1DDE90201BAF1000F424625
:102730004B4602DAFDF706FE01E0FDF775FE0446A2
:102740000E460022284BFDF7F7FE03D84FF0FF306E
:10275000014607E00022254B20463146FDF74BFDA0
:10276000FDF7D1FE102409E0002C0ADB0A22002329
:10277000FDF710FD019B30321A55641E50EA01022C
:10278000F2D1641C019AC4F1110314440F9A012A76
:1027900003D0012208430DD10AE0084304D00020F1
:1027A0004FF0110B0F9080E7A3EB0B056D1E0DE0B2
:1027B0005B4504DD4FF0000205F1010504E003DA9A
:1027C0004FF00002A5F10105002AECD000980F9906
:1027D000C0E90231C0E9004586E70000000024405E
:1027E0000000F03F300000000000F0430000E03F38
:1027F0002DE9FF4F95B09B468946064600250FE21E
:10280000252877D100242746F84A0121059400E0C5
:10281000044316F8013F203B01FA03F01042F7D1C0
:1028200030782A2811D06FF02F033078A0F13002D1
:10283000092A16D8059A44F0020402EB820203EB3F
:1028400042021044761C0590EFE759F8042B0592DC
:10285000002A03DA504244F40054059044F0020484
:10286000761C30782E2816D116F8010F44F0040497
:102870002A280DD06FF02F023078A0F13003092BF9
:1028800009D807EB870302EB4303C718761CF3E76D
:1028900059F8047B761C30786C280FD006DC4C2865
:1028A00017D068280DD06A2814D104E0742810D0FD
:1028B0007A280FD10DE044F400140AE044F48014A7
:1028C00001E044F440147278824202D104F580148D
:1028D000761C761C307866280BD013DC582877D00D
:1028E00009DC002875D04528F6D04628F4D04728C2
:1028F0001AD19DE118E0632835D0642879D0652885
:1029000012D195E1702873D008DC6728F1D06928CE
:102910006FD06E280DD06F2806D1B5E073282CD06B
:10292000752875D0782874D05A46179990476D1C31
:1029300075E1C4F30250022809D003280DD0D9F85C
:10294000001004280DD00D6009F1040967E1D9F8E1
:102950000010EA17C1E90052F6E7D9F800100D801F
:10296000F2E70D70F0E719F8041B8DF80010002055
:102970008DF80100EA46012003E059F804AB4FF05E
:10298000FF3061074FF0000102D40DE008F10101B2
:102990008846B9420FDA8045F8DB1AF8081000299A
:1029A000F4D108E008F1010188468142FADB1AF807
:1029B00008100029F6D105985B46A0EB08072146D0
:1029C0003846179A00F094FA284400EB080507E00F
:1029D0004DE029E10DE01AF8010B5A46179990478E
:1029E000B8F10108F7D25B4621463846179A13E141
:1029F00042E00A220092C4F302524FF0000A022A77
:102A000008D059F804CB032A4FEAEC710AD00DE044
:102A100029E02AE009F1070121F00702F2E802C1EA
:102A2000914609E00FFA8CFC4FEAEC71042A03D1BD
:102A30004FFA8CFC4FEAEC71002907DA0A460021B4
:102A4000DCF1000C61EB02012D2202E0220504D52D
:102A50002B228DF80420012203E0E20701D020227E
:102A6000F7E7904659E00A2102E010220DE010211C
:102A70004FF0000A00910BE010224FF0000A44F0E2
:102A800004040827009203E008224FF0000A009295
:102A9000C4F30252022A05D059F804CB0021032ABC
:102AA00008D009E009F1070121F00702F2E802C1AC
:102AB000914605E01FFA8CFC042A01D10CF0FF0CB2
:102AC0004FF00008220728D5702806D0009B83F01D
:102AD000100353EA0A0305D00EE040228DF80420CB
:102AE000012208E05CEA010206D030228DF80420C1
:102AF0008DF8050002229046009B83F0080353EAFC
:102B00000A030AD15CEA010201D1620705D530222D
:102B10008DF804204FF001087F1E582804D034A0FF
:102B200003900EA802900DE036A0F9E753466046E8
:102B3000009AFDF72FFB84460398825C0298401EA2
:102B4000029002705CEA0100F0D1029806A9081A0E
:102B500000F1200A600702D524F4803400E0012748
:102B6000574502DDA7EB0A0000E0002000EB0A0158
:102B7000009005984144401A0590E00306D45B4656
:102B80002146179A059800F0B3F90544002706E09E
:102B900001A85A46C05D179990476D1C7F1C474598
:102BA000F6DBE0030CD55B462146179A059800F04A
:102BB0009FF9054404E030205A46179990476D1C50
:102BC0000099481E00900029F5DC08E0029802995F
:102BD0005A460078491C0291179990476D1CBAF12A
:102BE0000001AAF1010AF1DC65E1000009280100F9
:102BF0003031323334353637383961626364656673
:102C00000000000030313233343536373839414234
:102C1000434445460000000000F058F90544761C86
:102C2000307800287FF4ECAD19B02846BDE8F08F6D
:102C3000620700D4062709F1070222F0070CFCE81E
:102C40000223E14603F000485FEA080C02D00FF2CD
:102C5000702C0DE05FEA045C02D50FF2682C07E0EF
:102C60005FEAC47C02D00FF2602C01E0AFF2700C7E
:102C70004FF0FF3823F00043CDF850C065280CD04A
:102C800006DC452809D046281DD047283DD13DE027
:102C9000662818D067287ED138E00021112F01DB8B
:102CA000112000E0781CCDE9000106A90EA8FFF76D
:102CB000EDFCDDE90F010E9A03910021009207F16E
:102CC000010A04914DE04FF000400097CDE901105A
:102CD00006A90EA8FFF7DAFCDDE90F0203920E9BAE
:102CE00011990022DDF80CA00093049211B9791C0F
:102CF00000EB010AB7EB0A0004D4C0F1FF3007F182
:102D0000010A0490AAEB0700019044E0012F00DAC9
:102D100001270021112F01DD112000E03846CDE907
:102D2000000106A90EA8FFF7B1FCDDE90F010E9A1C
:102D30000391002104910092BA4621070CD4039913
:102D4000514500DA8A46BAF1010F05DD009AAAF171
:102D50000101515C302908D0B84202DA10F1040FA9
:102D600006DA0121CDE9011015E0AAF10101E9E738
:102D7000002805DC049901440491AAEB000102E05B
:102D8000411C514500DD8A460499401A401C0190BF
:102D90004FF000400290200704D40198504501DB19
:102DA000CDF8048000208DF84F0002980DF14F07F8
:102DB000B0F1004F25D02B200E9002984FF0020862
:102DC00000280CDA404202902D200E9007E00A21E4
:102DD0000298FDF7C9F93031029007F8011DB8F1EA
:102DE0000001A8F10108F2DC02980028EFD1791E59
:102DF0000E980870307800F0200040F0450007F889
:102E0000020D12A8C01B00F107081498007800B149
:102E1000012000EB0A01019801EBE07105984144A3
:102E2000401A401E0590E00306D45B462146179ADF
:102E3000059800F05DF805441498007818B15A46DA
:102E4000179990476D1CE00324D55B462146179ADD
:102E5000059800F04DF805441CE00498002807DBB5
:102E6000DDE90301884203DD0098405C179901E029
:102E7000179930205A469047049805F10105401CE7
:102E800004900198401E019004D12E205A461799B3
:102E900090476D1CBAF10001AAF1010ADDDC05E0E2
:102EA00017F8010B5A46179990476D1CB8F10001AD
:102EB000A8F10108F4DC5B462146179A0598ABE6B9
:102EC0002D0000002B000000200000002DE9F04143
:102ED000044600251E461746880404D405E03946FA
:102EE0002020B0476D1C641EF9D52846BDE8F0814E
:102EF0002DE9F041044600251E469046C80301D541
:102F0000302700E02027880404D505E041463846F4
:102F1000B0476D1C641EF9D52846BDE8F08106E077
:102F2000082100BF0A00A1F10103D9B2FAD10200C1
:102F3000A0F10100F4D1704713B50C461023012213
:102F400069460248FEF73DFE00981CBDB000002017
:102F5000FDF7A0FDFFF73DF9FEF7A2FEFEF734FFF7
:102F6000FEF710FF15A0FFF755FBFEF78FFF0420BB
:102F70001649087000BFFEF747FF38B113480178C3
:102F80000078401E114A10700029F4D1FFF74AF86A
:102F900012E00F48FEF7C4FF70B9002406E00C48A9
:102FA000015D0CA0FFF736FB601CC4B2202CF6DBE1
:102FB00009A0FFF72FFB00BFEBE700000D0A696EC9
:102FC0006974204F4B210D0A000000000000002012
:102FD00018000020202578000D0A000001B582B0FD
:102FE0001020012301AA02A900900348FEF78BFBE1
:102FF0009DF804000EBD000058000020023AB1B157
:1030000001023A010101033A010101043A010101FF
:10301000053A010101063A0101010000000000002B
:103020000000010203040607080900000000010275
:1030300003040000543000080000002018000000C5
:103040006C2600086C3000081800002018050000ED
:103050007C260008000000000000000010000000B6
:0C306000010000000024F400000000004B
:04000005080000ED02
:00000001FF
