:020000040800F2
:10000000500600204901000865280008B9240008AE
:1000100061280008F5060008B9310008000000005A
:10002000000000000000000000000000D12A0008CD
:10003000F906000800000000A52A0008D32A0008DD
:100040006301000863010008630100086301000800
:1000500063010008630100086301000863010008F0
:1000600063010008630100086301000863010008E0
:1000700063010008630100086301000863010008D0
:1000800063010008630100086301000863010008C0
:1000900063010008630100086301000863010008B0
:1000A00063010008630100086301000863010008A0
:1000B0006301000863010008630100086301000890
:1000C0006301000863010008630100086301000880
:1000D0006301000899310008A93100086301000894
:1000E0006301000863010008630100086301000860
:1000F0006301000863010008630100086301000850
:10010000630100086301000863010008630100083F
:10011000630100086301000863010008452B000823
:10012000630100086301000863010008630100081F
:10013000DFF810D000F0CCFA004800475136000834
:10014000AFF300805006002006488047064800476D
:10015000FEE7FEE7FEE7FEE7FEE7FEE7FEE7FEE777
:10016000FEE7FEE7412B000831010008202A04DBEE
:10017000203A21FA02F00021704721FA02F3D04020
:10018000C2F120029140084319467047D2B201E003
:1001900000F8012B491EFBD270470022F6E710B58C
:1001A00013460A4604461946FFF7F0FF204610BDE5
:1001B000F0B480EA0102D40F4200B2EB410F02D248
:1001C0000246084611464A0042D0C30DDDB2C1F3D3
:1001D000C752AD1A202D35DAC1F3160141F40002E1
:1001E00004B15242C5F1200602FA06F12A41104438
:1001F000B3EBD05F23D0C4B1012DA0EBC35009DC19
:10020000F0BC4FF0004202EAC352DBB200F500003E
:1002100000F0D2B9400000F1807000EBC350A0F1B3
:10022000807040EAD170490009E0490841EAC07194
:10023000A0EBC35000F50000400800EBC350F0BC39
:1002400000F0B1B96142012202EB4101001BF6E767
:10025000F0BC704781F00041AAE780F00040A7E7BA
:1002600080EA010210B502F00043400022D04A00AB
:100270001FD0010E01EB1261C0F35600C2F356020B
:1002800040F4000042F40002A0FB022000047F3989
:10029000140400D0401C50EA124001D44000491E12
:1002A000C2B20C0604EBD010401C4008802A02D0D9
:1002B00003E0002010BD20F00100002900DA00203A
:1002C000184310BD30B480EA010202F0004530F05E
:1002D000004221F0004013D090B1C30DD40DC2F301
:1002E0001601C0F31600E41A41F4000140F40002C4
:1002F0007D34914201D3641C00E04900002C02DAF5
:1003000030BC002070474FF400000023914201D31D
:10031000891A034340084FEA4101F7D151B1914294
:1003200002D14FF0004105E002D24FF0010101E09F
:100330006FF0010103EBC450284430BC00F033B926
:100340002DE9FE4F804681EA0300C00F0C46009065
:1003500021F0004123F00045B8EB0200A94105D28D
:100360004046214690461C460B46024623F000407C
:10037000104347D0270DC7F30A00C3F30A51029078
:10038000401A019040286BDAC3F3130040F4801B3D
:100390000098924620B10023D2EB030A63EB0B0BCB
:1003A00001985946C0F14002504600F0DBF806467D
:1003B0000D4650465946019A00F0E3F810EB08004C
:1003C0006141002487EA115284EAE7731A4340D05E
:1003D000009A62B3019A012A4FEA075215DC001B0A
:1003E00061EB02014FF0004202EA0752CDE9004200
:1003F000001C41F5801132462B4600F01AF903B07B
:10040000BDE8F08F40462146F9E7001B61EB020191
:10041000001C41F5801300185B412018A2F500175D
:1004200047EB030140EAD570B6196D4111E06D0844
:100430004FEA360645EAC0754FEA0752001B61EBEA
:100440000201001C41F5801149084FEA30000019F3
:10045000514132462B4603B0BDE8F04F00F0DAB808
:100460000098012240000023D0EB020263EBE0730E
:10047000009821464FEAE074B8EB000061EB0401FC
:10048000E9E783F000435BE781F0004158E7C10FE3
:1004900080EAE0700844CA079623002100F08CB877
:1004A00096230022114600F087B800F0004220F0A9
:1004B0000040C10DC0F3160040F400007F2901DAAE
:1004C00000207047962903DCC1F19601C84001E085
:1004D00096398840002AF4D04042704700F000422C
:1004E00030F000400AD0C10D01F56071C0F3160074
:1004F00042EA0151C20840071143704700200146FB
:10050000704701F0004330B421F0004150EA01028D
:1005100006D00A0DA2F56072C1F31301002A02DCB5
:1005200030BC00207047440F44EAC104C100E01809
:1005300030BC00EBC25000F036B80000002801DBF0
:10054000C0F10040002901DBC1F100418142704748
:10055000002801DBC0F10040002901DBC1F10041AE
:1005600088427047202A04DB203A00FA02F100207A
:1005700070479140C2F1200320FA03F319439040E1
:100580007047202A06DBCB17203A41FA02F043EAF3
:10059000E07306E041FA02F3D040C2F1200291403C
:1005A0000843194670470029A8BF7047401C4900FE
:1005B00008BF20F00100704710B4B0FA80FC00FAC8
:1005C0000CF050EA010404BF10BC704749B1CCF1F3
:1005D000200421FA04F411FA0CF118BF012121437F
:1005E0000843A3EB0C01CB1D4FEA00614FEA10203A
:1005F00042BF002010BC704700EBC35010440029DC
:10060000A4BF10BC7047401C490008BF20F0010087
:1006100010BC704710B5141E73F1000408DA401CBA
:1006200041F1000192185B411A4301D120F0010011
:1006300010BD2DE9F04D92469B4611B1B1FA81F201
:1006400002E0B0FA80F220329046FFF78BFF0446BA
:100650000F4640EA0A0041EA0B0153465A46084356
:1006600013D0114653EA010019D0C8F14002504698
:10067000FFF77CFD05460E46504659464246FFF7B9
:1006800071FF084305D0012004E020463946BDE84B
:10069000F08D0020054346EAE0762C4337430A9864
:1006A0006305E40AA0EB08000022FD0A44EA47546F
:1006B0000A3002D500200146E9E701051019694119
:1006C000DDE9084500196941BDE8F04DA2E70000E9
:1006D000064C074D06E0E06840F0010394E807008F
:1006E00098471034AC42F6D3FFF726FD9038000847
:1006F000B038000800BFFEE7704700003E490978A7
:1007000069B94A280BD101213B4A11703B490A784B
:100710000978491C394B1970394988546AE03649BF
:100720000978012918D135490A780978491C334BD1
:10073000197033498854194609780A2901DA492879
:1007400058D103212C4A11702C490978891E2C4A52
:10075000515C2C4A11704DE027490978032933D1A7
:1007600026490978491E264A515C4A2905D10021AB
:10077000224A1170204A117015E000211E4A1170A2
:100780001E4A1170204A117009E000211C4A1E4BBC
:100790001B78D1541C490978491C1B4A11701A490D
:1007A00009780A29F1DB1449097819BB4A2821D1B3
:1007B0000121114A117011490A780978491C0F4B1F
:1007C00019700F49885415E000210B4A11700B4A2B
:1007D00011700D4A117009E00021094A0A4B1B787B
:1007E000D15409490978491C074A1170064909780A
:1007F0000A29F1DB704700006A0000206900002030
:1008000098010020020000206800002072B600BF9E
:10081000FEE70146002291F82100022808D00420BA
:10082000886300BF002081F8200000BF01207047CE
:100830000868006820F00E000B68186008680068FF
:1008400020F001000B68186091F8403001209840BA
:10085000CB6B5860012081F8210000BF002081F897
:10086000200000BF1046E2E770B50446002594F86A
:100870002100022803D00420A0630125C1E02068E4
:10088000006820F00E00216808602068006820F0F1
:100890000100216808605C492068884252D95A49A1
:1008A00078392068884201D1012047E056496439EF
:1008B0002068884201D1102040E053495039206817
:1008C000884201D1801539E04F493C39206888427F
:1008D00001D1801432E04C4928392068884202D185
:1008E0004FF480302AE0484914392068884202D108
:1008F0004FF4801022E044492068884201D140042E
:100900001CE042492068884201D1012016E03F499D
:1009100014312068884201D110200FE03B49283172
:100920002068884201D1801508E038493C312068B0
:10093000884201D1801401E04FF480303349091F0F
:10094000086051E0304978392068884201D101209F
:1009500047E02D4964392068884201D1102040E0E9
:10096000294950392068884201D1801539E026494B
:100970003C392068884201D1801432E0224928396C
:100980002068884202D14FF480302AE01E49143991
:100990002068884202D14FF4801022E01A49206872
:1009A000884201D140041CE018492068884201D1E6
:1009B000012016E0154914312068884201D1102029
:1009C0000FE0124928312068884201D1801508E0E3
:1009D0000E493C312068884201D1801401E04FF477
:1009E0008030094980394860012084F8210000BF27
:1009F000002084F8200000BF606B10B12046616BBE
:100A00008847284670BD000080000240080402406C
:100A10002DE9F847024600239C467BE14FF0010890
:100A200008FA03F4D1F8008008EA0400A0427DD15E
:100A3000DFF8F4A2D1F80480A8EB0A09D0453AD037
:100A400014DCB8F1030F50D009DCB8F1000F31D03D
:100A5000B8F1010F1CD0B8F1020F49D120E0B8F174
:100A6000110F18D0B8F1120F42D11EE0B9F5881F4E
:100A700025D006DCB9F5803F20D0B9F5801F37D1ED
:100A80001AE0B9F5001F18D0B9F5041F30D117E0EE
:100A9000D1F80CC02DE0D1F80C8008F1040C28E04E
:100AA000D1F80C8008F1080C23E0D1F80C8008F193
:100AB0000C0C1EE000BF00BF00BF00BF00BF00BFA6
:100AC000D1F80880B8F1000F02D14FF0040C0BE010
:100AD000D1F80880B8F1010F03D14FF0080C146170
:100AE00002E04FF0080C546103E04FF0000C00E00E
:100AF00000BF00BFFF2801D8904601E002F10408C2
:100B00004646FF2802D84FEA830803E0A3F108080D
:100B10004FEA88084746D6F800804FF00F0909FAD7
:100B200007F928EA09080CFA07F900E07AE048EA30
:100B30000908C6F80080D1F8048008F08058B8F1A0
:100B4000805F6FD100BFDFF8E481D8F8188048F0EB
:100B50000108DFF8D891C9F81880C846D8F818807D
:100B600008F00108CDF8008000BF00BF4FEAB93897
:100B70004FEA930958F829504FEA83784FEA1879D9
:100B80004FF00F0808FA09F825EA0805DFF8A081F8
:100B9000424502D14FF0000824E0DFF89881424539
:100BA00002D14FF001081DE0DFF88C81424502D1EF
:100BB0004FF0020816E0DFF88481424502D14FF081
:100BC00003080FE0DFF87881424502D14FF00408B6
:100BD00008E0DFF87081424502D14FF0050801E0DE
:100BE0004FF006084FEA83794FEA197908FA09F8B5
:100BF00048EA0505DFF850814FEA930948F8295083
:100C0000D1F8048008F48018B8F5801F0BD1DFF804
:100C10003C81D8F8008048EA0008DFF83091C9F834
:100C200000800AE075E0DFF82481D8F8008028EA27
:100C30000008DFF81891C9F80080D1F8048008F4A2
:100C40000018B8F5001F0ED1DFF8008108F1040884
:100C5000D8F8008048EA0008DFF8F09009F10409AC
:100C6000C9F800800DE0DFF8E48008F10408D8F846
:100C7000008028EA0008DFF8D49009F10409C9F8D7
:100C80000080D1F8048008F40038B8F5003F0ED198
:100C9000DFF8B880A8F10408D8F8008048EA000816
:100CA000DFF8A890A9F10409C9F800800DE0DFF889
:100CB0009C80A8F10408D8F8008028EA0008DFF832
:100CC0008C90A9F10409C9F80080D1F8048008F4D7
:100CD0008038B8F5803F0ED1DFF87080A8F10808A1
:100CE000D8F8008048EA0008DFF86090A9F1080908
:100CF000C9F800800DE0DFF85480A8F10808D8F8A2
:100D0000008028EA0008DFF84490A9F10809C9F832
:100D100000805B1CD1F8008028FA03F8B8F1000FBE
:100D20007FF47CAEBDE8F88700001110001002408F
:100D300000080140000C0140001001400014014077
:100D400000180140001C0140080001400804014057
:100D5000024693680B400BB1012000E00020704771
:100D60000AB1016101E00B040361704701480068AA
:100D7000704700000C000020034800680349097810
:100D800008440149086070470C000020140000204E
:100D900010B50848006840F01000064908600320BC
:100DA00000F0ACF8032000F007F800F02BF800206A
:100DB00010BD00000020024070B504460E480078C7
:100DC0004FF47A71B1FBF0F00C490968B1FBF0F512
:100DD000284600F0FDFB08B1012070BD102C07D2A1
:100DE00000222146501E00F04BF80548046001E047
:100DF0000120F2E70020F0E7140000201800002096
:100E00001000002008B500BF1348806940F00100C1
:100E1000114988610846806900F00100009000BF18
:100E200000BF00BF0846C06940F08050C861084656
:100E3000C06900F08050009000BF00BF052000F0A6
:100E40005DF800BF0549486820F0E06040F00070A0
:100E5000486000BF08BD00000010024000000140D3
:100E600001460846002809DB00F01F0301229A40D2
:100E700043099B0003F1E023C3F8002100BF704742
:100E80002DE9F05F80460D461646002702F096F9E0
:100E9000074639462A46334601F00700C0F1070AE3
:100EA000BAF1040F02D94FF0040A01E0C0F1070AB9
:100EB000D14600F1040ABAF1070F02D24FF0000A3E
:100EC00001E0A0F1030AD4464FF0010A0AFA09FA38
:100ED000AAF1010A0AEA020A0AFA0CFA4FF0010B17
:100EE0000BFA0CFBABF1010B0BEA030B4AEA0B0408
:100EF0002146404602F06AF9BDE8F09F00BF00F0CD
:100F00000702064B19684FF6FF031940044B0B43C9
:100F100043EA0221014B196000BF70470CED00E06D
:100F20000000FA0570B504460D460CB9012070BDED
:100F30005A48006800F00700A8420ED257480068DF
:100F400020F007002843554908600846006800F073
:100F50000700A84201D00120E9E7207800F0020054
:100F600002281DD1207800F00400042805D14C4847
:100F7000406840F4E0604A494860207800F008008A
:100F8000082805D14648406840F46050444948600C
:100F90004348406820F0F000A16808434049486099
:100FA000207800F0010078B36068012806D13C4841
:100FB000006800F4003090B90120B8E760680228AA
:100FC00006D13748006800F0007040B90120AEE754
:100FD0003348006800F0020008B90120A7E7304854
:100FE000406820F00300616808432D494860FFF71E
:100FF000BDFE064609E0FFF7B9FE801B41F28831CD
:10100000884202D9032092E707E02548406800F0B3
:101010000C006168B0EB810FEDD12048006800F052
:101020000700A8420ED91D48006820F00700284399
:101030001A4908600846006800F00700A84201D07D
:10104000012074E7207800F00400042807D1144838
:10105000406820F4E060E168084311494860207866
:1010600000F00800082808D10D48406820F46050BE
:10107000216940EAC1000A49486000F03FF8084988
:101080004968C1F30311074A515CC840064908602A
:1010900006480068FFF790FE002048E70020024065
:1010A00000100240763800081800002010000020D0
:1010B00001480068704700001800002000B5FFF7E5
:1010C000F7FF04494968C1F30221034A515CC84053
:1010D00000BD0000001002408638000800B5FFF790
:1010E000E7FF04494968C1F3C221034A515CC84083
:1010F00000BD0000001002408638000870B50021D5
:101100000022002400230020134D696801F00C0523
:10111000F5B1042D02D0082D19D101E00F4819E0D6
:101120000F4DC1F38346AB5D01F4803555B10A4DD7
:101130006D68C5F340450B4E725D084D5D43B5FBD0
:10114000F2F402E0084D03FB05F4204602E000BF84
:10115000024800BF00BF70BD0010024000127A00BC
:10116000643800087438000800093D00F8B50446EA
:101170000CB90120F8BD207800F00100002878D0DB
:10118000F848406800F00C0004280CD0F54840688E
:1011900000F00C00082811D1F248406800F48030BB
:1011A000B0F5803F0AD1EF48006800F40030002815
:1011B0005FD0606800285CD10120DBE700BF606879
:1011C000B0F5803F06D1E748006840F48030E5493B
:1011D000086028E0606858B9E248006820F4803070
:1011E000E04908600846006820F4802008601AE0A2
:1011F0006068B0F5A02F0BD1DA48006840F4802079
:10120000D84908600846006840F4803008600AE069
:10121000D448006820F48030D2490860084600684D
:1012200020F48020086000BF606888B1FFF79EFD51
:10123000054606E0FFF79AFD401B642801D903200C
:1012400098E7C848006800F400300028F2D010E0A9
:10125000FFF78CFD054606E0FFF788FD401B64287C
:1012600001D9032086E7BF48006800F40030002859
:10127000F2D1207800F00200022857D1B948406826
:1012800000F00C0050B1B748406800F00C0008288E
:1012900018D1B448406800F4803098B9B14800686B
:1012A00000F0020020B12069012801D0012061E78F
:1012B000AC48006820F0F800616940EAC100A94923
:1012C000086033E02069E8B10120A7490860FFF712
:1012D0004DFD054606E0FFF749FD401B022801D9F8
:1012E000032047E79F48006800F002000028F2D082
:1012F0009C48006820F0F800616940EAC100994903
:10130000086013E0002098490860FFF72FFD0546AC
:1013100006E0FFF72BFD401B022801D9032029E737
:101320009048006800F002000028F2D1207800F018
:10133000080008282DD1A069B8B101208B490860A8
:10134000FFF714FD054606E0FFF710FD401B0228DD
:1013500001D903200EE78348406A00F0020000280C
:10136000F2D0012001F0A0FB13E000207F490860CB
:10137000FFF7FCFC054606E0FFF7F8FC401B0228DF
:1013800001D90320F6E67748406A00F00200002801
:10139000F2D1207800F00400042873D100277148AE
:1013A000C06900F0805070B900BF6E48C06940F05D
:1013B00080506C49C8610846C06900F080500090B8
:1013C00000BF00BF01276A48006800F48070B0B910
:1013D0006748006840F4807065490860FFF7C6FC04
:1013E000054606E0FFF7C2FC401B642801D9032034
:1013F000C0E65F48006800F480700028F2D000BFAB
:10140000E068012806D15748006A40F001005549BC
:10141000086227E0E06858B95248006A20F00100ED
:10142000504908620846006A20F00400086219E08A
:10143000E06805280BD14B48006A40F00400494998
:1014400008620846006A40F0010008620AE0454868
:10145000006A20F00100434908620846006A20F053
:101460000400086200BFE068A0B1FFF77FFC0546FA
:1014700009E0FFF77BFC401B41F28831884202D92A
:10148000032077E622E03748006A00F002000028D7
:10149000EFD012E0FFF76AFC054608E0FFF766FCB4
:1014A000401B41F28831884201D9032062E62D4871
:1014B000006A00F002000028F0D1012F05D1294870
:1014C000C06920F080502749C86100BFE069C8B3F7
:1014D0002448406800F00C00082860D0E069022829
:1014E00048D1002020490866FFF740FC054606E089
:1014F000FFF73CFC401B022801D903203AE61948BB
:10150000006800F000700028F2D1206AB0F5803F3A
:1015100007D11448406820F40030A16808431149FD
:101520004860D4E9080108430E49496821F4741160
:1015300008430C49486001200B490866FFF716FC78
:10154000054607E03DE0FFF711FC401B022801D9EA
:1015500003200FE60348006800F000700028F2D076
:101560002FE000000010024000004242800442428E
:1015700000700040002014490866FFF7F7FB05469D
:1015800006E0FFF7F3FB401B022801D90320F1E539
:101590000E48006800F000700028F2D111E0E06908
:1015A000012800D1E6E50948466806F48031206A42
:1015B000814204D106F47011606A814201D0012099
:1015C000D8E50020D6E500000000424200100240AD
:1015D00070B504462546681EB0F1807F01D3012016
:1015E0000FE0681E4FF0E02148610F214FF0FF30FF
:1015F00001F0ECFD00204FF0E02188610720086138
:10160000002070BD7047704710B50346002200BF30
:1016100093F83C00012801D1022010BD012083F87D
:101620003C0000BF22F0FF00CC6840EA040222F434
:1016300040708C6840EA040222F480604C6840EA02
:10164000040222F400600C6840EA040222F4805094
:101650000C6940EA040222F400504C6940EA04029A
:1016600022F48040CC6940EA04021868426400BF5A
:10167000002083F83C0000BF00BFCEE730B5024633
:101680000B4600BF92F83C00012801D1022030BD7A
:10169000012082F83C0000BF022082F83D00106863
:1016A00044681068816824F0700418680443106866
:1016B0004460144D1068A84213D0134D1068A8421E
:1016C0000FD01068B0F1804F0BD0104D1068A842B9
:1016D00007D00F4D1068A84203D00E4D1068A842E5
:1016E00005D121F080015868014310688160012014
:1016F00082F83D0000BF002082F83C0000BF00BF20
:10170000C5E70000002C0140003401400004004007
:1017100000080040000C004010B504460CB9012040
:1017200010BD94F83D0028B9002084F83C00204604
:1017300000F026F8022084F83D00211D206801F009
:1017400009FA012084F8460000BF84F83E00012118
:101750003F200155402001554120015500BF00BFE9
:10176000012084F8420043200155442001554520C2
:10177000015500BF012084F83D000020D0E70000A3
:1017800038B504460D492068884215D100BF0C4881
:10179000C06940F020000A49C8610846C06900F0ED
:1017A0002000009000BF00BF012203213720FFF777
:1017B00067FB3720FFF754FB38BD000000140040E2
:1017C00000100240014691F83D00012801D001209F
:1017D0007047022081F83D000868C06840F00100B1
:1017E0000B68D860164B0868984213D0154B0868F0
:1017F00098420FD00868B0F1804F0BD0124B0868A8
:10180000984207D0114B0868984203D0104B0868E3
:1018100098420CD10868806800F00702062A0CD0B4
:101820000868006840F001000B68186005E008686F
:10183000006840F001000B6818600020C8E7000055
:10184000002C01400034014000040040000800402A
:10185000000C0040704710B5044620680069C0F3D2
:101860004000D8B12068C068C0F34000B0B16FF04C
:10187000020021680861012020772068806900F05B
:10188000030018B12046FFF7E5FF05E0204600F011
:10189000E7F8204600F0B2F90020207720680069C0
:1018A000C0F38000D8B12068C068C0F38000B0B138
:1018B0006FF00400216808610220207720688069A9
:1018C00000F4407018B12046FFF7C4FF05E0204641
:1018D00000F0C6F8204600F091F90020207720683B
:1018E0000069C0F3C000D8B12068C068C0F3C00070
:1018F000B0B16FF0080021680861042020772068EB
:10190000C06900F0030018B12046FFF7A3FF05E00F
:10191000204600F0A5F8204600F070F9002020775E
:1019200020680069C0F30010D8B12068C068C0F317
:101930000010B0B16FF01000216808610820207716
:101940002068C06900F4407018B12046FFF782FF9C
:1019500005E0204600F084F8204600F04FF9002012
:1019600020772068006900F0010058B12068C06845
:1019700000F0010030B16FF00100216808612046DD
:1019800000F0B8F920680069C0F3C01058B12068B1
:10199000C068C0F3C01030B16FF0800021680861EA
:1019A0002046FFF72FFE20680069C0F3801058B171
:1019B0002068C068C0F3801030B16FF0400021682B
:1019C0000861204600F0A2FA20680069C0F34010C8
:1019D00058B12068C068C0F3401030B16FF02000EB
:1019E000216808612046FFF70EFE10BD10B586B0D5
:1019F000044600200290039004900590144920684A
:101A0000884222D100BF1348806940F0400011494C
:101A100088610846806900F04000019000BF00BF67
:101A20004FF42060029002200390059002A90A481A
:101A3000FEF7EEFF00BF0949486820F0C00040F003
:101A4000E06040F0C000486000BF06B010BD00007C
:101A5000002C01400010024000180140000001402D
:101A600070472DE9F04104460D461646002700BF99
:101A700094F83C00012802D10220BDE8F081012049
:101A800084F83C0000BF36B1042E1BD0082E31D0A4
:101A90000C2E5ED145E02946206801F0BBF8206895
:101AA000806940F00800216888612068806920F022
:101AB00004002168886120688069296908432168D9
:101AC000886148E02946206801F0DCF820688069D8
:101AD00040F40060216888612068806920F480609B
:101AE0002168886120688069296940EA01202168AD
:101AF000886130E02946206801F002F92068C06959
:101B000040F008002168C8612068C06920F0040026
:101B10002168C8612068C069296908432168C861D3
:101B200019E02946206801F027F92068C06940F4CF
:101B300000602168C8612068C06920F48060216865
:101B4000C8612068C069296940EA01202168C8612C
:101B500001E0012700BF00BF00BF002084F83C0067
:101B600000BF384689E710B504460CB9012010BD06
:101B700094F83D0028B9002084F83C00204600F08D
:101B800025F8022084F83D00211D206800F0E2FFC6
:101B9000012084F8460000BF84F83E0001213F2068
:101BA0000155402001554120015500BF00BF0120D3
:101BB00084F8420043200155442001554520015539
:101BC00000BF012084F83D000020D0E708B5094A95
:101BD000016891420DD100BF0749896941F4006154
:101BE000054A91611146896901F40061009100BFC5
:101BF00000BF08BD002C01400010024070470000EB
:101C000070B504460D4615B994F83E000BE0042D5E
:101C100002D13F20005D06E0082D02D14020005D8A
:101C200001E04120005D012801D0012070BD1DB9F7
:101C3000022084F83E000EE0042D03D102213F2053
:101C4000015508E0082D03D102214020015502E092
:101C500002214120015501222946206800F0C8FFD9
:101C60001F492068884203D01E492068884201D15C
:101C7000012000E0002028B12068406C40F40040C2
:101C80002168486416492068884213D015492068A5
:101C900088420FD02068B0F1804F0BD012492068E5
:101CA000884207D011492068884203D01049206833
:101CB00088420CD12068806800F00706062E0CD000
:101CC0002068006840F001002168086005E0206895
:101CD000006840F00100216808600020A6E70000CD
:101CE000002C014000340140000400400008004086
:101CF000000C004070B504466E4884427ED16E48A8
:101D0000007810287AD06C480078032829D16B48D5
:101D1000007840426949087008460078012825D1BA
:101D200001F03CFC0546664801682846FEF740FA8B
:101D30006349086001F024FC0546624801682846B2
:101D4000FEF736FA5F4908605D48006801F05CFD07
:101D50005D4908605B48006801F026FD5B4908604A
:101D600004E000205649086056490860524800784F
:101D7000042847D156480078FEF792FB054655489F
:101D800001682846FEF714FA524908605248007864
:101D9000FEF786FB05464F4801682846FEF75DFAC8
:101DA0004C4908604D480078FEF77AFB05464C48E0
:101DB00001682846FEF7FCF949490860494800785F
:101DC000FEF76EFB0546464801682846FEF745FAD1
:101DD0004349086000203E4908703F490870414966
:101DE00008703E4908703B48006801F00DFD364917
:101DF00008603B48006801F0D7FC00E058E0334938
:101E0000086004E00020334908603549086036481E
:101E10000078142803DC3548007801280CD12A48C2
:101E200000683349096848632848006830490968F0
:101E3000886301202D4908702E48007828B90122B6
:101E4000D1032D48FEF78CFF05E000224FF400413E
:101E50002948FEF785FF2948007817490978884204
:101E60000CD01548007825490870012024490870D5
:101E700001231A46234800F0C5FA07E00020204954
:101E8000087001231A461F4800F0BCFA1E4800786B
:101E9000032804DA1C480078401C1B4908701248CB
:101EA0000078192804DA10480078401C0E490870A0
:101EB00070BD0000C000002002000020440000208F
:101EC00034000020380000201C00002020000020EA
:101ED000480000203C000020490000204B0000206A
:101EE000400000204A000020270000202800002099
:101EF0007800002024000020000C01404700002052
:101F00004600002050010020250000207047704747
:101F1000704700002DE9F84F0446206805682068E6
:101F2000C668206847694FF00009CA4605F00F09E6
:101F3000B9F1000F0AD105F0200038B106F02000F9
:101F400020B1204600F092FFBDE8F88FB9F1000FF4
:101F50007BD007F0010018B906F49070002874D007
:101F600005F0010030B106F4807018B1606C40F0EB
:101F70000100606405F0040030B107F0010018B101
:101F8000606C40F00200606405F0020030B107F0C0
:101F9000010018B1606C40F00400606405F00800B6
:101FA00048B106F0200010B907F0010018B1606CCC
:101FB00040F008006064606C002845D005F0200007
:101FC00028B106F0200010B1204600F04FFF206835
:101FD0004069C0F3801A606C00F0080010B9BAF1D3
:101FE000000F2CD0204600F0FBFE2068406900F076
:101FF000400000B300BF00BF2168143151E8001F4A
:1020000021F040002168143141E80002002AF3D198
:1020100000BFE06B50B17748E16B4863E06BFEF7BF
:1020200023FC88B1E06B416B88470DE02046FFF749
:102030006FFF09E009E02046FFF76AFF04E0204651
:10204000FFF766FF002060647EE7206B012877D1F0
:1020500005F01000002873D006F010000028FAD018
:1020600000BF002000902068006800902068406851
:10207000009000BF00BF2068406900F040000028C9
:102080005FD0E06B006840681FFA80F8B8F1000F7D
:1020900055D0A08D404552DDA4F82E80E06B8069BC
:1020A000202843D000BF00BF21680C3151E8001F39
:1020B00021F4807021680C3141E80002002AF3D13C
:1020C00000BF00BF00BF2168143151E8001F21F09C
:1020D00001002168143141E80002002AF3D100BF59
:1020E00000BF00BF2168143151E8001F21F04000FB
:1020F0002168143141E80002002AF3D100BF2020FA
:1021000084F842000020206300BF00BF21680C312A
:1021100051E8001F21F0100021680C3141E8000255
:10212000002AF3D100BFE06BFEF773FB022060636F
:10213000A08DE28D801A81B22046FFF7E8FE03E70A
:1021400042E0A08DE18D401A1FFA80F8E08DD0B3F7
:10215000B8F1000F37D000BF00BF21680C3151E843
:10216000001F21F4907021680C3141E80002002A20
:10217000F3D100BF00BF00BF2168143151E8001F38
:1021800021F001002168143141E80002002AF3D156
:1021900000BF202084F842000020206300BF00BF61
:1021A00021680C3151E8001F21F0100021680C312A
:1021B00041E80002002AF3D100BF022060634146DB
:1021C0002046FFF7A4FEBFE605F0800030B106F020
:1021D000800018B1204600F065FFB5E605F040002C
:1021E00030B106F0400018B1204600F02FFEABE6FB
:1021F00000BFA9E6CD2D000810B504460CB901209A
:1022000010BDA06900B100E000BF94F8410028B9FA
:10221000002084F84000204600F02AF8242084F8AA
:1022200041002068C06820F400502168C860204642
:1022300000F09AFE2068006920F49040216808614F
:102240002068406920F02A00216848612068C06841
:1022500040F400502168C86000206064202084F8A9
:10226000410084F842000020606300BFC8E700001E
:1022700010B586B0044600200290039004900590AB
:102280003B492068884237D100BF3A48806940F412
:102290008040384988610846806900F48040019098
:1022A00000BF00BF00BF0846806940F0040088619D
:1022B0000846806900F00400019000BF00BF481587
:1022C0000290022003900320059002A92A48FEF7FD
:1022D0009FFB4FF48060029000200390049002A9BD
:1022E0002548FEF795FB022211462520FEF7C8FD82
:1022F0002520FEF7B5FD39E020492068884235D118
:1023000000BF1C48C06940F400301A49C861084643
:10231000C06900F40030019000BF00BF00BF084654
:10232000806940F0040088610846806900F004007C
:10233000019000BF00BF0420029002200390032000
:10234000059002A90C48FEF763FB082002900020CC
:102350000390049002A90848FEF75AFB0022114698
:102360002620FEF78DFD2620FEF77AFD06B010BD73
:1023700000380140001002400008014000440040C5
:1023800070B504460D46164694F8420020280BD13D
:1023900005B10EB9012070BD0020206332462946E8
:1023A000204600F05FFEF6E70220F4E710B5044691
:1023B0000E49206888420AD10D4909783039C8B2DF
:1023C000FEF79CF901220A490A48FFF7D9FF0A499A
:1023D0002068884208D10948007800F045FA0122B7
:1023E00006490748FFF7CCFF10BD00000038014048
:1023F00000000020080100200044004001000020EF
:10240000500100202DE9F84F04460E461746994624
:102410004FF0000A94F8410020284AD106B117B9BC
:102420000120BDE8F88F00206064212084F841007D
:10243000FEF79CFC8246A784E784A068B0F5805F25
:1024400004D1206910B90025B04602E035464FF0AE
:1024500000081BE05346002280212046CDF8009062
:1024600000F050FE08B10320DBE745B9B8F80000E2
:10247000C0F308002168486008F1020803E02878EA
:10248000216848606D1CE08C401EE084E08C0028D0
:10249000E0D15346002240212046CDF8009000F0C4
:1024A00031FE08B10320BCE7202084F84100002061
:1024B000B7E70220B5E7704700BFFEE710B54FF45D
:1024C00000612448FEF744FCC006000E2249087053
:1024D0004FF480511F48FEF73BFC1F49097841EA41
:1024E00080001D4908704FF400511A48FEF730FC77
:1024F0001949097841EA4000174908704FF48041B2
:102500001448FEF725FC144909780843124908705D
:10251000084600780F281AD0084600780F2814D0F3
:1025200008460078072806D00B2806D00D2806D0CC
:102530000E2808D105E0012010BD0220FCE7032091
:10254000FAE70420F8E70020F6E70020F4E700208F
:10255000F2E70000001C01407600002070B5002565
:102560000024002210212048FEF7FAFBFFF7A6FF07
:10257000041E00D0E5B2012210211B48FEF7F0FB3B
:10258000002220211848FEF7EBFBFFF797FF041EFF
:1025900001D0201DC5B2012220211348FEF7E0FB27
:1025A000002240211048FEF7DBFBFFF787FF041EE7
:1025B00002D004F10800C5B2012240210A48FEF70A
:1025C000CFFB002280210848FEF7CAFBFFF776FF09
:1025D000041E02D004F10C00C5B201228021024881
:1025E000FEF7BEFB284670BD0008014000B585B06F
:1025F0000020019002900390049000BF344880694D
:1026000040F00400324988610846806900F0040007
:10261000009000BF00BF00BF0846806940F0800006
:1026200088610846806900F08000009000BF00BF0C
:1026300000BF0846806940F0400088610846806914
:1026400000F04000009000BF00BF00BF0846806956
:1026500040F0080088610846806900F0080000909A
:1026600000BF00BF0022F0211A48FEF779FB0122CB
:10267000D1031948FEF774FB00224FF4807116480D
:10268000FEF76EFBF02001900120029000200390E5
:102690000220049001A90F48FEF7BAF94FF4F04068
:1026A0000190002002900120039001A90B48FEF741
:1026B000AFF94FF4014001900120029000200390F7
:1026C0000220049001A90448FEF7A2F905B000BD5C
:1026D0000010024000080140000C0140001C0140B5
:1026E00000B591B000200F9010901C2108A8FDF7B4
:1026F00054FD20216846FDF750FD28482849086010
:102700004720486000212648816044F62061C1606E
:1027100000210161416180218161FFF724FA08B144
:10272000FEF774F800200F9010900FA91C48FEF7D8
:10273000A5FF08B1FEF76AF86020089040F2DC506F
:10274000099000200A900B900C900D900E900022A2
:1027500008A91348FFF785F908B1FEF757F80422D6
:1027600008A90F48FFF77DF908B1FEF74FF80020E0
:10277000009001900290039004904FF40050059057
:102780000020079069460648FEF73EFF08B1FEF7B5
:102790003DF80348FFF72AF911B000BD002C0140B5
:1027A000780000201CB50020009001900E480F49D1
:1027B000086041F61F40486000210C488160C72135
:1027C000C16080218161FEF7A7FF08B1FEF71EF806
:1027D00000200090019069460448FEF74FFF08B1C1
:1027E000FEF714F81CBD000000140040C0000020DB
:1027F00010B50B480B4908604FF4E13048600021E8
:1028000008488160C16001610C2141610021816142
:10281000C161FFF7F1FC08B1FDF7F8FF10BD000042
:10282000003801400801002010B50B480B49086032
:102830004FF4E1304860002108488160C1600161C7
:102840000C21416100218161C161FFF7D5FC08B114
:10285000FDF7DCFF10BD00000044004050010020E7
:1028600000BFFEE700BFFEE72DE9F04104465E48E9
:10287000007868B92C2C0BD101205B4908705B48AB
:1028800001780078401C594A107059484454A8E017
:102890005548007801280DD1122C0BD10220524945
:1028A0000870524801780078401C504A1070504817
:1028B000445496E04C480078022854D14B480178A3
:1028C0000078401C494A107049484454104600782A
:1028D0000A2801DA5B2CDAD1032043490870434807
:1028E0000078001F4249085CB4287ADA3F48007833
:1028F000801E085CB42874DA3C490978491F3C4AB8
:10290000515C012900D101E04FF0FF310846FDF78D
:10291000BEFD064635490978091F354A505CFDF76A
:10292000BFFD07463146FDF79BFC324908602F4941
:102930000978C91E2E4A515C012900D101E04FF0EF
:10294000FF310846FDF7A3FD064628490978891E90
:10295000274A505CFDF7A4FD07463146FDF780FC91
:10296000254908603DE02048007803282BD11F4806
:102970000078401E1E49085C5B2805D100201B49D9
:102980000870194908700DE00020174908701749B0
:102990000870002504E0002015494855681CC5B2A0
:1029A0000A2DF8DB10480078D8B92C2C19D1012059
:1029B0000D4908700D4801780078401C0B4A1070D2
:1029C0000B4844540DE0002007490870074908707F
:1029D000002504E0002006494855681CC5B20A2DB0
:1029E000F8DBBDE8F08100007500002074000020D5
:1029F00044020020300000202C000020002021494B
:102A0000086048608860C860C8611F48086100208D
:102A1000486188611D481E49086000204860886040
:102A2000C860C8614FF0804008614FF07C50486139
:102A3000002088611749086048608860C860C861E4
:102A400011480861002048618861104812490860F7
:102A5000002048608860C860C8614FF0804008610D
:102A60004FF07C504861002088610C490860486044
:102A70008860C860C8610A480861002048618861B0
:102A800070470000E40100204260653B0000704296
:102A9000A401002004020020C40100202402002020
:102AA000000070417047000008B508490968C9086E
:102AB0004FF47A72B1FBF2F14143009100BF00BFC5
:102AC00000994A1E00920029F9D108BD1800002083
:102AD000704710B5FEF750F910BD00B58FB0282132
:102AE00005A8FDF75AFB14216846FDF756FB0120A7
:102AF0000590000406900020079001200990022014
:102B00000C90C1030D914FF4E0110E9105A8FEF752
:102B10002DFB08B1FDF77AFE0F20009002200190F6
:102B2000002002904FF48060039000200490022166
:102B30006846FEF7F7F908B1FDF768FE0FB000BD73
:102B40007047000010B50248FEF785FE10BD00007A
:102B5000C000002010B50268204B98420ED0204BD8
:102B600098420BD0B0F1804F08D01E4B984205D050
:102B70001D4B984202D01D4B984203D122F07002A7
:102B80004B681A43154B98420ED0154B98420BD008
:102B9000B0F1804F08D0134B984205D0124B9842A9
:102BA00002D0124B984203D122F44072CB681A43F0
:102BB00022F080034C6943EA040202608B68C3621E
:102BC0000B688362054B984202D0054B984201D1B5
:102BD0000B6903630123436110BD0000002C014019
:102BE000003401400004004000080040000C004098
:102BF00030B501F01F05012404FA05F3046A9C4373
:102C00000462046A01F01F0502FA05F52C43046210
:102C100030BD000030B5026A056A25F00105056285
:102C20004368846924F0700424F003040D682C4385
:102C300022F002028D682A43104DA84200D103E021
:102C40000F4DA84206D100BF22F00802CD682A43EA
:102C500022F00402094DA84202D0094DA84207D132
:102C600023F4807323F400734D692B438D692B4348
:102C7000436084614D684563026230BD002C0140B1
:102C80000034014030B5026A056A25F0100505627E
:102C90004368846924F4E04424F440740D6844EAF1
:102CA000052422F020028D6842EA0512124DA84246
:102CB00000D103E0114DA84207D100BF22F08002ED
:102CC000CD6842EA051222F040020B4DA84202D024
:102CD0000A4DA84209D123F4806323F400634D69AF
:102CE00043EA85038D6943EA8503436084614D6847
:102CF0008563026230BD0000002C014000340140B9
:102D000030B5026A056A25F4807505624368C469B6
:102D100024F0700424F003040D682C4322F40072A4
:102D20008D6842EA0522124DA84200D103E0114D00
:102D3000A84207D100BF22F40062CD6842EA052212
:102D400022F480620A4DA84202D00A4DA84209D15D
:102D500023F4805323F400534D6943EA05138D692E
:102D600043EA05134360C4614D68C563026230BD28
:102D7000002C01400034014030B5036A056A25F497
:102D8000805505624468C26922F4E04222F4407230
:102D90000D6842EA052223F400538D6843EA0533A7
:102DA000084DA84202D0084DA84204D124F4804422
:102DB0004D6944EA85144460C2614D68056403624C
:102DC00030BD0000002C01400034014070B50546C4
:102DD0006C6A0020E085E0842046FFF799F870BD1A
:102DE00000BF00BF02680C3252E8002F22F490713D
:102DF00002680C3242E80013002BF3D100BF00BF81
:102E000000BF0268143252E8002F22F0010102686C
:102E1000143242E80013002BF3D100BF016B0129EB
:102E20000ED100BF00BF02680C3252E8002F22F022
:102E3000100102680C3242E80013002BF3D100BFEE
:102E4000202180F8421000210163704710B504462C
:102E50002068C06820F040002168C860202084F805
:102E600041002046FFF727FB002010BDF8B50446BF
:102E700094F84200222875D1A068B0F5805F0CD18B
:102E8000206950B90025A66A20684068C0F3080090
:102E90003080A06A801CA06215E0A56A0026A068A8
:102EA000B0F5805F03D0A06828B9206918B9206800
:102EB0004068287004E02068406800F07F002870B7
:102EC000A06A401CA062E08D401E80B2E085002810
:102ED00046D12068C06820F020002168C8602068C2
:102EE000C06820F480702168C8602068406920F0C4
:102EF000010021684861202084F8420000206063BE
:102F0000206B012826D10020206300BF00BF21686C
:102F10000C3151E8001F21F0100021680C3141E80C
:102F20000002002AF3D100BF2068006800F0100002
:102F300010280AD100BF002000902068006800908F
:102F400020684068009000BF00BFA18D2046FEF7BA
:102F5000DEFF02E02046FFF729FA0020F8BD01E07D
:102F60000020FBE70220F9E770B5044621680969F3
:102F700021F44051E2681143226811612269A1687D
:102F80001143626941EA02052168C96841F20C6295
:102F9000914329432268D1602168496921F4407135
:102FA000A2691143226851612D4A2168914202D1E0
:102FB000FEF794F801E0FEF781F800EBC00101EBA9
:102FC000001162689200B1FBF2F100EBC00202EB6B
:102FD000001263689B00B2FBF3F26423B2FBF3F2CE
:102FE00002EBC20303EB0212A1EB8201322202EBDD
:102FF00001116422B1FBF2F101F0F00100EBC0021B
:1030000002EB001263689B00B2FBF3F26423B2FB95
:10301000F3F201EB021200EBC00101EB0011636857
:103020009B00B1FBF3F100EBC00303EB00136668F8
:10303000B600B3FBF6F36426B3FBF6F303EBC3066B
:1030400006EB0313A1EB8301322303EB011164238D
:10305000B1FBF3F101F00F0111442268916070BDE2
:103060000038014010B5034699629A85DA85002040
:103070005864222083F84200186928B11868C06893
:1030800040F480701C68E0601868406940F00100FE
:103090001C6860611868C06840F020001C68E0602F
:1030A000002010BD014691F84100212828D18868F0
:1030B000B0F5805F0BD1086948B90A6A1088C0F37F
:1030C00008000B685860086A801C086205E00B6AFB
:1030D000581C086218780B685860C88C401E80B273
:1030E000C88458B90868C06820F080000B68D860B0
:1030F0000868C06840F040000B68D8600020704746
:103100000220FCE72DE9F04104460D46174698469B
:10311000069E34E0701C88B32EB1FDF727FEA0EBAD
:103120000800B0422BD900BF00BF21680C3151E824
:10313000001F21F4D07021680C3141E80002002A00
:10314000F3D100BF00BF00BF2168143151E8001F58
:1031500021F001002168143141E80002002AF3D176
:1031600000BF202084F8410084F8420000BF002006
:1031700084F8400000BF0320BDE8F081FFE720682D
:1031800000682840A84201D1012000E00020B84298
:10319000C0D00020F0E7000010B50248FEF7BAFEEC
:1031A00010BD00000801002010B50248FEF7B2FE75
:1031B00010BD00005001002000BFFEE7024800687B
:1031C000C0F30220704700000CED00E010B50028AD
:1031D00004DB0A07130E054A135406E00A07140E0F
:1031E000034A00F00F031B1FD45410BD00E400E09D
:1031F00018ED00E002E008C8121F08C1002AFAD149
:1032000070477047002001E001C1121F002AFBD166
:10321000704700002DE9F047BF480078032815D11A
:10322000BE48007890B9BE4800F0EEFABD4908608B
:10323000BD4800F0B9FABD4908600020B6490870E1
:10324000B6480078401CB549087062E1B248007881
:10325000032858D1B1480078012854D1B448B54961
:103260000860B548B5490860B548007814283BDACD
:10327000B3480078FDF714F98246B048016850461B
:10328000FCF7EEFF8146FDF729F90746AD4AAE4B44
:10329000FDF756F80546FDF734F9044600F0B4FA98
:1032A000A0490860A6480078FDF7FAF88246A148D0
:1032B00001685046FCF7D4FF8146FDF70FF9074639
:1032C000A04AA24BFDF73CF80546FDF71AF9044663
:1032D00000F06AFA9549086000208F490870984804
:1032E0000078401C96490870954800781428ACD1A5
:1032F0000020934908708849087088480078401C6D
:103300008649087005E18448007803284AD183483B
:103310000078022846D18E48864908608D48874942
:1033200008608748007814282DDA85480078FDF772
:10333000B7F80646814801683046FCF791FF05461C
:103340008549FCF735FF044600F05EFA75490860D0
:103350007B480078FDF7A4F80646764801683046B9
:10336000FCF77EFF05467D49FCF722FF044600F08E
:103370001BFA6E49086000206749087070480078A1
:10338000401C6F4908706E4800781428BAD100209C
:103390006B4908706049087060480078401C5F49BC
:1033A0000870B6E05C480078032859D15B48007883
:1033B000032855D16A485F4908606A485F49086038
:1033C0005F48007814283CDA5D480078FDF768F81B
:1033D00082465A4801685046FCF742FF8146FDF795
:1033E0007DF807464FF033325F4BFCF7A9FF0546E7
:1033F000FDF787F8044600F007FA4A49086050488C
:103400000078FDF74DF882464A4801685046FCF7BF
:1034100027FF8146FDF762F807460022534BFCF771
:103420008FFF0546FDF76DF8044600F0BDF93F49F2
:10343000086000203849087041480078401C404925
:1034400008703F480078142863D100203C49087078
:103450003149087031480078401C3049087058E004
:103460002D480078032854D12C480078042850D1E6
:103470003F48304908603748304908603048007894
:1034800014283BDA2E480078FDF70AF882462B48CC
:1034900001685046FCF7E4FE8146FDF71FF8074639
:1034A000344A354BFCF74CFF0546FDF72AF8044635
:1034B00000F0AAF91B49086021480078FCF7F0FFEA
:1034C00082461C4801685046FCF7CAFE8146FDF75B
:1034D00005F807461B4A294BFCF732FF0546FDF766
:1034E00010F8044600F060F91049086000200A490D
:1034F000087013480078401C114908701048007883
:10350000142806D100200E490870034908700349A9
:103510000870BDE8F0870000250000204C00002066
:103520006666C6401C000020666656C1200000206A
:103530008FC2F5BC5000002014AEA7BF540000207D
:103540004D000020CDCCCCCCCCCC1840CCCC2AC06B
:103550000000B03F0AD723BC0000A0C1000060C13A
:10356000EC51383D713DAA3F333334C000002B404D
:1035700085EBB1BF9A99999999991940CCCC2C4077
:1035800010B5002403480168034800F015F804460C
:10359000204610BD300000200402002010B5002499
:1035A00003480168034800F007F80446204610BDB0
:1035B0002C000020E40100202DE9F04704460D46D0
:1035C000A5604FF07E51A068FCF7B8FF07D24FF01E
:1035D0007E51A068FCF7BCFF01D20020A060A1686A
:1035E000E069FCF7E5FDE0611749E069FCF7B0FF31
:1035F00002D81548E06106E01449E069FCF79EFF37
:1036000001D21248E061D4E90201FCF723FE8046B2
:10361000A169FCF725FE0646E1696069FCF720FE1A
:103620008046A1682069FCF71BFE81464146FCF7F5
:10363000BFFD07463146FCF7BBFD6060A068E06057
:103640006068BDE8F087000000007A4400007AC49A
:10365000FDF79EFBFFF741FAFEF7C8FFFFF7C8F83A
:10366000FFF7E2F8FFF73CF8FFF79CF801223E492C
:103670003E48FEF785FE01223D493E48FEF780FEAA
:1036800000213D48FEF7BCFA04213B48FEF7B8FA9A
:103690003A48FEF797F8FFF7B1F963E03848007849
:1036A000102823D03648007850B9364800F0ACF8DE
:1036B00035490860354800F077F83549086015E06D
:1036C0002F48007801280BD14FF0414000F09CF8C2
:1036D0002D490860002000F067F82D49086005E0DA
:1036E00027480078022801D1FFF794FDFEF736FF46
:1036F0002849087022480078042829D10846007813
:10370000052825DB08460078082821DC08460078D3
:10371000052803D101202049087016E01D480078D3
:10372000062803D101201D4908700EE019480078D1
:10373000072803D101201A49087006E015480078CF
:10374000082802D101201749087004201149087087
:103750001048007810B90A48007801E00D48007858
:10376000074908709AE700000000002008010020C7
:10377000010000205001002078000020C00000203F
:1037800002000020CDCCCC401C00002066666641C3
:1037900020000020080000204800002049000020F0
:1037A0004B0000204A0000202DE9F0410446114959
:1037B0002046FCF7CDFE01D20E4C05E00E49204616
:1037C000FCF7BCFE00D20C4C002584F000480B49ED
:1037D0004046FCF745FD07460949FCF773FD0646E0
:1037E0000849FCF7E5FC05462846FCF75EFEBDE807
:1037F000F081000000008841000080C10000FA4410
:10380000000034430080BB442DE9F04104461049D8
:103810002046FCF79DFE01D20D4C05E00D492046E7
:10382000FCF78CFE00D20B4C00250B492046FCF720
:1038300017FD07460949FCF745FD06460849FCF710
:10384000B7FC05462846FCF730FEBDE8F0810000D5
:10385000000010410000A8C10000FA4400003443F9
:103860000080BB4402030405060708090A0B0C0D7F
:103870000E0F101001020000000000000000010205
:103880000304060708090000000001020304000009
:10389000B03800080000002078000000F431000873
:1038A0002839000878000020D805000004320008FC
:1038B0000000000000000000000000000000000008
:1038C00010000000010000000024F400DC050000EE
:1038D000DC05000001000000000000000000000006
:1038E00000000000000000000000000000000000D8
:1038F00000000000010000000000000000000000C7
:1039000000000000000000000000000000000000B7
:1039100000000000000000000000000000000000A7
:08392000000000000000FF00A0
:0400000508000131BD
:00000001FF
