:020000040800F2
:10000000D804002049010008D3120008CF110008CD
:10001000D112000857020008011800080000000073
:100020000000000000000000000000006916000849
:100030005902000800000000CD1400086B160008EB
:100040006301000863010008630100086301000800
:1000500063010008630100086301000863010008F0
:1000600063010008630100086301000863010008E0
:1000700063010008630100086301000863010008D0
:1000800063010008630100086301000863010008C0
:1000900063010008630100086301000863010008B0
:1000A00063010008630100086301000863010008A0
:1000B0006301000863010008630100086301000890
:1000C0006301000863010008630100086301000880
:1000D0006301000863010008630100086301000870
:1000E0006301000863010008630100086301000860
:1000F0006301000863010008630100086301000850
:10010000630100086301000863010008630100083F
:10011000630100086301000863010008630100082F
:10012000630100086301000863010008630100081F
:10013000DFF810D000F06EF8004800474D1B0008B3
:10014000AFF30080D80400200648804706480047E7
:10015000FEE7FEE7FEE7FEE7FEE7FEE7FEE7FEE777
:10016000FEE7FEE7CD16000831010008202A04DB77
:10017000203A21FA02F00021704721FA02F3D04020
:10018000C2F120029140084319467047D2B201E003
:1001900000F8012B491EFBD270470022F6E710B58C
:1001A00013460A4604461946FFF7F0FF204610BDE5
:1001B0002DE9F05F0546002092469B46884606469C
:1001C000814640241BE02846414647462246FFF729
:1001D000CDFF53465A46C01A914110D311461846D6
:1001E000224600F029F82D1A67EB01084F462246F7
:1001F0000120002100F020F817EB00094E41201EDD
:10020000A4F10104DFDC484631462A464346BDE8F6
:10021000F09F0000064C074D06E0E06840F0010347
:1002200094E8070098471034AC42F6D3FFF784FFF8
:10023000041C0008241C0008202A04DB203A00FAD1
:1002400002F1002070479140C2F1200320FA03F32D
:10025000194390407047FEE7704772B6FEE7000012
:100260002DE9F84FDFF8C8910024A9F1040B2346CB
:100270000F2709F1040AABF1040ED1E00125A540D6
:1002800006EA0502AA4276D1DFF8A8C14E68A6EBBD
:100290000C0866452BD00DDC032E34D005DC36B3BC
:1002A000012E19D0022E2FD11BE0112E16D0122EA6
:1002B0002AD119E0B8F5881F19D006DCB8F5803FBF
:1002C00015D0B8F5801F1FD111E0B8F5001F0ED072
:1002D000B8F5041F18D10AE0CB6815E0CB681B1DE8
:1002E00012E0CB6808330FE0CB680C330CE08B686E
:1002F0002BB1012B4FF0080303D0456104E0042328
:1003000002E0056100E00023FF2A01D8064601E073
:1003100000F104064FEA840501D9A5F12005D6F8BD
:10032000008007FA05FC28EA0C0803FA05F548EAFC
:100330000508C6F800804D68ED0070D53E4DAE69E9
:1003400046F00106AE61AD6924F0030605F0010533
:1003500000953A4D06EB050CDCF80850A607360F61
:1003600007FA06F825EA0805DFF8D480404503D1EE
:100370004FF0000825E052E0DFF8C880404502D188
:100380004FF001081DE0DFF8C080404502D14FF07A
:10039000020816E0DFF8B480404502D14FF00308B0
:1003A0000FE0DFF8AC80404502D14FF0040808E0D0
:1003B000DFF8A080404502D14FF0050801E04FF082
:1003C000060808FA06F848EA0508CCF808804D68DF
:1003D000D9F80060ED024D4601D5164300E0964382
:1003E0002E604D68DAF80060AD02554601D516431F
:1003F00000E096432E604D68DBF80060AD035D467B
:1004000001D5164300E096432E604D68DEF800608B
:10041000ED03754601D5164300E096432E60641C3B
:100420000A681646E2407FF429AFBDE8F88F000065
:1004300008040140000011100010024000000140BB
:1004400000080140000C0140001001400014014070
:1004500000180140001C01400AB101617047090405
:10046000FBE700000148806870470000040000209E
:1004700002488168027811448160704704000020BE
:10048000074810B5016841F010010160032000F039
:1004900067F80F2000F006F800F024F8002010BDE7
:1004A0000020024070B50D4D04464FF47A71287853
:1004B000B1FBF0F00A490968B1FBF0F000F0BBFDB8
:1004C00048B9102C07D200222146501E00F028F80F
:1004D00000206C6070BD012070BD00000400002091
:1004E000100000200C4808B5816941F001018161CC
:1004F000816901F001010091C16941F08051C16140
:10050000C06900F0805000900448416821F0E0612B
:1005100041F00071416008BD001002400000014040
:10052000F0B40E4B1B680C46C3F30223C3F107055E
:10053000042D00D90425191D072901D2002300E04C
:10054000DB1E012606FA05F1491E214099409E4016
:10055000761E16403143F0BC01F064B90CED00E0AA
:10056000064900F0070208684FF6FF03184040EA0A
:100570000220034A10430860704700000CED00E0C1
:100580000000FA052DE9F0470F46050061D0434E03
:10059000306800F00700B84209D2306820F0070048
:1005A00038433060306800F00700B84251D1286805
:1005B0003B4C810712D5400703D5606840F4E060EA
:1005C00060602878000703D5606840F46050606080
:1005D0006068A96820F0F000084360602878C007D0
:1005E00028D06868012810D02168022810D0890717
:1005F00000292EDA616821F0030101436160FFF7F1
:1006000031FF804641F288390DE021688903EFE728
:100610008901EDE7FFF726FFA0EB0801494502D964
:100620000320BDE8F0876068696800F00C00B0EB5B
:10063000810FEFD1306800F00700B8420BD9306865
:1006400020F0070038433060306800F00700B842FF
:1006500001D00120E5E72878400705D56068E96802
:1006600020F4E060084360602878000706D56068E1
:10067000296920F4605040EAC100606000F038F859
:100680006168084AC1F30311515CC840064908601B
:1006900006480068FFF706FF0020C2E7002002407E
:1006A00000100240E61B0008100000200800002097
:1006B0000448054900684968044AC1F30221515CB5
:1006C000C84070471000002000100240F61B0008D0
:1006D0000448054900684968044AC1F3C221515CD5
:1006E000C84070471000002000100240F61B0008B0
:1006F0000E4A51680E4801F00C03042B11D0082B50
:100700000FD10C48C1F38343C903C05C0AD55168BB
:10071000084AC1F34041921E515C054A5043B0FB68
:10072000F1F0704704494843704700000010024050
:1007300000127A00D61B000800093D002DE9F84F91
:10074000040070D02078C04DC00749D06868C0F35D
:100750008100012807D06868C0F38100022809D110
:100760006868C00306D52868800339D5606800280A
:10077000E7D035E06068B0F5803F0BD010B1B0F540
:10078000A02F11D0286820F480302860286820F439
:10079000802002E0286840F480302860606890B1D2
:1007A000FFF760FE06460AE0286840F480202860D3
:1007B000F0E700BFFFF756FE801B642873D8286857
:1007C0008003F7D50CE0FFF74DFE064605E000BFBD
:1007D000FFF748FE801B6428F0D828688003F7D410
:1007E00020789A4E80074FF001094FF0000839D564
:1007F000686810F00C0F07D06868C0F38100022809
:1008000009D16868C00306D42868800714D5206918
:10081000012808D110E02069B0B1C6F80090FFF7B8
:1008200021FE074605E00AE1FFF71CFEC01B022877
:10083000C4D828688007F7D52868616920F0F800D7
:1008400040EAC10028600DE0C6F80080FFF70AFE0C
:10085000074604E0FFF706FEC01B022823D82868DD
:100860008007F7D4207800072CD57948A169D9B141
:10087000C0F80090FFF7F6FD074604E0FFF7F2FD31
:10088000C01B02280FD8686A8007F7D571484FF45B
:10089000FA510068B0FBF1F0009000BF0098411ED3
:1008A0000091FAD20EE080E0C0F80080FFF7DAFD98
:1008B000074604E0FFF7D6FDC01B022875D8686A1A
:1008C0008007F7D42078400760D5E8690027C0008A
:1008D00008D4E86940F08050E861E869012700F039
:1008E000805000905C480168C90513D401688346B4
:1008F00041F480710160FFF7B5FD824606E000BF5C
:10090000FFF7B0FDA0EB0A0064284ED8DBF800002A
:10091000C005F5D5E06801280AD008B1052813D034
:10092000286A20F001002862286A20F0040002E012
:10093000286A40F001002862E06841F2883B98B1E3
:10094000FFF790FD82460BE0286A40F00400286221
:10095000EEE700BFFFF786FDA0EB0A0159455AD824
:10096000286A8007F6D50CE0FFF77CFD824605E09B
:10097000FFF778FDA0EB0A0159454CD8286A80079B
:10098000F6D41FB1E86920F08050E861E06988B3CF
:100990006968C1F38101022944D00228C6F8608049
:1009A00004D0FFF75FFD044638E034E0FFF75AFD5E
:1009B000074604E0FFF756FDC01B02282BD8286825
:1009C0008001F7D4206AB0F5803F05D16868A1683E
:1009D00020F4003008436860D4E9080108436968DE
:1009E00021F4741108436860C6F86090FFF73AFD7F
:1009F000044606E025E000BFFFF734FD001B022897
:100A000009D828688001F7D51BE000BFFFF72AFD51
:100A1000001B022802D90320BDE8F88F2868800156
:100A2000F4D40EE00128F7D06868226A00F480311F
:100A3000914204D1616A00F47010884201D0012013
:100A4000EAE70020E8E70000001002400000424210
:100A500080044242100000200070004070B5040085
:100A600009D0606A002540B125616561A56294F8EE
:100A7000510040B10CE0012070BD6068B0F5827F8C
:100A8000F4D0E561F2E784F85050204600F040F8D9
:100A9000022084F851002068016821F040010160C3
:100AA000A088218900F4827001F404410843A189DF
:100AB00001F400610843217C01F002010843217D1B
:100AC00001F001010843218B01F400710843217FEB
:100AD00001F03801084394F8201001F08001084328
:100AE000218D01F40051084321680860A0690421A8
:100AF00001EA1040216848602068C16921F4006162
:100B0000C1616565012084F85100002070BD0000BE
:100B100030B585B0002400940194029403940068D9
:100B20001549884225D11548C16941F48041C16108
:100B3000C16901F480410491816941F0080181613A
:100B400080690F4D00F0080004904FF420400090A1
:100B5000022001900320039069462846FFF780FB9E
:100B60004FF48040CDE90004694628460294FFF71F
:100B700077FB05B030BD0000003800400010024097
:100B8000000C01402DE9F84F044690F851009846BA
:100B900016460F460025012801D0022598E060681E
:100BA0004FF0040BB0F5827F01D1A068F8B194F842
:100BB0005000012826D04FF0010984F85090FFF72B
:100BC00051FC8246002F7FD0002E7DD084F851B09A
:100BD00000206065A763A687E6872063A086E0867D
:100BE00020646064A068B0F5004F0DD016E084F872
:100BF00051B013460A462046CDF8008000F024F993
:100C0000BDE8F88F0220FBE72068016821F0400171
:100C100001602068016821F480410160206801685A
:100C2000490603D4016841F040010160E068D8B191
:100C30003BE020688168C90709D0007BA16B087080
:100C4000A06B401CA063E08F401EE0870CE0FFF724
:100C500009FCA0EB0A01414503D3B8F1FF3F03D0E3
:100C600006E0B8F1000F03D0E08F0028E1D11FE0CB
:100C700003252BE020688168C90709D0C068A16BF3
:100C80000880A06B801CA063E08F401EE0870CE012
:100C9000FFF7E8FBA0EB0A01414503D3B8F1FF3FA2
:100CA00003D0E5E7B8F1000FE2D0E08F0028E1D1F2
:100CB00052464146204600F03DFC08B120206065C8
:100CC000606D00E000E008B1012501E084F851907A
:100CD000002084F85000284692E72DE9F84F04469A
:100CE00090F850000026984615468A4601280CD0F8
:100CF000012784F85070FFF7B5FB814694F8510046
:100D0000B346012804D002269AE00220BDE8F88FFD
:100D1000BAF1000F6FD0002D6DD0032084F8510080
:100D2000C4F854B0C4F830A0A586E586C4F838B03D
:100D3000A4F83CB0A4F83EB0C4F844B0C4F840B045
:100D4000A068B0F5004F09D12068016821F040018A
:100D500001602068016841F48041016020680168F9
:100D6000490603D4016841F040010160E068B0F534
:100D7000006F606803D058B3012D29D049E008B155
:100D8000012D1FD1206B21680088C86006E0206813
:100D90008168890709D5216B0988C160206B801C97
:100DA0002063E08E401EE0860CE0FFF75BFBA0EBCB
:100DB0000901414503D3B8F1FF3F03D006E0B8F184
:100DC000000F03D0E08E0028E1D125E0032635E0B6
:100DD000206B21680078087306E020688168890725
:100DE0000AD5216B09780173206B401C2063E08ECB
:100DF000401EE0860DE01FE0FFF734FBA0EB090189
:100E0000414503D3B8F1FF3F03D0DFE7B8F1000F4E
:100E1000DCD0E08E0028E0D14A464146204600F072
:100E2000B7FB08B120206065A06818B92068C168C8
:100E300080680090606D08B1012601E084F851706F
:100E400084F850B0304661E72DE9FF4F81B0044689
:100E500090F8500000260E9F1D4693464FF0010962
:100E600001280FD04FF0010A84F850A0FFF7FAFADA
:100E7000804694F85100616801280DD0B1F5827F59
:100E800008D103E0022005B0BDE8F08FA16809B9E0
:100E9000042801D00226C9E00298002865D0BBF1E1
:100EA000000FFBD0002DF9D094F85100042802D097
:100EB000052084F8510000206065C4F838B0E5874B
:100EC000A58702992163E586A58620646064206871
:100ED0000168490603D4016841F040010160E068FF
:100EE000B0F5006F606803D0F0B3012D47D081E00A
:100EF00008B1012D3CD1206B21680088C860206BAF
:100F0000801C2063E08E401EE08631E0206881680E
:100F100089070FD5E18E69B1B9F1010F0AD1216BB3
:100F20000988C160206B801C2063E08E401EE08633
:100F30004FF0000920688168C9070CD0E18F51B1DA
:100F4000C068A16B0880A06B801CA063E08F401E6E
:100F5000E0874FF00109FFF785FAA0EB0800B842DF
:100F600006D3781C04D001E009E05BE003265BE0D7
:100F7000E08E0028CAD1E08F0028C7D140E0206B66
:100F8000216800780873206B401C2063E08E401EAF
:100F9000E0862FE02068816889070FD5E18E69B16E
:100FA000B9F1010F0AD1216B09780173206B401C44
:100FB0002063E08E401EE0864FF0000920688168C3
:100FC000C9070CD0E18F51B1C068A16B0870A06B4C
:100FD000401CA063E08F401EE0874FF00109FFF73F
:100FE00041FAA0EB0800B84202D3781C02D0BAE75D
:100FF000002FB8D0E08E0028CCD1E08F0028C9D1D6
:1010000042463946204600F0C3FA18B10126202096
:1010100060650BE0A06818B92068C168806800901E
:10102000606D08B1012601E084F851A0002084F829
:101030005000304627E710B5401EB0F1807F01D345
:10104000012010BD4FF0E02460610F21601700F017
:10105000E9FB0020A06107202061002010BD70B5D1
:10106000040004D094F84100002510B106E00120EE
:1010700070BD84F84050204600F024F8242084F805
:1010800041002068C16821F40051C160204600F091
:101090001FFB2068016921F49041016120684169CA
:1010A00021F02A0141612068C16841F40051C1600A
:1010B0006564202084F8410084F8420065630020C4
:1010C00070BD000030B585B00024009401940294F6
:1010D000039400681449884224D11448816941F47A
:1010E00080418161816901F480410491816941F00D
:1010F0000401816180690E4D00F0040004904FF4FA
:101100000070009002200190032003906946284659
:10111000FFF7A6F82815CDE9000469462846029491
:10112000FFF79EF805B030BD0038014000100240C6
:10113000000801402DE9F843044690F841001F469D
:1011400016460D46202802D00220BDE8F8837DB166
:1011500076B100206064212084F84100FFF782F915
:10116000A6848046E684A068B0F5805F02D003E0E4
:101170000120EAE7206910B12E4600250EE0002686
:101180000CE08021204600F0FFFAA0B9AEB116F8BD
:10119000010B21684860E08C401EE084E08C4346EF
:1011A0004FF0000200970028EBD14FF0400120469D
:1011B00000F0EAFA30B10320C7E735F8020BC0F3BC
:1011C0000800E6E7202084F841000020BDE7FEE7A4
:1011D000F0B585B000241C48009401940294039457
:1011E000816941F008018161816901F00801049180
:1011F000816941F480718161816901F48071049198
:10120000816941F0040181618069104F00F00400A0
:101210004FF4C0760490012231463846FFF71CF99E
:10122000402001258DE8310069463846FFF718F85F
:101230000320CDE90240CDE9006569463846FFF755
:101240000FF805B0F0BD0000001002400020014082
:10125000104810B50E4901604FF4827141600021C1
:101260008160C1604FF400720161C0E90512102273
:10127000C0E90721416281620A21C162FFF7EEFBEA
:10128000002803D0BDE81040FEF7E7BF10BD000006
:1012900000380040380000200C4810B50A490160B1
:1012A0004FF4E1314160002181600C22C160C0E94E
:1012B00004128161C161FFF7D2FE002803D0BDE8AE
:1012C0001040FEF7CABF10BD00380140900000205A
:1012D000FEE7FEE71FB512A10522D1E90001CDE925
:1012E000020102A9302000F0B5F80522694610205D
:1012F00000F044F8002069460A5CA52A03D1401C8E
:10130000C0B20528F8D3052805D007A000F07AFA66
:10131000012004B010BD0AA000F074FA0020F8E724
:10132000A5A5A5A5A50000006E524632344C30316B
:101330002054455354204641494C0D0A00000000FA
:101340006E524632344C30312054455354204F4B6A
:101350000D0A000010B5084C00224FF480712046A1
:10136000FFF77AF8012280212046FFF775F8BDE8E3
:101370001040642000F0D6BB002001402DE9F04170
:101380000D4D16460F460446002280212846FFF7E1
:1013900063F8204600F00EFC04461023324639461E
:1013A0000648FFF7EFFB012280212846FFF754F89B
:1013B0002046BDE8F08100000020014038000020F8
:1013C00070B50A4D0446002280212846FFF744F8F4
:1013D000204600F0EFFBFF2000F0ECFB044601226A
:1013E00080212846FFF738F8204670BD00200140D4
:1013F00070B505460720FFF7E3FF044601462720A6
:1014000000F04AF8A00602D50AA000F0FBF9600639
:101410000DD5202229466120FFF7B0FFFF21E220F1
:1014200000F03AF807A000F0EDF9002070BD0120AF
:1014300070BD000052582073656E642061636B219B
:101440000D0A000052582072656164206461746165
:10145000210D0A002DE9F0410D4D16460F460446B8
:10146000002280212846FEF7F7FF204600F0A2FB6D
:1014700004461023324639460648FFF72EFC012267
:1014800080212846FEF7E8FF2046BDE8F0810000F5
:10149000002001403800002070B50B4D0E46044678
:1014A000002280212846FEF7D7FF204600F082FB6D
:1014B0000446304600F07EFB012280212846FEF7DC
:1014C000CBFF204670BD00000020014070470000A7
:1014D00070B5164D4FF48074002221462846FEF761
:1014E000BBFF052212492A20FFF7B4FF012121206A
:1014F000FFF7D2FF01212220FFF7CEFF7821252020
:10150000FFF7CAFF20213120FFF7C6FF0F21262059
:10151000FFF7C2FF0F212020FFF7BEFF214628461C
:10152000BDE870400122FEF797BF00000020014097
:10153000FE1B0008F8B5044640684FF482739842D9
:1015400017D1A0684FF48065B0F5004F01D0A842D4
:101550000FD12068066826F0400606606068984251
:1015600007D1A068A84204D100920B4600220121B5
:1015700003E000920B4600228021204600F018F87C
:10158000002804D0606D40F0200060650320F8BDA5
:1015900038B50B46009204460022802100F008F87E
:1015A000002804D0606D40F020006065032038BD45
:1015B0002DE9F8431E46914688460446089DFEF7ED
:1015C00051FF401B351AFEF74DFF074625480068BE
:1015D000C0F3CB30684338E0701C37D0FEF742FFD1
:1015E000C01BA84203D215B1009860B32CE020685C
:1015F000416821F0E00141606068B0F5827F0BD165
:10160000A068B0F5004F02D0B0F5806F04D120681B
:10161000016821F040010160A06AB0F5005F09D1C6
:101620002068016821F4005101602068016841F4DC
:1016300000510160012084F85100002084F850001E
:101640000320BDE8F8830025401E009020688168D3
:1016500038EA010004D000214945BDD10020F0E75F
:101660000121F9E7100000207047FEF701BF30B5F7
:101670008FB028216846FEF790FD14210AA8FEF7D6
:101680008CFD01210804CDE90010002402940225FC
:101690000491CDE907504FF4E01009906846FFF738
:1016A0004DF808B172B6FEE70F20CDE90A054FF4F8
:1016B0008060CDE90C4002210AA80E94FEF762FF7B
:1016C000002801D072B6FEE70FB030BD70470000B1
:1016D00070B5044600680169E26821F44051114385
:1016E00001612169A0680843616908432168CA68EB
:1016F00041F20C639A430243CA6020684169A269BF
:1017000021F44071114341611E492068884202D191
:10171000FEF7DEFF01E0FEF7CBFF00EBC00101EBBF
:101720000012606864218000B2FBF0F3B3FBF1F3B8
:101730006FF018067343B2FBF0F5B2FBF0F605EB61
:101740008305322303EB0515B5FBF1F5B6FBF1F686
:1017500005F0F00505EB0615B2FBF0F6B2FBF0F074
:10176000B0FBF1F06FF01802504306EB800003EB82
:101770000010B0FBF1F0216800F00F0028448860F1
:1017800070BD0000003801402DE9F0419846174631
:101790000E460446069D27E0681C25D02DB1FEF7B5
:1017A00061FEA0EB0800A8421ED920680C3050E86A
:1017B000001F21F4D07140E80012002AF5D1206802
:1017C000143050E8001F21F0010140E80012002A07
:1017D000F5D1202084F8410084F84200002084F8EC
:1017E00040000320BDE8F0812068006836EA000070
:1017F00004D00020B842CFD00020F3E70120F9E761
:10180000FEE700000FB4054B10B503A9044A029887
:1018100000F028F810BC5DF814FB0000351B000830
:10182000140000200907090E002804DB00F1E02065
:1018300080F80014704700F00F0000F1E02080F8FD
:10184000141D704702E008C8121F08C1002AFAD10F
:1018500070477047002001E001C1121F002AFBD130
:10186000704700002DE9FF4F8DB09B460F460446A0
:10187000002606E025280BD05A460F999047641C95
:10188000761C20780028F5D111B03046BDE8F08FE5
:101890000025A8460122984900E0054314F8013FBD
:1018A000203B02FA03F00842F7D120782E2817D106
:1018B00014F8010F45F004052A280ED06FF02F020E
:1018C0002078A0F1300109290AD808EB880102EB41
:1018D000410100EB0108641CF2E757F8048B641C1B
:1018E00020786C280DD004DC4C2812D06A2811D145
:1018F00004E074280DD07A280CD10AE045F40015D4
:1019000007E0617845F48015814202D1641C05F539
:101910008015641C2078692844D008DC0028B3D0E6
:10192000582867D063280FD0642808D13AE070287F
:1019300065D0732812D075285AD078285AD05A46C4
:101940000F999047761CD5E017F8040B8DF800002E
:1019500000208DF80100E946012003E057F8049BC0
:101960004FF0FF3069074FF0000501D40AE06D1C0D
:1019700045450DDA8542FADB19F805100029F6D144
:1019800006E06D1C8542FCDB19F805100029F8D132
:101990002E4404E019F8010B5A460F9990476D1E2A
:1019A000F8D2A7E00A200021CDE90801C5F30250D2
:1019B00002280CD001CFC117021E71F100020CDA0F
:1019C0000023D0EB030063EB01012D2208E0FF1D93
:1019D00027F00707F7E80201EEE72A0504D52B22D6
:1019E0008DF8282001223CE0EA073AD02022F7E7D0
:1019F0000A2000E010200021CDE9080107E01020B6
:101A0000002145F00405CDE908014FF00808C5F3B1
:101A10000250022810D001CF00214FF0000A2A07FF
:101A200020D52278702A0DD0DDE908C38CF0100C87
:101A30005CEA030C0CD015E0FF1D27F00707F7E860
:101A40000201EAE740228DF828204FF0010A0CE05D
:101A500050EA010306D030238DF828308DF8292074
:101A6000022292462278582A04D024A20DF120099D
:101A70000B9209E026A2F9E7DDE90823FEF798FBBF
:101A80000B9B9B5C09F8013D50EA0102F4D1ADEBE0
:101A9000090020300890680701D44FF00108089928
:101AA000884503DD0898A8EB000000E00020804690
:101AB000002506E00AA85A46405D0F9990476D1C24
:101AC000761C5545F6DB04E030205A460F999047C6
:101AD000761CB8F10001A8F10108F5DC05E019F861
:101AE000010B5A460F999047761C0899481E08909A
:101AF0000029F4DC641CC4E60928010030313233CB
:101B00003435363738396162636465660000000039
:101B10003031323334353637383941424344454623
:101B20000000000003E00721491EC9B2FCD2401E9C
:101B3000F9D2704713B54FF6FF7301226946024888
:101B4000FFF7F8FA00981CBD90000020FEF798FC03
:101B5000FFF78DFDFFF73CFBFFF77AFBFFF79CFBE0
:101B6000FFF7F8FB0F4C042084F80000FFF7B2FBEE
:101B700018B12078411E2170F8D2FFF7A9FC0A4D58
:101B80000948FFF735FC0028FAD1002407A0295D99
:101B9000FFF738FE641CE4B2202CF7D304A0FFF753
:101BA00031FEEDE70000002018000020202578001D
:101BB0000D0A000001B582B010200090012301AA97
:101BC00002A90348FFF740F99DF804000EBD00008C
:101BD00038000020010202030405060708090A0B69
:101BE0000C0D0E0F1010000000000000000001029C
:101BF0000304060708090000000001020304023A7A
:101C0000B1B10100241C00080000002018000000F1
:101C1000441800083C1C000818000020C004000004
:101C2000541800080000000001000000100000002F
:0C1C3000000000000024F4000000000090
:0400000508000131BD
:00000001FF
