:020000040800F2
:1000000090090020490100085F1F00088D190008B1
:100010005D1F00085D060008C924000800000000FC
:100020000000000000000000000000001123000894
:100030005F06000800000000611F0008132300088D
:100040006301000863010008630100086301000800
:1000500063010008630100086301000863010008F0
:1000600063010008630100086301000863010008E0
:1000700063010008630100086301000863010008D0
:1000800063010008630100086301000863010008C0
:1000900063010008630100086301000863010008B0
:1000A00063010008630100086301000863010008A0
:1000B0006301000863010008630100086301000890
:1000C0006301000863010008630100086301000880
:1000D0006301000863010008630100086301000870
:1000E0006301000863010008630100086301000860
:1000F0006301000863010008630100086301000850
:10010000630100086301000863010008630100083F
:1001100063010008630100086301000879230008F7
:10012000630100086301000863010008630100081F
:10013000DFF810D000F080FA0048004709250008D9
:10014000AFF300809009002006488047064800472A
:10015000FEE7FEE7FEE7FEE7FEE7FEE7FEE7FEE777
:10016000FEE7FEE77523000831010008202A04DBC2
:10017000203A21FA02F00021704721FA02F3D04020
:10018000C2F120029140084319467047D2B201E003
:1001900000F8012B491EFBD270470022F6E710B58C
:1001A00013460A4604461946FFF7F0FF204610BDE5
:1001B00030B480EA010202F0004530F0004221F044
:1001C000004013D090B1C30DD40DC2F31601C0F39B
:1001D0001600E41A41F4000140F400027D3491421B
:1001E00001D3641C00E04900002C02DA30BC00207E
:1001F00070474FF400000023914201D3891A034352
:1002000040084FEA4101F7D151B1914202D14FF07C
:10021000004105E002D24FF0010101E06FF0010161
:1002200003EBC450284430BC00F072B92DE9FE4FF6
:10023000804681EA0300C00F0C46009021F0004187
:1002400023F00045B8EB0200A94105D24046214603
:1002500090461C460B46024623F00040104347D010
:10026000270DC7F30A00C3F30A510290401A019008
:1002700040286BDAC3F3130040F4801B00989246C9
:1002800020B10023D2EB030A63EB0B0B0198594614
:10029000C0F14002504600F01AF906460D4650469D
:1002A0005946019A00F022F910EB08006141002440
:1002B00087EA115284EAE7731A4340D0009A62B386
:1002C000019A012A4FEA075215DC001B61EB02017B
:1002D0004FF0004202EA0752CDE90042001C41F50E
:1002E000801132462B4600F059F903B0BDE8F08F7B
:1002F00040462146F9E7001B61EB0201001C41F575
:10030000801300185B412018A2F5001747EB03018A
:1003100040EAD570B6196D4111E06D084FEA360616
:1003200045EAC0754FEA0752001B61EB0201001C51
:1003300041F5801149084FEA300000195141324619
:100340002B4603B0BDE8F04F00F019B90098012228
:1003500040000023D0EB020263EBE07300982146DB
:100360004FEAE074B8EB000061EB0401E9E783F0C9
:1003700000435BE781F0004158E72DE9FE4F81EA39
:10038000030404F0004421F0004100944FF0000BFE
:1003900023F0004350EA01045ED052EA03045BD02C
:1003A000C3F30A54C1F30A552C44A4F2F334019464
:1003B000A0FB0254C1F3130141F48011C3F31303F2
:1003C00043F4801301FB024400FB034E840A970AA6
:1003D00044EA815447EA8357A4FB076802958D0AD3
:1003E00005FB07854FEA932C04FB0C542705029D5F
:1003F0004FEA065847EA1637B5EB08056EEB070CCF
:10040000870E920E47EA811742EA8312A7FB020188
:10041000B6EB0B0164EB00042B0D43EA0C335E18C2
:1004200044EB1C50DA465146E7FB0201C5F31304C6
:100430004FEA0B3343EA14534FEA0432019C43EA78
:100440000603A4F10C040294009CCDE900B400F072
:10045000A5F803B0BDE8F08F00200146F9E7C10F11
:1004600080EAE0700844CA079623002100F059B8DA
:1004700000F0004230F000400AD0C10D01F560717B
:10048000C0F3160042EA0151C20840071143704709
:1004900000200146704701F0004330B421F00041D4
:1004A00050EA010206D00A0DA2F56072C1F31301F1
:1004B000002A02DC30BC00207047440F44EAC1042B
:1004C000C100E01830BC00EBC25000F021B8202A77
:1004D00004DB203A00FA02F1002070479140C2F19B
:1004E000200320FA03F3194390407047202A06DBCB
:1004F000CB17203A41FA02F043EAE07306E041FAF2
:1005000002F3D040C2F120029140084319467047DF
:100510000029A8BF7047401C490008BF20F0010017
:10052000704710B4B0FA80FC00FA0CF050EA0104F5
:1005300004BF10BC704749B1CCF1200421FA04F487
:1005400011FA0CF118BF012121430843A3EB0C0160
:10055000CB1D4FEA00614FEA102042BF002010BCC3
:10056000704700EBC35010440029A4BF10BC704773
:10057000401C490008BF20F0010010BC704710B5B6
:10058000141E73F1000408DA401C41F100019218B6
:100590005B411A4301D120F0010010BD2DE9F04D5F
:1005A00092469B4611B1B1FA81F202E0B0FA80F2B4
:1005B00020329046FFF78BFF04460F4640EA0A00C0
:1005C00041EA0B0153465A46084313D0114653EAF9
:1005D000010019D0C8F140025046FFF7C7FD05469B
:1005E0000E46504659464246FFF771FF084305D074
:1005F000012004E020463946BDE8F08D0020054387
:1006000046EAE0762C4337430A986305E40AA0EBF8
:1006100008000022FD0A44EA47540A3002D50020AF
:100620000146E9E7010510196941DDE908450019AE
:100630006941BDE8F04DA2E7064C074D06E0E068D1
:1006400040F0010394E8070098471034AC42F6D319
:10065000FFF772FD5847000878470008FEE770472B
:1006600072B6FEE770B5044600F00AF90546601C54
:1006700002D004480078044400F002F9401BA04274
:10068000FAD370BD000000202DE9F84FDFF8C891C3
:100690000024A9F1040B23460F2709F1040AABF14A
:1006A000040ED1E00125A54006EA0502AA4276D152
:1006B000DFF8A8C14E68A6EB0C0866452BD00DDC10
:1006C000032E34D005DC36B3012E19D0022E2FD1E3
:1006D0001BE0112E16D0122E2AD119E0B8F5881F72
:1006E00019D006DCB8F5803F15D0B8F5801F1FD1B2
:1006F00011E0B8F5001F0ED0B8F5041F18D10AE0BC
:10070000CB6815E0CB681B1D12E0CB6808330FE007
:10071000CB680C330CE08B682BB1012B4FF0080336
:1007200003D0456104E0042302E0056100E00023FA
:10073000FF2A01D8064601E000F104064FEA8405CD
:1007400001D9A5F12005D6F8008007FA05FC28EAB2
:100750000C0803FA05F548EA0508C6F800804D685C
:10076000ED0070D53E4DAE6946F00106AE61AD6953
:1007700024F0030605F0010500953A4D06EB050C43
:10078000DCF80850A607360F07FA06F825EA080530
:10079000DFF8D480404503D14FF0000825E052E057
:1007A000DFF8C880404502D14FF001081DE0DFF8B6
:1007B000C080404502D14FF0020816E0DFF8B48057
:1007C000404502D14FF003080FE0DFF8AC80404510
:1007D00002D14FF0040808E0DFF8A080404502D1C4
:1007E0004FF0050801E04FF0060808FA06F848EA5D
:1007F0000508CCF808804D68D9F80060ED024D4638
:1008000001D5164300E096432E604D68DAF800608B
:10081000AD02554601D5164300E096432E604D6863
:10082000DBF80060AD035D4601D5164300E096435A
:100830002E604D68DEF80060ED03754601D5164365
:1008400000E096432E60641C0A681646E2407FF47E
:1008500029AFBDE8F88F0000080401400000111026
:10086000001002400000014000080140000C01405F
:10087000001001400014014000180140001C01401C
:1008800001488068704700000000002070B5040037
:1008900025D094F83D00002520B984F83C5020462E
:1008A00000F02CFB242084F83D002068016821F032
:1008B000010101602068016841F400410160206885
:1008C000016821F40041016000F09AFC4D4A616822
:1008D000914201D84C4900E04C49884201D20120A4
:1008E00070BD4B492368B0FBF1F15E6826F03F060E
:1008F0000E435E606368934206D94FF49673594382
:100900004FF47A73B1FBF3F12368491C1E6A26F099
:100910003F06314319626168914210D84900401E78
:10092000B0FBF1F2521CC2F30B02042A01D20420E4
:1009300022E0B0FBF1F0401CC0F30B001CE0A26809
:10094000F2B301EBC10303EB0116431EB3FBF6F355
:100950005B1C43F480431B0549D092B301EBC102F9
:1009600002EB0111401EB0FBF1F0401CC0F30B0084
:1009700040F4804040F400402168CA694CF6FF739F
:100980009A431043C861D4E9071001432068026804
:1009900022F0C00211430160D4E903010143206841
:1009A000826848F2FF339A4311438160D4E905011C
:1009B00008432168CA6822F0FF021043C86001E0C2
:1009C0000EE016E02068016841F001010160256435
:1009D000202084F83D00256384F83E50002070BD3F
:1009E00001EB4106431EB3FBF6F35B1CB3E70120AA
:1009F000C2E701EB4101401EB0FBF1F0401CC0F327
:100A00000B00B7E7A086010080841E0000093D00AE
:100A100040420F002DE9FF4F81B089460446FFF7A1
:100A20002FFF054694F83D004FF0000820287DD1A7
:100A30001923012250492046009501F0C5F80028ED
:100A400074D194F83C00012870D0012084F83C0057
:100A500020680168C90703D1016841F00101016004
:100A60002068016821F400610160242084F83D00C1
:100A7000002626644148E0624FF0011B20272068D1
:100A8000016841F4807101600095002259462046BA
:100A9000049B01F099F850B120680068C00502D5A8
:100AA0004FF400702064032005B0BDE8F08F21688A
:100AB00009F0FE000861FFF7E3FE2168054648697A
:100AC0004969C0F34000C1F380214FF0A00A0FE054
:100AD000FFF7D6FE411B0498814200D808B984F87C
:100AE0003DA0216848694969C0F34000C1F38021F5
:100AF00094F83D20A02A02D008B90029E8D084F853
:100B00003D7020684169C943890716D4016841F4E2
:100B1000007101602068416980691923012216492A
:100B20002046009501F050F8B8B900E021E084F8C3
:100B30003D7084F83C600020B6E7016841F4007124
:100B4000016021686FF480604861192301220A491D
:100B50002046009501F038F808B10120A4E7039879
:100B600008F1010880458AD384F83D7084F83C6020
:100B7000F3E7022098E70000020010000000FFFFEA
:100B80002DE9F84F1F4690468A460446DDF8289026
:100B9000FFF776FE054694F83D0020287FD1192303
:100BA000012240492046009501F00EF8002876D138
:100BB00094F83C00012872D0012084F83C002068A1
:100BC0000168C90703D1016841F001010160206893
:100BD000016821F400610160212084F83D001020AB
:100BE00084F83E0000262664C4F824806785608D62
:100BF00020852D48E0622B464A465146204600F0AB
:100C0000DDFE90B9206841698069009036E02A468F
:100C10004946204601F0B6F850B1206C042804D1B2
:100C20002068016841F4007101600120BDE8F88F7F
:100C3000606A216800780861606A401C6062618DAA
:100C4000491E6185218D491E89B22185226853691B
:100C5000DB435B070BD451B100781061606A401C24
:100C60006062608D401E6085208D401E20852A4672
:100C70004946204600F07CFF0028CED1208D002878
:100C8000C5D154F83D0B016841F40071016020208A
:100C900004F81E09E67766770020C7E7FFE7022021
:100CA000C4E70000020010000000FFFF2DE9FF4F25
:100CB00083B00025DDE910799A4693460446DDF8B5
:100CC00048800095FFF7DCFD064694F83D0020289B
:100CD0007CD11923012285492046009600F074FF3B
:100CE0000028F5D194F83C0001286FD0012084F849
:100CF0003C0020680168C90703D1016841F0010187
:100D000001602068016821F400610160222084F8FC
:100D10003D00402084F83E0025646762A4F82A90D4
:100D2000608D20857248E062CDE9008653465A46C0
:100D30002046049900F09EFE00287DD1208DDFF82A
:100D4000B491202768B1012814D0022820680168D6
:100D50001ED041F480610160206841698069009083
:100D6000B6E02068416981690091016841F4007131
:100D70000160ADE02068016821F48061016072B615
:100D80002068416981690091016841F400710AE0BD
:100D900041F40061016072B6206841698169009187
:100DA000016821F48061016062B691E0032868D88F
:100DB00001280CD0022843464FF000024946204645
:100DC00000960FD000F000FFB0BB10E08BE0324681
:100DD0004146204600F09EFF70BB20680069616AB2
:100DE00008706CE000F0F0FE30BB72B634E02068B2
:100DF000016821F48061016072B620680069616A4F
:100E00000870606A401C6062208D401E2085608DE5
:100E1000401E6085384846F2A8110068B0FBF1F02A
:100E2000C0EBC00000EB80000090401E009008D096
:100E300020684069C04300E029E040070CD50098D5
:100E4000F3E744F8305F6773A573206940F0200032
:100E5000206162B625731AE02068016841F40071D0
:100E6000016020680069616A0870606A401C606205
:100E7000218D491E2185618D491E618562B62168DB
:100E80001BE032464146204600F044FF18B10120E5
:100E900007B0BDE8F08F20680069616A0870606A79
:100EA000401C6062218D491E2185618D491E61852E
:100EB00021684A69D24352070AD409690170606AFD
:100EC000401C6062208D401E2085608D401E608524
:100ED000208D00287FF46AAF84F83D7084F83E507E
:100EE00084F83C50D4E70220D2E700000200100052
:100EF0000000FFFF040001000C00002030B585B0A9
:100F000000210091019102910391224D0368224C2E
:100F1000122103222148AB421ED1E36943F400139E
:100F2000E361E36903F400130493A36943F0080346
:100F3000A361A369039203F008030493C023CDE9DE
:100F400000316946FFF7A0FBE06940F40010E06162
:100F5000E06900F4001019E0114DAB4217D1A3690C
:100F600043F00803A361A369039203F00803049309
:100F70004FF44063CDE900316946FFF785FBE06936
:100F800040F48000E061E06900F48000049005B066
:100F900030BD00000054004000100240000C014031
:100FA000005800400248816802781144816070470F
:100FB00000000020074810B5016841F010010160F1
:100FC000032000F075F80F2000F006F800F024F878
:100FD000002010BD0020024070B50D4D04464FF4B6
:100FE0007A712878B1FBF0F00A490968B1FBF0F09A
:100FF00000F0DCFA48B9102C07D200222146501E1E
:1010000000F036F800206C6070BD012070BD00005B
:10101000000000200C0000200C4808B5816941F058
:1010200001018161816901F001010091C16941F013
:101030008051C161C06900F080500090044841684F
:1010400021F0E06141F00071416008BD00100240F4
:1010500000000140002809DB00F01F02012191403F
:101060004009800000F1E020C0F800117047000046
:10107000F0B40E4B1B680C46C3F30223C3F1070503
:10108000042D00D90425191D072901D2002300E0F1
:10109000DB1E012606FA05F1491E214099409E40BB
:1010A000761E16403143F0BC01F00FBA0CED00E0A3
:1010B000064900F0070208684FF6FF03184040EAAF
:1010C0000220034A10430860704700000CED00E066
:1010D0000000FA052DE9F0470F46050061D0434EA8
:1010E000306800F00700B84209D2306820F00700ED
:1010F00038433060306800F00700B84251D12868AA
:101100003B4C810712D5400703D5606840F4E0608E
:1011100060602878000703D5606840F46050606024
:101120006068A96820F0F000084360602878C00774
:1011300028D06868012810D02168022810D08907BB
:1011400000292EDA616821F0030101436160FFF795
:1011500097FB804641F288390DE021688903EFE76B
:101160008901EDE7FFF78CFBA0EB0801494502D9A7
:101170000320BDE8F0876068696800F00C00B0EB00
:10118000810FEFD1306800F00700B8420BD930680A
:1011900020F0070038433060306800F00700B842A4
:1011A00001D00120E5E72878400705D56068E968A7
:1011B00020F4E060084360602878000706D5606886
:1011C000296920F4605040EAC100606000F038F8FE
:1011D0006168084AC1F30311515CC84006490860C0
:1011E00006480068FFF7F8FE0020C2E70020024032
:1011F00000100240962600080C0000200400002089
:101200000448054900684968044AC1F30221515C59
:10121000C84070470C00002000100240A6260008BD
:101220000448054900684968044AC1F3C221515C79
:10123000C84070470C00002000100240A62600089D
:101240000E4A51680E4801F00C03042B11D0082BF4
:101250000FD10C48C1F38343C903C05C0AD5516860
:10126000084AC1F34041921E515C054A5043B0FB0D
:10127000F1F07047044948437047000000100240F5
:1012800000127A008626000800093D002DE9F84F7B
:10129000040070D02078C04DC00749D06868C0F302
:1012A0008100012807D06868C0F38100022809D1B5
:1012B0006868C00306D52868800339D560680028AF
:1012C000E7D035E06068B0F5803F0BD010B1B0F5E5
:1012D000A02F11D0286820F480302860286820F4DE
:1012E000802002E0286840F480302860606890B177
:1012F000FFF7C6FA06460AE0286840F48020286016
:10130000F0E700BFFFF7BCFA801B642873D8286899
:101310008003F7D50CE0FFF7B3FA064605E000BFFF
:10132000FFF7AEFA801B6428F0D828688003F7D452
:1013300020789A4E80074FF001094FF0000839D508
:10134000686810F00C0F07D06868C0F381000228AD
:1013500009D16868C00306D42868800714D52069BD
:10136000012808D110E02069B0B1C6F80090FFF75D
:1013700087FA074605E00AE1FFF782FAC01B022858
:10138000C4D828688007F7D52868616920F0F8007C
:1013900040EAC10028600DE0C6F80080FFF770FA4F
:1013A000074604E0FFF76CFAC01B022823D8286820
:1013B0008007F7D4207800072CD57948A169D9B1E6
:1013C000C0F80090FFF75CFA074604E0FFF758FA10
:1013D000C01B02280FD8686A8007F7D571484FF400
:1013E000FA510068B0FBF1F0009000BF0098411E78
:1013F0000091FAD20EE080E0C0F80080FFF740FADA
:10140000074604E0FFF73CFAC01B022875D8686A5B
:101410008007F7D42078400760D5E8690027C0002E
:1014200008D4E86940F08050E861E869012700F0DD
:10143000805000905C480168C90513D40168834658
:1014400041F480710160FFF71BFA824606E000BF9D
:10145000FFF716FAA0EB0A0064284ED8DBF800006C
:10146000C005F5D5E06801280AD008B1052813D0D9
:10147000286A20F001002862286A20F0040002E0B7
:10148000286A40F001002862E06841F2883B98B188
:10149000FFF7F6F982460BE0286A40F00400286264
:1014A000EEE700BFFFF7ECF9A0EB0A0159455AD867
:1014B000286A8007F6D50CE0FFF7E2F9824605E0DE
:1014C000FFF7DEF9A0EB0A0159454CD8286A8007DE
:1014D000F6D41FB1E86920F08050E861E06988B374
:1014E0006968C1F38101022944D00228C6F86080EE
:1014F00004D0FFF7C5F9044638E034E0FFF7C0F93F
:10150000074604E0FFF7BCF9C01B02282BD8286867
:101510008001F7D4206AB0F5803F05D16868A168E2
:1015200020F4003008436860D4E908010843696882
:1015300021F4741108436860C6F86090FFF7A0F9C1
:10154000044606E025E000BFFFF79AF9001B0228D9
:1015500009D828688001F7D51BE000BFFFF790F994
:10156000001B022802D90320BDE8F88F28688001FB
:10157000F4D40EE00128F7D06868226A00F48031C4
:10158000914204D1616A00F47010884201D00120B8
:10159000EAE70020E8E700000010024000004242B5
:1015A000800442420C0000200070004010B5401E34
:1015B000B0F1807F01D3012010BD4FF0E0246061C5
:1015C0000F21601700F081FF0020A061072020613B
:1015D000002010BD7047704770B590F83C20012A7C
:1015E0002CD0012480F83C40022280F83D20036882
:1015F0005A689D6822F070060A6832435A60104BA0
:1016000002689A420ED00F4B9A420BD0B2F1804F33
:1016100008D00D4B9A4205D00C4B9A4202D00C4B8D
:101620009A4204D1496825F080031943916080F8FB
:101630003D40002180F83C10084670BD022070BD7E
:10164000002C01400034014000040040000800402C
:10165000000C004010B5040003D094F83D0010B118
:1016600007E0012010BD002084F83C00204600F077
:101670001FF8022084F83D00211D206800F082FE42
:10168000012084F8460084F83E0084F83F0084F886
:10169000400084F8410084F8420084F8430084F854
:1016A000440084F8450084F83D00002010BD00008F
:1016B00008B500680B49884212D10B48C16941F056
:1016C0002001C161C069002200F020000090114695
:1016D0003720FFF7CDFCBDE808403720FFF7BABC44
:1016E00008BD00000014004000100240704770B5B3
:1016F0000446006801694FF00005C943890715D405
:10170000C168C943890711D4E91E0161012020770E
:10171000206880698007204602D0FFF7E7FF04E0D9
:1017200000F098F8204600F096F8257720680169C7
:10173000C943490717D4C168C943490713D46FF097
:1017400004010161022020772068806910F4407F45
:10175000204602D0FFF7CAFF04E000F07BF82046E5
:1017600000F079F8257720680169C943090716D484
:10177000C168C943090712D46FF008010161042050
:1017800020772068C0698007204602D0FFF7AEFFAF
:1017900004E000F05FF8204600F05DF8257720684F
:1017A0000169C943C90617D4C168C943C90613D41E
:1017B0006FF010010161082020772068C06910F4E3
:1017C000407F204602D0FFF791FF04E000F042F88E
:1017D000204600F040F8257720680169C943C90711
:1017E00008D1C168C943C90704D1891E01612046D7
:1017F00000F032F820680169C943090609D4C168BC
:10180000C943090605D46FF0800101612046FFF746
:10181000E1FE20680169C943490609D4C168C9438A
:10182000490605D46FF040010161204600F042F8FE
:1018300020680169C94389060BD4C168C943890678
:1018400007D46FF0200101612046BDE87040FFF72A
:10185000C2BE70BD7047704770B5104988421CD138
:1018600000F0BCFA0E48B0F90000FEF7F8FD0D4993
:10187000FEF79EFCFEF7FCFD0B4A0C4BFEF77DFDD0
:101880000B4D06460C462868FEF7F2FD324623460D
:10189000FEF7CCFCFEF7FFFD286070BDEC000020D9
:1018A00026000020000003437B14AE47E17A943FFA
:1018B00028000020704770B5040004D094F841005F
:1018C000002510B106E0012070BD84F8405020468C
:1018D00000F024F8242084F841002068C16821F435
:1018E0000051C160204600F093FD2068016921F499
:1018F000904101612068416921F02A01416120681D
:10190000C16841F40051C1606564202084F8410041
:1019100084F842006563002070BD000030B585B0DA
:1019200000240094019402940394006814498842AE
:1019300024D11448816941F480418161816901F4B5
:1019400080410491816941F00401816180690E4DFB
:1019500000F0040004904FF4007000900220019009
:101960000320039069462846FEF78EFE2815CDE930
:101970000004694628460294FEF786FE05B030BD95
:10198000003801400010024000080140FEE70168F5
:101990004A69D24352050FD46FF480624A61002134
:1019A00040F8301F202242738173026942F0040222
:1019B000026101730120704700207047F8B50446AA
:1019C000C06A1E460D461746082807D0012805D0D4
:1019D00010F5803F02D0206B122804D120680168E6
:1019E00041F480710160134600224FF0011120463E
:1019F000009600F0E9F840B120680068C00502D503
:101A00004FF4007020640320F8BD2069B0F5804FCA
:101A10000ED00620216800EAD51040F0F0000861E1
:101A200033463A460B49204600F016F978B902E0F1
:101A300005F0FE0000E0E8B2216808610549334680
:101A40003A46891F204600F007F90028DCD0012023
:101A5000F8BD0000080001003EB502248DE81C001E
:101A60000A46014601230248FFF720F93EBD000067
:101A7000440000202DE9F84F0446006889460B9D7C
:101A800001689846174641F480610160206801684A
:101A900041F48071016000954FF0011B002259460E
:101AA00020460A9B00F090F84FF4007A40B120687D
:101AB0000068C00501D5C4F840A00320BDE8F88F38
:101AC000216809F0FE0008612B46284920460A9A41
:101AD00000F0C2F8F0BB20684169806900902A4696
:101AE00020460A9900F04EF940B1206C04283AD102
:101AF0002068016841F40071016034E0FEB2B8F181
:101B0000010F09D02168380A08612A4620460A993F
:101B100000F038F90028E8D1206806612A462046FE
:101B20000A9900F02FF90028DFD12068016841F4FC
:101B30008071016000950022594620460A9B00F002
:101B400043F80028B3D1216809F0FF0040F00100FC
:101B5000086100E007E02B46044920460A9A00F09D
:101B60007BF80028AAD00120A8E7000002000100AD
:101B700070B516460D4604461EE02046FFF707FFE7
:101B800008B1012070BD681C16D0FEF779FE801BDD
:101B9000A84200D885B920684069C04340070BD5EA
:101BA000002044F8300F20216173A073216941F0B7
:101BB000200121612073E4E720684069C0434007A9
:101BC000DBD4002070BD00002DE9F0479846174691
:101BD0000D460446C1F30746DDF820902AE000BF19
:101BE000B8F1FF3F26D0FEF74BFEA0EB09014145BF
:101BF00002D8B8F1000F1DD12068012E16D08069DF
:101C000025EA00000004000C12D00020B84211D1D7
:101C1000002044F8300F20216173A073216941F046
:101C20002001216120730120BDE8F0874069E7E7CA
:101C30000120EBE72068012E0AD0806925EA000028
:101C40000004000C06D00020B842C9D00020EBE709
:101C50004069F3E70120F7E72DE9F047984616467B
:101C60000D4604464FF000094FF0200AC1F3074724
:101C700023E020684069C043400515D4206801680E
:101C800041F40071016021686FF480604861C4F81C
:101C9000309084F83DA084F83E90216C41F004011E
:101CA000216484F83C9021E0701C06D0FEF7E8FD2A
:101CB000A0EB0800B04203D816B1012F1FD021E0DD
:101CC0002068012F15D0806925EA00000004000C6F
:101CD00018D000BF44F8309F84F80DA084F80E900F
:101CE000216941F02001216184F80C900120BDE8B8
:101CF000F087406925EA00000004000CEAD1206862
:101D0000406901E02068806925EA00000004000CB9
:101D1000AFD1ECE72DE9F041002590460E46044690
:101D2000202728E04069C043C0060CD454F8301B7B
:101D30006FF01000486144F810596777A577206A62
:101D40002062257714E0FEF79BFDA0EB0800B0426F
:101D500000D886B920684069C04340060BD544F8D6
:101D6000305F6773A573206940F020002061257300
:101D70000120BDE8F08120684169C9434906D1D4FA
:101D80000020F6E770B516460D4604461EE02046D4
:101D9000FFF7FDFD08B1012070BD681C16D0FEF7ED
:101DA0006FFD801BA84200D885B920684069C043F8
:101DB00000060BD5002044F8300F20216173A0737A
:101DC000216941F0200121612073E4E72068406926
:101DD000C0430006DBD4002070BD000010B50E2308
:101DE000124A3B21D020FFF737FE10484178027895
:101DF00001EB02220E498A81C278837802EB03222A
:101E0000CA814279037902EB03220A82427A037A79
:101E100002EB03224A82C27A837A02EB03228A828D
:101E2000427B007B02EB0020C88210BD7C010020B9
:101E300010000020094808B5816941F0080181615E
:101E4000816901F008010091816941F0040181611B
:101E5000806900F00400009008BD000000100240FE
:101E60000D4810B50B4901600C49416000214FF449
:101E700080428160C0E9031241618161C1610162F8
:101E8000FEF704FD002803D0BDE81040FEF7E8BBD4
:101E900010BD00000054004044000020801A0600DD
:101EA0000D4810B50B4901600C49416000214FF409
:101EB00080428160C0E9031241618161C1610162B8
:101EC000FEF7E4FC002803D0BDE81040FEF7C8BBD5
:101ED00010BD00000058004098000020801A060045
:101EE0001CB500240E4800940C490194016041F691
:101EF0001F41C0E90114C8218461C160FFF7AAFB3A
:101F000008B1FEF7ADFB0094694605480194FFF760
:101F100063FB002801D0FEF7A3FB1CBD00140040AA
:101F2000EC0000200C4810B50A4901604FF4E13183
:101F30004160002181600C22C160C0E9041281610E
:101F4000C161FFF7B8FC002803D0BDE81040FEF7E0
:101F500087BB10BD0038014034010020FEE7FEE7DA
:101F6000704710B5002000F025F8BDE8104000F0E3
:101F7000ABB9000070B5802813D2402911D20B4BA9
:101F8000012401F007051E79AC40094BC90800EB9C
:101F9000C1100EB132B101E0012A03D0195CA14396
:101FA000195470BD195C2143FAE700003C00002081
:101FB0008A01002028B1FF224FF480610248FEF719
:101FC000E5B80022F8E700008A010020014A1080ED
:101FD000518070473C00002010B500F021FB44F612
:101FE0002063012278215448FEF714FD08B1002037
:101FF00010BD40F6C210401EFDD1AE220021782057
:1020000000F014FB20220021782000F00FFB1022AA
:102010000021782000F00AFBB0220021782000F097
:1020200005FBC8220021782000F000FB00221146A9
:10203000782000F0FBFA10220021782000F0F6FA58
:1020400040220021782000F0F1FA8122002178203E
:1020500000F0ECFAFF220021782000F0E7FAA1223C
:102060000021782000F0E2FAA6220021782000F07A
:10207000DDFAA8220021782000F0D8FA3F220021C2
:10208000782000F0D3FAA4220021782000F0CEFAC4
:10209000D3220021782000F0C9FA002211467820CE
:1020A00000F0C4FAD5220021782000F0BFFAF02217
:1020B0000021782000F0BAFAD9220021782000F01F
:1020C000B5FA22220021782000F0B0FADA220021AD
:1020D000782000F0ABFA12220021782000F0A6FA56
:1020E000DB220021782000F0A1FA202200217820B4
:1020F00000F09CFA8D220021782000F097FA14223B
:102100000021782000F092FAAF220021782000F020
:102110008DFA2E220021782000F088FA0020FFF7A7
:1021200049FF00F0D1F805480021018041800121DC
:102130004171084610BD0000980000203C000020BE
:102140002DE9F047814625480D46924601882A78B8
:102150001144802905D28046408869780844402887
:1021600002D30020BDE8F08700262AE0A9F1200173
:1021700001FB00606A68002432F810701DE000BFA7
:1021800007FA04F0000409D5B8F80210B8F8000006
:102190003144204489B280B252460BE0BAF1000FBC
:1021A0001AD00022B8F80210B8F8000031442044D8
:1021B00089B280B2FFF7DEFE641C2878A042DFD827
:1021C000761C6878B042D1D8B8F800102A78484612
:1021D0001144A8F80010C5E70122E3E73C00002005
:1021E00070B515460E46044609E02A463146FFF70B
:1021F000A7FF2178884201D0C8B270BD641C207846
:102200000028F2D1C0B270BD70B50C460546272239
:102210000021782000F00AFA00221146782000F010
:1022200005FA2A460021782000F000FA0022114623
:10223000782000F0FBF922460021782000F0F6F922
:1022400000221146782000F0F1F9FF2200217820C9
:1022500000F0ECF9BDE870402F220021782000F05A
:10226000E5B970B50C46054626220021782000F01D
:10227000DDF900221146782000F0D8F92A46002125
:10228000782000F0D3F900221146782000F0CEF932
:1022900022460021782000F0C9F90022114678205A
:1022A00000F0C4F9FF220021782000F0BFF9BDE85A
:1022B00070402F220021782000F0B8B92E22002192
:1022C000782000F0B3B9000070B5104D002400BFB5
:1022D00004F1B000C2B20021782000F0A7F900227A
:1022E0001146782000F0A2F910220021782000F099
:1022F0009DF905EBC41280234021782000F0A6F957
:10230000641CE4B2082CE3D370BD00008A010020F5
:102310007047FEF747BE30B58FB028216846FDF7FD
:102320003CFF14210AA8FDF738FF01210804CDE97C
:1023300000100024029402250491CDE907504FF4C7
:10234000E01009906846FEF7A1FF08B172B6FEE7FB
:102350000F20CDE90A054FF48060CDE90C40022141
:102360000AA80E94FEF7B6FE002801D072B6FEE76A
:102370000FB030BD704700000148FFF7B8B900004A
:10238000EC000020F0B502681C4B1D4D1D4E1E4F89
:102390001E4C4FF0804C984209D0A04207D06045B7
:1023A00005D0A84203D0B04201D0B84204D122F0F7
:1023B000700E4A6842EA0E02984209D0A04207D045
:1023C000604505D0A84203D0B04201D0B84203D145
:1023D00022F44075CA682A434D6922F080022A43DC
:1023E00002608A68C2620A688262984201D0A04292
:1023F00001D10969016301214161F0BD002C014057
:102400000004004000080040000C0040003401407F
:1024100070B5044600680169E26821F44051114337
:1024200001612169A0680843616908432168CA689D
:1024300041F20C639A430243CA6020684169A26971
:1024400021F44071114341611E492068884202D144
:10245000FEF7E6FE01E0FEF7D3FE00EBC00101EB64
:102460000012606864218000B2FBF0F3B3FBF1F36B
:102470006FF018067343B2FBF0F5B2FBF0F605EB14
:102480008305322303EB0515B5FBF1F5B6FBF1F639
:1024900005F0F00505EB0615B2FBF0F6B2FBF0F027
:1024A000B0FBF1F06FF01802504306EB800003EB35
:1024B0000010B0FBF1F0216800F00F0028448860A4
:1024C00070BD000000380140FEE70907090E002832
:1024D00004DB00F1E02080F80014704700F00F00EA
:1024E00000F1E02080F8141D704702E008C8121FB8
:1024F00008C1002AFAD170477047002001E001C1ED
:10250000121F002AFBD170471CB5FEF753FDFFF7E1
:1025100002FFFFF78FFCFFF7A3FCFFF703FDFFF7B8
:10252000DFFCFFF7BDFCFFF757FD00210846FFF772
:102530004DFD0122304931A0FFF752FE1E2100203F
:10254000FFF744FD01222C492DA0FFF749FEFFF7BC
:10255000BBFE4FF47A752846FEF784F80721002069
:10256000FFF77FFE40F6B8342046FEF77BF80721E0
:102570000020FFF749FE2046FEF774F8FFF79EFEA5
:10258000FFF7EFFC00212320FFF720FD01221A496D
:102590001CA0FFF725FE6F1042F2107601241E21C9
:1025A0000020FFF713FD0122184919A0FFF718FEBC
:1025B000FFF78AFE0A2C02DA1E2135200BE0642C7C
:1025C00002DA1E212D2006E0AC424FF01E0101DA96
:1025D000252000E01E20FFF7F9FC01220B49684688
:1025E000FFF7FEFDFFF770FE3846FEF73BF8641C70
:1025F000B442D4DDD2E700002C0000204857580038
:102600005342000053434F52450000003400002065
:10261000202020202020202020202020200000001A
:102620000148401EFDD1704790D003001CB5022325
:102630008DF804100A2100918DF80520014601AAA9
:102640000148FEF79DFA1CBD9800002070B5C2B08D
:1026500000248DF8041001A904E0155D0E19641C16
:102660007570E4B29C42F8D30A2100915B1C0146CC
:102670009BB201AA0248FEF783FA42B070BD000087
:1026800098000020010202030405060708090A0B4E
:102690000C0D0E0F101000000000000000000102E1
:1026A00003040607080900000000010203040000FB
:1026B000000000000000000000000000000000001A
:1026C000000000000000000000000000000000000A
:1026D00000000000000C000C000C000C000C000CB2
:1026E000000C000C000C000C000C0000000C000C96
:1026F0000000000000000000001B001B001B001B6E
:10270000001B0000000000000000000000000000AE
:102710000000000000000000000000008019801987
:1027200080198019C07FC07F80190033C07FC07FAF
:1027300000330033003300330000000000000000CD
:10274000001E003F807580650074003C001E00077D
:102750008005806580658075003F001E00040004D0
:1027600000000000007000D840D8C0D880D90073A5
:102770000006000C801BC036C066C046C006800341
:102780000000000000000000001E003F0033003386
:102790000033001E000CC03CC06680638061806313
:1027A000C03E801C0000000000000000000C000C77
:1027B000000C000C000C00000000000000000000F5
:1027C0000000000000000000000000000000800089
:1027D00000010003000600060004000C000C000CC1
:1027E000000C000C000C00040006000600030001B1
:1027F0008000002000100018000C000C00040006EF
:10280000000600060006000600060004000C000C8E
:102810000018001000200000000C002D003F001EDA
:102820000033000000000000000000000000000075
:102830000000000000000000000000000000000098
:10284000000C000C000C000CC0FFC0FF000C000CC2
:10285000000C000C00000000000000000000000060
:102860000000000000000000000000000000000068
:102870000000000000000000000C000C0004000438
:102880000008000000000000000000000000000040
:1028900000000000001E001E0000000000000000FC
:1028A0000000000000000000000000000000000028
:1028B0000000000000000000000000000000000018
:1028C000000C000C000000000000000000030003EA
:1028D00000030006000600060006000C000C000CB9
:1028E000000C001800180018000000000000000094
:1028F000001E003F0033806180618061806D806DCB
:102900008061806180610033003F001E0000000094
:10291000000000000006000E001E00360026000623
:102920000006000600060006000600060006000677
:102930000000000000000000001E003F8073806166
:102940008061800100030006000C00180030006068
:10295000807F807F0000000000000000001C003E1F
:10296000006300630003000E000E0003800180017D
:1029700080618073003F001E000000000000000026
:102980000006000E000E001E001E00160036003667
:102990000066807F807F00060006000600000000C1
:1029A00000000000007F007F006000600060006E9B
:1029B000007F80638001800180618073003F001E82
:1029C0000000000000000000001E003F8033806116
:1029D0000060006E007F8073806180618061803361
:1029E000003F001E0000000000000000807F807F8C
:1029F00080010003000300060006000C000C000C20
:102A00000008001800180018000000000000000076
:102A1000001E003F8063806180610021001E003F36
:102A20008061806180618061003F001E00000000C5
:102A300000000000001E003F007380618061806123
:102A40008073803F801D800180610073003F001E05
:102A50000000000000000000000000000000000076
:102A6000000C000C0000000000000000000000004E
:102A7000000C000C0000000000000000000000003E
:102A8000000000000000000C000C0000000000002E
:102A900000000000000C000C00040004000800000E
:102AA00000000000000080008003000E003800607D
:102AB0000038000E800380000000000000000000CD
:102AC000000000000000000000000000807F807F08
:102AD00000000000807F807F0000000000000000F8
:102AE00000000000000000000000000000000040A6
:102AF0000070001C000780010007001C00700040EF
:102B0000000000000000000000000000001F803FE7
:102B1000C071C060C000C00180030007000E000C3F
:102B2000000C0000000C000C000000000000000081
:102B3000001E003F803180718063806F806D806DEA
:102B4000806F806700600032003E001C00000000C3
:102B500000000000000E000E001B001B001B001BED
:102B600080318031803F803F8031C060C060C06074
:102B70000000000000000000007C007E0063006395
:102B800000630063007E007E00638061806180637B
:102B9000007F007E0000000000000000001E003FDB
:102BA0008031806100600060006000600060006053
:102BB00080618031003F001E000000000000000026
:102BC000007C007F00638063806180618061806140
:102BD0008061806100630063007E007C0000000073
:102BE00000000000807F807F006000600060006067
:102BF000007F007F0060006000600060807F807F59
:102C00000000000000000000807F807F0060006006
:102C100000600060007F007F006000600060006076
:102C2000006000600000000000000000001E003F87
:102C3000803180610060006000608063806380613B
:102C400080618031803F001E000000000000000015
:102C5000806180618061806180618061807F807F30
:102C6000806180618061806180618061000000001E
:102C700000000000003F003F000C000C000C000CA6
:102C8000000C000C000C000C000C000C003F003F7E
:102C90000000000000000000800180018001800130
:102CA00080018001800180018001806180618073EA
:102CB000003F001E0000000000000000C0608061B6
:102CC000006300660066006C0078007C00660066A9
:102CD000006380618061C0600000000000000000AF
:102CE00000600060006000600060006000600060E4
:102CF0000060006000600060807F807F0000000056
:102D000000000000C071C071C07BC07AC06AC06A98
:102D1000C06EC064C060C060C060C060C060C060A1
:102D200000000000000000008071807180798079CF
:102D30008079806D806D806D806580678067806739
:102D4000806380630000000000000000001E003F60
:102D50000033806180618061806180618061806119
:102D600080610033003F001E0000000000000000F2
:102D7000007E007F80638061806180618063007F6E
:102D8000007E0060006000600060006000000000E5
:102D900000000000001E003F003380618061806100
:102DA000806180618061806580670033803F401E64
:102DB0000000000000000000007E007F8063806152
:102DC00080618063007F007E006600630063806135
:102DD0008061C0600000000000000000000E001FC5
:102DE0008031803100300038001E00078003806190
:102DF00080618031003F001E0000000000000000E4
:102E0000C0FFC0FF000C000C000C000C000C000CFC
:102E1000000C000C000C000C000C000C000000006A
:102E2000000000008061806180618061806180615C
:102E3000806180618061806180618073003F001EDD
:102E40000000000000000000C060C060C060803171
:102E500080318031001B001B001B001B000E000E88
:102E6000000E00040000000000000000C0C0C0C050
:102E7000C0C0C0C0C0C0C0CC804C804C805E8052FE
:102E800080528073806180610000000000000000BB
:102E9000C0C0806080610033003B001E000C000C4D
:102EA000001E001F003B80718061C0C00000000058
:102EB00000000000C0C08061806100330033001E4C
:102EC000001E000C000C000C000C000C000C000C90
:102ED0000000000000000000803F803F80010003F0
:102EE00000030006000C000C001800180030006001
:102EF000807F807F000000000000000F000F000CAA
:102F0000000C000C000C000C000C000C000C000C61
:102F1000000C000C000C000C000C000F000F000057
:102F2000001800180018000C000C000C000C000623
:102F30000006000600060003000300030000000076
:102F40000000001E001E0006000600060006000627
:102F50000006000600060006000600060006000641
:102F60000006001E001E0000000C000C001E0012D7
:102F70000033003380618061000000000000000029
:102F80000000000000000000000000000000000041
:102F90000000000000000000000000000000000031
:102FA00000000000000000000000E0FF0000000042
:102FB00000380018000C00000000000000000000B5
:102FC0000000000000000000000000000000000001
:102FD000000000000000000000000000001F803F13
:102FE00080618001801F803F80618063807FC03866
:102FF0000000000000000000006000600060006051
:10300000006E007F80738061806180618061807369
:10301000007F006E000000000000000000000000C3
:1030200000000000001E003F8073806100600060AF
:1030300080618073003F001E00000000000000005F
:103040008001800180018001801D803F807380614C
:103050008061806180618073803F801D000000007E
:10306000000000000000000000000000001E003F03
:1030700000738061807F807F00608071003F001E50
:103080000000000000000000C007C00F000C000C92
:10309000807F807F000C000C000C000C000C000CEA
:1030A000000C000C00000000000000000000000008
:1030B0000000801D803F807380618061806180613D
:1030C0008073803F801D80018063007F003E000090
:1030D0000060006000600060006F807F8071806130
:1030E000806180618061806180618061000000009A
:1030F000000000000006000600000000003E003E48
:10310000000600060006000600060006000600068F
:103110000000000000000006000600000000003E65
:10312000003E000600060006000600060006000637
:10313000000600060046007E003C000000600060C3
:1031400000600060806100630066006C007C0076B7
:10315000006300638061C0600000000000000000A8
:10316000003E003E000600060006000600060006BF
:10317000000600060006000600060006000000002B
:1031800000000000000000000000000080DDC0FF23
:10319000C0CEC0CCC0CCC0CCC0CCC0CCC0CCC0CCCD
:1031A000000000000000000000000000000000001F
:1031B000006F807F8071806180618061806180614B
:1031C000806180610000000000000000000000003D
:1031D00000000000001E003F8073806180618061FC
:1031E00080618073003F001E0000000000000000AE
:1031F000000000000000006E007F8073806180612D
:10320000806180618073007F006E006000600060FC
:1032100000600000000000000000801D803F8073FF
:1032200080618061806180618073803F801D80014A
:10323000800180018001000000000000000000000B
:103240000067803F0039003000300030003000302F
:10325000003000300000000000000000000000000E
:1032600000000000001E803F80610060007F803F02
:1032700080018061007F001E00000000000000004F
:103280000000000800180018007F007F00180018D8
:103290000018001800180018801F800F00000000A0
:1032A000000000000000000000000000806180615C
:1032B000806180618061806180618063807F803D0A
:1032C00000000000000000000000000000000000FE
:1032D000C060803180318031001B001B001B000E5C
:1032E000000E0006000000000000000000000000CA
:1032F0000000000080DD80DD80DD005500550055B8
:10330000007700770022002200000000000000008B
:103310000000000000000000806100330033001E48
:10332000000C000C001E0033003380610000000020
:10333000000000000000000000008061806180311A
:1033400000330033001B001B001B000E000E000E9C
:10335000001C007C00700000000000000000000065
:10336000C07FC07F800100030006000C0018003001
:10337000C07FC07F000000000000800380070006BF
:103380000006000600060006000E001C001C000ED1
:1033900000060006000600060006800780030006FF
:1033A00000060006000600060006000600060006ED
:1033B00000060006000600060006000600060006DD
:1033C00000060038003C000C000C000C000C000C47
:1033D000000E00070007000E000C000C000C000C93
:1033E000000C003C0038000000000000000000005D
:1033F000000000008038807F0047000000000000CF
:1034000000000000000000000000000000000000BC
:1034100000000000000000000000000000000000AC
:10342000000000000000000000000000000000009C
:103430000000000000000000000000000000E003A9
:10344000E003E003E003E003E003E003E003C00384
:10345000C003C001C001C001C001C00100000000E4
:103460000000E003E003E0030000000000000000B3
:1034700000003C1E3C1E3C1E3C1E3C1E3C1E3C1ED6
:10348000000000000000000000000000000000003C
:10349000000000000000000000000000000000002C
:1034A000000000000000CE01CE03DE039E039C035B
:1034B0009C07FF3FFF7F3807380F780F780F780E93
:1034C000FFFFFFFFF01EF01CE01CE03CE03DE03998
:1034D00000000000000000000000FC03FE0FEE1FD3
:1034E000E01EE01EE01EE01EE01FE00FE007F0031C
:1034F000FC01FE01FE01FE01FE01FE01FE01FE3D9A
:10350000FC3FF00FE001E001000000000000033E7E
:1035100007F78FE78EE79EE3BCE3B8E7F8E7F0F73D
:10352000E03FC001FF03FF07F307F30FF31EF33C77
:10353000F338F3787FF03FE0000000000000000067
:103540000000E007F80F780F781F781F781F780FBA
:10355000F00FE00F801FC37FC3FBE7F3F7F1F7F035
:10356000FFF07FF03EF87F7CFF3FEF1F0000000080
:10357000000000000000E003E003E003E003E003DC
:10358000C003C001000000000000000000000000B7
:10359000000000000000000000000000000000002B
:1035A000000000000000000000003F007C00F0016F
:1035B000E001C003C00780078007800F000F000FE5
:1035C000000F000F000F000F800F80078007C0075B
:1035D000C003E001F0017C003F000F000000007E0E
:1035E000001FC007C003E001F001F000F000F80088
:1035F000780078007800780078007800F800F00013
:10360000F000F001E001C003C007001F007E007859
:103610000000E003C003C001CE39FF3F7F3F20031D
:103620007003F807780F3C1F380600000000000008
:10363000000000000000000000000000000000008A
:10364000000000000000000000000000000000007A
:103650000000C001C001C001C001C001C001C00123
:10366000FFFFFFFFC001C001C001C001C001C001D8
:10367000000000000000000000000000000000004A
:10368000000000000000000000000000000000003A
:10369000000000000000000000000000E003E00364
:1036A000E003E003E001E001E001C001800300006D
:1036B000000000000000000000000000000000000A
:1036C00000000000FE3FFE3F000000000000000080
:1036D00000000000000000000000000000000000EA
:1036E00000000000000000000000000000000000DA
:1036F00000000000000000000000000000000000CA
:1037000000000000E003E003E003E003000000002D
:103710000000000000000F000F001E001E003C0013
:103720003C0078007800F000F000E001E001C00308
:10373000C00380078007000F000F001E001E003C22
:10374000003C0078007800F00000F007F80F7C1FC4
:103750003E3E1E3C1F7C1F7C0F780F780F780F7841
:103760000F780F780F781F7C1F7C1E3C3E3E7C1F1D
:10377000F80FF00700000000000000000000F0005B
:10378000F007F03FF03FF001F001F001F001F0012F
:10379000F001F001F001F001F001F001F001F001A1
:1037A000F001F001FF3FFF3F0000000000000000BB
:1037B0000000E00FF83F7C3C3C003E003E003E0035
:1037C0003C003C007C00F800F001E003C0078007EB
:1037D000000F001E003E003CFE3FFE3F00000000C8
:1037E000000000000000F00FF81F7C1C3E003E00AF
:1037F0003E003C003C00F800F00FF80F7C003E005B
:103800001E001E001E001E003E007C1CF81FE01F54
:10381000000000000000000000007800F800F80040
:10382000F801F803F807F807780F781E781E783C3F
:1038300078787878FFFFFFFF7800780078007800CC
:103840007800780000000000000000000000FC1F6D
:10385000FC1FFC1F001E001E001E001E001EE01F9D
:10386000F81FFC007C003E003E001E003E003E00B3
:103870003C007C1CF81FE01F00000000000000005E
:103880000000FC01FE078E0F001F001E003E003CE2
:10389000003CF83DFC3F3E7F1F7E0F3C0F3C0F3C41
:1038A0000F3C0F3E1F1E3E1FFC0FF00300000000E8
:1038B000000000000000FF3FFF3FFF3F0F001E0021
:1038C0001E003C0038007800F000F000E001E0014C
:1038D000C003C0038007800F800F000F001F001F70
:1038E00000000000000000000000F807FC0F3E1F71
:1038F0001E1E1E3E1E3E1E1E3C1FF80FF007F80F38
:10390000FC1E3E3E1F3C1F7C0F7C0F7C1F3C3E3F3D
:10391000FC1FF00700000000000000000000F0079E
:10392000F80F7C1E3E3C1E3C1F7C1F7C1F7C1F7CB6
:103930001F3C3F3EFF1FEF071F001E001E003E0002
:103940003C00F838F03FE01F0000000000000000DD
:103950000000000000000000000000000000E00384
:10396000E003E003E00300000000000000000000AE
:1039700000000000E003E003E003E00300000000BB
:103980000000000000000000000000000000000037
:103990000000E003E003E003E0030000000000009B
:1039A0000000000000000000E003E003E003E0038B
:1039B000E001E001E001C00380030000000000001E
:1039C00000000000000003000F003F00FC00F003B7
:1039D000C00F003F00FE003FC00FF003FC003F009F
:1039E0000F000300000000000000000000000000C5
:1039F00000000000000000000000000000000000C7
:103A00000000FFFFFFFF000000000000FFFFFFFFBE
:103A100000000000000000000000000000000000A6
:103A2000000000000000000000000000000000E0B6
:103A300000F8007E801FE007F8017E001F007E0076
:103A4000F801E007801F007E00F800E000000000A1
:103A5000000000000000F01FFC3F3E381F381F38F8
:103A60001E001E003C007800F000E001C003C0030F
:103A7000C007C007000000000000C007C007C00763
:103A800000000000000000000000F803FE0F1E1FF1
:103A90000F3E7F3CFF78EF79C773C7F38FF38FF347
:103AA0008FF39FF39FF3FF73FF7BF779003C1C1F9D
:103AB000FC0FF80300000000000000000000000000
:103AC00000000000E003E003F007F007F007780FC4
:103AD000780F7C0E3C1E3C1E3E3CFE3FFF3F1F7895
:103AE0000F780FF007F007F0000000000000000062
:103AF0000000000000000000F83FFC3F3E3C1E3C80
:103B00001E3C1E3C3E3C7C3CF03FF83F7E3C1F3C54
:103B10001F3C0F3C0F3C1F3CFE3FF83F00000000E5
:103B2000000000000000000000000000FF01FF078F
:103B3000871F003E003C007C007800780078007809
:103B40000078007C007C003E003F831FFF07FF01E0
:103B50000000000000000000000000000000000065
:103B6000F07FFC7F7E781F781F780F780F780F78B2
:103B70000F780F780F780F780F781F781E787E787F
:103B8000F87FE07F0000000000000000000000005F
:103B900000000000FF3FFF3F003E003E003E003EB1
:103BA000003E003EFE3FFE3F003E003E003E003E27
:103BB000003E003EFF3FFF3F00000000000000000D
:103BC0000000000000000000FF1FFF1F001E001E7D
:103BD000001E001E001E001EFF1FFF1F001E001EF5
:103BE000001E001E001E001E001E001E0000000021
:103BF000000000000000000000000000FE03FF0FB6
:103C0000871F003E007C007C007800F800F87FF8F9
:103C10007FF80F780F7C0F7C0F3E8F1FFF0FFE0386
:103C20000000000000000000000000000000000094
:103C30001F7C1F7C1F7C1F7C1F7C1F7C1F7C1F7CAC
:103C4000FF7FFF7F1F7C1F7C1F7C1F7C1F7C1F7CD6
:103C50001F7C1F7C0000000000000000000000002E
:103C600000000000FF3FFF3FE003E003E003E0034C
:103C7000E003E003E003E003E003E003E003E0032C
:103C8000E003E003FF3FFF3F0000000000000000F2
:103C90000000000000000000FC1FFC1F7C007C00F6
:103CA0007C007C007C007C007C007C007C007C0034
:103CB0007C0078007800F838F03FC03F000000003A
:103CC0000000000000000000000000001F3C1E3C3F
:103CD0003C3C783CF03CE03DE03FC03F803FC03F93
:103CE000E03FF03DF03C783C7C3C3E3C1F3C0F3CD0
:103CF00000000000000000000000000000000000C4
:103D0000003E003E003E003E003E003E003E003EC3
:103D1000003E003E003E003E003E003E003E003EB3
:103D2000FF3FFF3F00000000000000000000000017
:103D3000000000001FF81FFC1FFC3FFE3FFE3FFE7F
:103D40007FFF77FF77FFF7F7E7F7E7F3E7F3C7F3CF
:103D500007F007F007F007F0000000000000000087
:103D600000000000000000000F7C0F7C0F7E0F7F22
:103D70000F7F8F7F8F7FCF7FEF7BEF79FF79FF788A
:103D8000FF787F783F783F781F781F780000000029
:103D9000000000000000000000000000F007FC1F11
:103DA0003E3E1F7C0F780F780FF80FF80FF80FF8D2
:103DB0000FF80FF80F780F781F7C3E3EFC1FF007BE
:103DC00000000000000000000000000000000000F3
:103DD000FC3FFF3F1F3E0F3E0F3E0F3E0F3E1F3E7C
:103DE0003F3EFC3FF03F003E003E003E003E003EB6
:103DF000003E003E00000000000000000000000047
:103E000000000000F007FC1F3E3E1F7C0F780F787B
:103E10000FF80FF80FF80FF80FF80FF80F780F786A
:103E20001F7C3E3EFC1FF8077C003F000F00030094
:103E30000000000000000000F03FFC3F7E3C3E3CE4
:103E40001E3C1E3C3E3C3C3CFC3CF03FE03FF03D19
:103E5000F83C7C3C3E3C1E3C1F3C0F3C00000000FC
:103E6000000000000000000000000000FC07FE1F32
:103E70000E3E003C003C003C003EC01FF80FFE031D
:103E80007F001F000F000F001F203E3CFC3FF01F73
:103E90000000000000000000000000000000000022
:103EA000FFFFFFFFE003E003E003E003E003E003C4
:103EB000E003E003E003E003E003E003E003E003EA
:103EC000E003E0030000000000000000000000002C
:103ED000000000000F7C0F7C0F7C0F7C0F7C0F7CA0
:103EE0000F7C0F7C0F7C0F7C0F7C0F7C0F7C1E3CAB
:103EF0001E3C3E3EFC1FF0070000000000000000DA
:103F0000000000000000000007F007F007F80F783D
:103F10000F7C1E3C1E3C1E3E3C1E3C1F781F780F33
:103F2000F80FF007F007F007E003E00300000000DF
:103F300000000000000000000000000003E003F0AB
:103F400003F007F0E7F3E7F3E7F3E773F77BF77FB7
:103F5000FF7F7F7F7F7F7E7F7E3F3E3E3E3E3E3EB9
:103F60000000000000000000000000000000000051
:103F700007F80F7C1E3E3E3E3C1FF80FF007E0079F
:103F8000E003E003F007F80F7C0F7C1E3E3C1F7837
:103F90000F780FF00000000000000000000000009B
:103FA0000000000007F807780F7C1E3C1E3E3C1FF7
:103FB000780FF80FF007E003E003E003E003E0030D
:103FC000E003E003E003E003000000000000000065
:103FD0000000000000000000FF7FFF7F0F001F00B7
:103FE0003E007C00F800F000E001E003C007800F15
:103FF000000F001E003E007CFF7FFF7F00000000DE
:10400000000000000000FF0780078007800780078E
:104010008007800780078007800780078007800768
:104020008007800780078007800780078007800758
:1040300080078007FF07FF07000000780078003C3A
:10404000003C001E001E000F000F80078007C00309
:10405000C003E001E001F000F000780078003C00CF
:104060003C001E001E000F000F0007000000F07F44
:10407000F000F000F000F000F000F000F000F000C0
:10408000F000F000F000F000F000F000F000F000B0
:10409000F000F000F000F000F000F000F07FF07FA2
:1040A0000000C000C001C001E003E003F007F0071A
:1040B0007807780F380F3C1E3C1E1E3C1E3C0F3804
:1040C0000F780778000000000000000000000000EA
:1040D00000000000000000000000000000000000E0
:1040E00000000000000000000000000000000000D0
:1040F00000000000000000000000000000000000C0
:10410000FFFFFFFF000000000000F00000000000C3
:10411000000000000000000000000000000000009F
:10412000000000000000000000000000000000008F
:10413000000000000000000000000000000000007F
:1041400000000000000000000000F80FFC3F7C3C75
:104150003E003E003E00FE07FE1F3E3E3E7C3E7897
:104160003E7C7E7CFF3FCF1F00000000000000006F
:104170000000003C003C003C003C003C003CF83DA2
:10418000FE3F3E3F1F3E0F3C0F3C0F3C0F3C0F3CA1
:104190000F3C1F3C1E3C3E3FFC3FF03B000000003C
:1041A000000000000000000000000000000000000F
:1041B0000000FE03FF0F871F003E003E003C007C16
:1041C000007C007C003C003E003E871FFF0FFE038A
:1041D000000000000000000000001F001F001F0082
:1041E0001F001F001F00FF07FF1F3F3E1F3C1F7CDB
:1041F0001F7C1F7C1F781F781F7C1F7C3F3C7F3EED
:10420000FF1FDF0F000000000000000000000000A2
:1042100000000000000000000000F803FC0F3E1F3B
:104220001E3E1F3C1F7CFF7FFF7F007C007C003C0C
:10423000003E071FFF0FFE0300000000000000000B
:104240000000FF01E103C003C007C007C007FF7FF4
:10425000FF7FC007C007C007C007C007C007C0076F
:10426000C007C007C007C007C007C00700000000A4
:10427000000000000000000000000000000000003E
:104280000000EF07FF1F7F3E1F3C1F7C1F7C1F7835
:104290001F781F781F7C1F7C3F3C7F3EFF1FDF0F76
:1042A0001E001E001E007C38F83F003C003C003C15
:1042B000003C003C003CFC3DFE3F9E3F1F3F1F3E3C
:1042C0001F3C1F3C1F3C1F3C1F3C1F3C1F3C1F3C16
:1042D0001F3C1F3C00000000000000000000F00137
:1042E000F0010000000000000000E07FE07FE0013E
:1042F000E001E001E001E001E001E001E001E001B6
:10430000E001E001E001E001000000000000000029
:104310000000F800F8000000000000000000F83F76
:10432000F83FF800F800F800F800F800F800F8008E
:10433000F800F800F800F800F800F800F800F800BD
:10434000F000F071E07F003C003C003C003C003C91
:10435000003C1F3C3E3C7C3CF83CF03DE03DC03F17
:10436000C03FE03FF03DF83C7C3C3E3C1F3C1F3CE6
:1043700000000000000000000000F07FF001F001EC
:10438000F001F001F001F001F001F001F001F001A5
:10439000F001F001F001F001F001F001F001F00195
:1043A000F001F0010000000000000000000000002B
:1043B000000000000000000000009EF7FFFFFFFF6C
:1043C000FFFFE7FBE7F9C7F1C7F1C7F1C7F1C7F195
:1043D000C7F1C7F1C7F1C7F10000000000000000FD
:1043E0000000000000000000000000000000FC3D94
:1043F000FE3F9E3F1F3F1F3E1F3C1F3C1F3C1F3C7C
:104400001F3C1F3C1F3C1F3C1F3C1F3C000000008A
:10441000000000000000000000000000000000009C
:104420000000F007FC1F3E3E1F3C1F7C0F780F78FA
:104430000F780F780F781F7C1F3C3E3EFC1FF00763
:10444000000000000000000000000000000000006C
:10445000000000000000F83DFE3F3E3F1F3E0F3CC5
:104460000F3C0F3C0F3C0F3C0F3C1F3C1E3E3E3FA1
:10447000FC3FF83F003C003C003C003C003C00009E
:1044800000000000000000000000EE07FE1F7E3E5E
:104490001E3C1E7C1E781E781E781E781E781E7CA0
:1044A0003E7C7E3EFE1FDE0F1E001E001E001E0014
:1044B0001E000000000000000000000000007F1F40
:1044C000FF1FE71FC71F871F001F001F001F001FC0
:1044D000001F001F001F001F001F001F0000000022
:1044E00000000000000000000000000000000000CC
:1044F0000000FC07FE1F0E1E003E003E003FE01FB6
:10450000FC07FE003E001E001E003E3CFC3FF01F6C
:10451000000000000000000000000000000000009B
:10452000800780078007FF7FFF7F80078007800765
:104530008007800780078007800780078007C00703
:10454000FF03FF0100000000000000000000000069
:10455000000000000000000000001E3C1E3C1E3C4D
:104560001E3C1E3C1E3C1E3C1E3C1E3C1E3C3E3C5B
:104570007E3CFE3EFE1FDE0F00000000000000003B
:10458000000000000000000000000000000007F034
:104590000F780F781E3C1E3C1E3E3C1E3C1E780FC2
:1045A000780FF00FF007F007E003E00300000000D1
:1045B00000000000000000000000000000000000FB
:1045C000000003F0E3F1E3F3E7F3F7F3F7F3F77F2A
:1045D000777F7F7F7F7F7F7F3E3E3E3E3E3E3E3EFB
:1045E00000000000000000000000000000000000CB
:1045F0000000000000000F7C1E3E3C3E3C1FF80FF8
:10460000F007F007E003F007F807F80F7C1E3E3EC6
:104610001F3C1F78000000000000000000000000A8
:104620000000000000000000000007F80F780F7C79
:104630001E3C1E3C3C1E3C1E3C1F780FF80FF00732
:10464000F007E003E003C003C003C0038007800F4E
:10465000007F000000000000000000000000FF3F9D
:10466000FF3F1F003E007C00F800F001E003C007A0
:10467000800F001F001E003CFF7FFF7F0000000036
:10468000000000000000FE01E003C003C003C003FF
:10469000C003E001E001E001C001C003803F803FB2
:1046A000C003C001E001E001E001C003C003C0039A
:1046B000C003E003FE017E000000C001C001C00194
:1046C000C001C001C001C001C001C001C001C001E2
:1046D000C001C001C001C001C001C001C001C001D2
:1046E000C001C001C001C001C001C0010000C03F45
:1046F000E003E001E001E001E001C001C003C0030C
:10470000C001E001FE00FE00E001C001C003C003E3
:10471000C001E001E001E001E001E003C03F003F33
:104720000000000000000000000000000000000089
:104730000000000000000000073FC77FE773FFF1A3
:104740007EF00000000000000000000000000000FB
:104750000000000000000000784700080000002072
:1047600044000000EA240008BC4700084400002080
:104770004C090000FA2400080100000010000000AD
:10478000000000000024F400000000000000000011
:104790000000000000000000000000000000000019
:1047A000000000000B120000AE260008101A0000E6
:0C47B0000A3400080000000000000000B7
:0400000508000131BD
:00000001FF
