:020000040800F2
:100000005006002049010008971B00082B19000822
:10001000951B000801040008D92100080000000019
:10002000000000000000000000000000131D000898
:100030000304000800000000111D0008151D000841
:100040006301000863010008630100086301000800
:1000500063010008630100086301000863010008F0
:1000600063010008630100086301000863010008E0
:1000700063010008630100086301000863010008D0
:1000800063010008630100086301000863010008C0
:1000900063010008630100086301000863010008B0
:1000A00063010008630100086301000863010008A0
:1000B0006301000863010008630100086301000890
:1000C0006301000863010008630100086301000880
:1000D00063010008C1210008CD2100086301000868
:1000E0006301000863010008630100086301000860
:1000F0006301000863010008630100086301000850
:10010000630100086301000863010008630100083F
:10011000630100086301000863010008791D0008FD
:10012000630100086301000863010008630100081F
:10013000DFF810D000F052F900480047B52200085F
:10014000AFF300805006002006488047064800476D
:10015000FEE7FEE7FEE7FEE7FEE7FEE7FEE7FEE777
:10016000FEE7FEE7771D000831010008D2B201E08A
:1001700000F8012B491EFBD270470022F6E710B5AC
:1001800013460A4604461946FFF7F0FF204610BD05
:10019000F0B480EA0102D40F4200B2EB410F02D268
:1001A0000246084611464A0042D0C30DDDB2C1F3F3
:1001B000C752AD1A202D35DAC1F3160141F4000201
:1001C00004B15242C5F1200602FA06F12A41104458
:1001D000B3EBD05F23D0C4B1012DA0EBC35009DC39
:1001E000F0BC4FF0004202EAC352DBB200F500005F
:1001F00000F0C6B8400000F1807000EBC350A0F1E1
:10020000807040EAD170490009E0490841EAC071B4
:10021000A0EBC35000F50000400800EBC350F0BC59
:1002200000F0A5B86142012202EB4101001BF6E794
:10023000F0BC704781F00041AAE780F00040A7E7DA
:1002400080EA010210B502F00043400022D04A00CB
:100250001FD0010E01EB1261C0F35600C2F356022B
:1002600040F4000042F40002A0FB022000047F39A9
:10027000140400D0401C50EA124001D44000491E32
:10028000C2B20C0604EBD010401C4008802A02D0F9
:1002900003E0002010BD20F00100002900DA00205A
:1002A000184310BD30B480EA010202F0004530F07E
:1002B000004221F0004013D090B1C30DD40DC2F321
:1002C0001601C0F31600E41A41F4000140F40002E4
:1002D0007D34914201D3641C00E04900002C02DA15
:1002E00030BC002070474FF400000023914201D33E
:1002F000891A034340084FEA4101F7D151B19142B5
:1003000002D14FF0004105E002D24FF0010101E0BF
:100310006FF0010103EBC450284430BC00F027B853
:10032000C10F80EAE0700844CA079623002100F05C
:1003300027B896230022114600F022B800F00042B0
:1003400020F00040C10DC0F3160040F400007F29EA
:1003500001DA00207047962903DCC1F19601C840FC
:1003600001E096398840002AF4D0404270470029C5
:10037000A8BF7047401C490008BF20F0010070472B
:1003800010B4B0FA80FC00FA0CF050EA010404BF8B
:1003900010BC704749B1CCF1200421FA04F411FAE1
:1003A0000CF118BF012121430843A3EB0C01CB1D25
:1003B0004FEA00614FEA102042BF002010BC704796
:1003C00000EBC35010440029A4BF10BC7047401C70
:1003D000490008BF20F0010010BC7047064C074DD3
:1003E00006E0E06840F0010394E807009847103405
:1003F000AC42F6D3FFF7A0FEE0230008002400087B
:10040000FEE7704772B6FEE710B590F821100022A3
:10041000022905D00421816380F82020012010BD2D
:1004200001680B6823F00E030B6001680B6823F072
:1004300001030B6090F84030C46B012101FA03F313
:10044000636080F8211080F82020104610BD000065
:100450002DE9F05F90F821100024022903D0042137
:100460008163012485E001680A6822F00E020A60B7
:1004700001680A6822F001020A603F4E3E4FB21541
:10048000DFF8F4C0DFF8F090DFF8ECA0DFF8E8B0B8
:10049000DFF8E4E00168783F13011502ACF1640C69
:1004A000A9F15009AAF13C0AABF1280BAEF1140EE8
:1004B0004FF48018B14227D9B9420ED0614512D00D
:1004C00049451DD0514518D0594518D0714501D125
:1004D000424615E0294EB14201D1012210E0274EDB
:1004E0001436B14201D110220AE0244E2836B1421E
:1004F00006D0224A3C32914201D11A4600E02A46F7
:100500001E49091F0A602BE0B94213D0614517D07C
:10051000494522D051451DD059451DD0714501D1C5
:1005200042461AE0B14202D14FF0807215E0134EFC
:10053000B14201D1012210E0104E1436B14201D176
:1005400010220AE00D4E2836B14206D00B4A3C324A
:10055000914201D11A4600E02A46074980394A6093
:10056000012180F82110002180F82010416B01B199
:1005700088472046BDE8F09F800002400804024002
:100580002DE9F84FDFF8C8910024A9F1040B2346A8
:100590000F2709F1040AABF1040ED1E00125A540B3
:1005A00006EA0502AA4276D1DFF8A8C14E68A6EB9A
:1005B0000C0866452BD00DDC032E34D005DC36B399
:1005C000012E19D0022E2FD11BE0112E16D0122E83
:1005D0002AD119E0B8F5881F19D006DCB8F5803F9C
:1005E00015D0B8F5801F1FD111E0B8F5001F0ED04F
:1005F000B8F5041F18D10AE0CB6815E0CB681B1DC5
:1006000012E0CB6808330FE0CB680C330CE08B684A
:100610002BB1012B4FF0080303D0456104E0042304
:1006200002E0056100E00023FF2A01D8064601E050
:1006300000F104064FEA840501D9A5F12005D6F89A
:10064000008007FA05FC28EA0C0803FA05F548EAD9
:100650000508C6F800804D68ED0070D53E4DAE69C6
:1006600046F00106AE61AD6924F0030605F0010510
:1006700000953A4D06EB050CDCF80850A607360F3E
:1006800007FA06F825EA0805DFF8D480404503D1CB
:100690004FF0000825E052E0DFF8C880404502D165
:1006A0004FF001081DE0DFF8C080404502D14FF057
:1006B000020816E0DFF8B480404502D14FF003088D
:1006C0000FE0DFF8AC80404502D14FF0040808E0AD
:1006D000DFF8A080404502D14FF0050801E04FF05F
:1006E000060808FA06F848EA0508CCF808804D68BC
:1006F000D9F80060ED024D4601D5164300E096435F
:100700002E604D68DAF80060AD02554601D51643FB
:1007100000E096432E604D68DBF80060AD035D4657
:1007200001D5164300E096432E604D68DEF8006068
:10073000ED03754601D5164300E096432E60641C18
:100740000A681646E2407FF429AFBDE8F88F000042
:100750000804014000001110001002400000014098
:1007600000080140000C014000100140001401404D
:1007700000180140001C01408068084000D00120A2
:100780007047C26821EA02030A4043EA024101615C
:1007900070470AB1016170470904FBE701488068AE
:1007A000704700000400002002488168027811446C
:1007B0008160704704000020074810B5016841F0CF
:1007C00010010160032000F079F8032000F006F822
:1007D00000F024F8002010BD0020024070B50D4D3F
:1007E00004464FF47A712878B1FBF0F00A490968A1
:1007F000B1FBF0F000F0E0FA48B9102C07D200226B
:100800002146501E00F03AF800206C6070BD0120B7
:1008100070BD000004000020100000200E4808B544
:10082000816941F001018161816901F0010100915B
:10083000C16941F08051C161C06900F080500090F1
:10084000052000F03BF80548416821F0E06141F0E7
:100850000071416008BD000000100240000001402E
:10086000002809DB00F01F020121914040098000AF
:1008700000F1E020C0F8001170470000F0B40E4B0A
:100880001B680C46C3F30223C3F10705042D00D9EE
:100890000425191D072901D2002300E0DB1E0126D3
:1008A00006FA05F1491E214099409E40761E1640E9
:1008B0003143F0BC01F091BC0CED00E0064900F0C2
:1008C000070208684FF6FF03184040EA0220034A77
:1008D00010430860704700000CED00E00000FA05CE
:1008E0002DE9F0470F46050061D0434E306800F017
:1008F0000700B84209D2306820F007003843306062
:10090000306800F00700B84251D128683B4C81079D
:1009100012D5400703D5606840F4E0606060287835
:10092000000703D5606840F4605060606068A968A3
:1009300020F0F000084360602878C00728D068687D
:10094000012810D02168022810D0890700292EDA4A
:10095000616821F0030101436160FFF71FFF8046DA
:1009600041F288390DE021688903EFE78901EDE75D
:10097000FFF714FFA0EB0801494502D90320BDE8A9
:10098000F0876068696800F00C00B0EB810FEFD170
:10099000306800F00700B8420BD9306820F007003B
:1009A00038433060306800F00700B84201D00120C1
:1009B000E5E72878400705D56068E96820F4E0603D
:1009C000084360602878000706D56068296920F42C
:1009D000605040EAC100606000F038F86168084A81
:1009E000C1F30311515CC84006490860064800681D
:1009F000FFF7F4FE0020C2E7002002400010024092
:100A0000C623000810000020080000200448054903
:100A100000684968044AC1F30221515CC84070472C
:100A20001000002000100240D623000804480549A9
:100A300000684968044AC1F3C221515CC84070474C
:100A40001000002000100240D62300080E4A516812
:100A50000E4801F00C03042B11D0082B0FD10C48C9
:100A6000C1F38343C903C05C0AD55168084AC1F386
:100A70004041921E515C054A5043B0FBF1F0704773
:100A800004494843704700000010024000127A00F9
:100A9000B623000800093D002DE9F84F040070D08E
:100AA0002078C04DC00749D06868C0F38100012894
:100AB00007D06868C0F38100022809D16868C003C4
:100AC00006D52868800339D560680028E7D035E06E
:100AD0006068B0F5803F0BD010B1B0F5A02F11D0F9
:100AE000286820F480302860286820F4802002E004
:100AF000286840F480302860606890B1FFF74EFEAF
:100B000006460AE0286840F480202860F0E700BF2D
:100B1000FFF744FE801B642873D828688003F7D54C
:100B20000CE0FFF73BFE064605E000BFFFF736FE90
:100B3000801B6428F0D828688003F7D420789A4E68
:100B400080074FF001094FF0000839D5686810F0B0
:100B50000C0F07D06868C0F38100022809D16868CB
:100B6000C00306D42868800714D52069012808D15D
:100B700010E02069B0B1C6F80090FFF70FFE0746FD
:100B800005E00AE1FFF70AFEC01B0228C4D8286866
:100B90008007F7D52868616920F0F80040EAC100B5
:100BA00028600DE0C6F80080FFF7F8FD074604E076
:100BB000FFF7F4FDC01B022823D828688007F7D46C
:100BC000207800072CD57948A169D9B1C0F80090E8
:100BD000FFF7E4FD074604E0FFF7E0FDC01B022835
:100BE0000FD8686A8007F7D571484FF4FA5100684A
:100BF000B0FBF1F0009000BF0098411E0091FAD2C6
:100C00000EE080E0C0F80080FFF7C8FD074604E072
:100C1000FFF7C4FDC01B022875D8686A8007F7D4A7
:100C20002078400760D5E8690027C00008D4E8694B
:100C300040F08050E861E869012700F080500090A2
:100C40005C480168C90513D40168834641F480718A
:100C50000160FFF7A3FD824606E000BFFFF79EFD9F
:100C6000A0EB0A0064284ED8DBF80000C005F5D5DB
:100C7000E06801280AD008B1052813D0286A20F0BE
:100C800001002862286A20F0040002E0286A40F08F
:100C900001002862E06841F2883B98B1FFF77EFDD1
:100CA00082460BE0286A40F004002862EEE700BFAD
:100CB000FFF774FDA0EB0A0159455AD8286A80074E
:100CC000F6D50CE0FFF76AFD824605E0FFF766FD0A
:100CD000A0EB0A0159454CD8286A8007F6D41FB109
:100CE000E86920F08050E861E06988B36968C1F381
:100CF0008101022944D00228C6F8608004D0FFF7A1
:100D00004DFD044638E034E0FFF748FD074604E0B7
:100D1000FFF744FDC01B02282BD828688001F7D4B8
:100D2000206AB0F5803F05D16868A16820F40030E2
:100D300008436860D4E908010843696821F4741124
:100D400008436860C6F86090FFF728FD044606E097
:100D500025E000BFFFF722FD001B022809D8286804
:100D60008001F7D51BE000BFFFF718FD001B02282C
:100D700002D90320BDE8F88F28688001F4D40EE082
:100D80000128F7D06868226A00F48031914204D1CA
:100D9000616A00F47010884201D00120EAE7002067
:100DA000E8E7000000100240000042428004424296
:100DB000100000200070004010B5401EB0F1807F90
:100DC00001D3012010BD4FF0E02460610F216017B6
:100DD00001F003FA0020A06107202061002010BD6F
:100DE0007047704710B590F83C20012A22D00122AC
:100DF00080F83C20CA688C6822F4407222434C6818
:100E000022F4806222430C6822F4006222430C69BF
:100E100022F4805222434C6922F400522243C969D1
:100E2000002322F480420A4301684A6480F83C307F
:100E3000002010BD022010BD70B590F83C20012AA2
:100E40002CD0012480F83C40022280F83D20036829
:100E50005A689D6822F070060A6832435A60104B47
:100E600002689A420ED00F4B9A420BD0B2F1804FDB
:100E700008D00D4B9A4205D00C4B9A4202D00C4B35
:100E80009A4204D1496825F080031943916080F8A3
:100E90003D40002180F83C10084670BD022070BD26
:100EA000002C0140003401400004004000080040D4
:100EB000000C004010B5040003D094F83D0010B1C0
:100EC00007E0012010BD002084F83C00204600F01F
:100ED0001FF8022084F83D00211D206800F052FF19
:100EE000012084F8460084F83E0084F83F0084F82E
:100EF000400084F8410084F8420084F8430084F8FC
:100F0000440084F8450084F83D00002010BD000036
:100F100008B500680B49884212D10B48C16941F0FD
:100F20002001C161C069002200F020000090022170
:100F30003720FFF7A3FCBDE808403720FFF790BC3F
:100F400008BD0000001400400010024090F83D1061
:100F5000012901D001207047022180F83D1001686D
:100F6000CA6842F00102CA6000680E4988420ED089
:100F70000D4988420BD0B0F1804F08D00B49884210
:100F800005D00B49884202D00A49884204D18168C1
:100F900001F00701062903D0016841F00101016059
:100FA00000207047002C0140003401400004004044
:100FB00000080040000C0040704770B5044600680F
:100FC00001694FF00005C943890715D4C168C943B9
:100FD000890711D4E91E016101202077206880690A
:100FE0008007204602D0FFF7E7FF04E000F0E2F8B8
:100FF000204600F093F9257720680169C943490725
:1010000017D4C168C943490713D46FF004010161C3
:10101000022020772068806910F4407F204602D0AB
:10102000FFF7CAFF04E000F0C5F8204600F076F9AB
:10103000257720680169C943090716D4C168C943E7
:10104000090712D46FF0080101610420207720689D
:10105000C0698007204602D0FFF7AEFF04E000F031
:10106000A9F8204600F05AF9257720680169C9439C
:10107000C90617D4C168C943C90613D46FF010015B
:101080000161082020772068C06910F4407F204665
:1010900002D0FFF791FF04E000F08CF8204600F04A
:1010A0003DF9257720680169C943C90708D1C1689E
:1010B000C943C90704D1891E0161204600F0C8F95F
:1010C00020680169C943090609D4C168C9430906F2
:1010D00005D46FF0800101612046FFF781FE206892
:1010E0000169C943490609D4C168C943490605D401
:1010F0006FF040010161204600F00AFA20680169A2
:10110000C94389060BD4C168C943890607D46FF067
:10111000200101612046BDE87040FFF762BE70BD4E
:1011200000B585B0002100910191029103911B4B04
:1011300002681B4802219A421BD1826942F0400298
:1011400082618069039100F0400004904FF42060B8
:10115000CDE9000169461348FFF712FA12484168C9
:1011600021F0C00141F0E06141F0C001416005B0F3
:1011700000BD0E4B9A42FAD1826942F008028261A8
:101180008069039100F0080004909815CDE90001F2
:1011900069460748FFF7F4F9E9E70000002C014031
:1011A000001002400018014000000140000800400B
:1011B000000C0140704770B5044690F83C000026D2
:1011C0000D4601280FD0012084F83C006AB1042AA2
:1011D0001DD0082A2FD00C2A3FD00126002084F8E9
:1011E0003C00304670BD022070BD206800F01EFE3D
:1011F0002068816941F0080181612068816921F0DE
:1012000004018161206881692A69114311E0206825
:1012100000F03CFE2068816941F400618161206832
:10122000816921F480618161206881692A6941EACC
:1012300002218161D2E7206800F05EFE2068C1696A
:1012400041F00801C1612068C16921F00401C16158
:101250002068C1692A69114311E0206800F080FE0E
:101260002068C16941F40061C1612068C16921F44D
:101270008061C1612068C1692A6941EA0221C161B6
:10128000ACE710B5040003D094F83D0010B107E0BE
:10129000012010BD002084F83C00204600F01EF81C
:1012A000022084F83D00211D206800F06BFD012024
:1012B00084F8460084F83E0084F83F0084F840003B
:1012C00084F8410084F8420084F8430084F8440024
:1012D00084F8450084F83D00002010BD08B50C4A94
:1012E00001680C48914207D1816941F40061816134
:1012F000806900F4006009E0074A914207D1C169A2
:1013000041F00401C161C06900F00400009008BD13
:10131000002C01400010024000080040704700000F
:1013200010B50446022249B104290ED0082913D071
:1013300094F84100012816D0012010BD94F83E0019
:101340000128F9D184F83E200FE094F83F000128ED
:10135000F2D184F83F2008E094F840000128EBD156
:1013600084F8402001E084F841200122206800F048
:101370004FFD13492068134A884201D0904203D19F
:10138000436C43F400434364206888420DD090428C
:101390000BD0B0F1804F08D00B49884205D00B49E3
:1013A000884202D00A49884204D1816801F00701CD
:1013B000062903D0016841F001010160002010BD41
:1013C000002C0140003401400004004000080040AF
:1013D000000C004030B504460D460068002200F0C5
:1013E00017FD194B41F2111120688A10984202D062
:1013F000164B984209D1036A0B4206D1036A134285
:1014000003D1436C23F4004343642068036A0B4216
:1014100006D1016A114203D1016821F00101016086
:1014200001203DB1042D08D0082D09D084F84100D9
:10143000002030BD84F83E00FAE784F83F00F7E76B
:1014400084F84000F4E70000002C01400034014023
:1014500070B52849884238D1274C2078C8B900F0A7
:10146000E5FE6169FEF794FE606100F0D5FEA169BA
:10147000FEF78EFEA061606900F07CFF6060A069ED
:1014800000F058FF1D49A06062680B685A63096844
:1014900088631B4A20691B4D90421FDA1A4B984201
:1014A0001CD2E168914219DA994217D210F0FF4F2D
:1014B00014D011F0FF4F11D008211448FFF730FF6E
:1014C000E069042802DA401CE06170BD0020E061A0
:1014D0002846BDE870402021FFF753B908210B488A
:1014E000FFF778FF2846BDE8704001222021FFF772
:1014F00050B90000C800002014000020380000206F
:1015000000007041000C0140000070C1800000200C
:101510007047704770470000F8B5016804460868D6
:10152000CA684B6910F00F0F4FF0000559D003F057
:10153000010602F49077374365D0C10705D0D10585
:1015400003D5616C41F001016164410705D5D907FC
:1015500003D0616C41F002016164810705D5D907B0
:1015600003D0616C41F004016164010707D502F00A
:101570002001314303D0616C41F008016164616C6A
:1015800000293AD0800604D5900602D5204600F006
:101590003EFD20684069616CC0F38010090700D4EB
:1015A00060B3204600F00CFD20684069400621D55C
:1015B0002068143050E8001F21F0400140E800127C
:1015C000002AF5D1E06BA8B16D494163E06BFEF7ED
:1015D0003FFF002811D0E06B416B01B0BDE8F04047
:1015E000084783060FD593060DD52046BDE8F84081
:1015F00000F00DBD2046FFF78DFFF8BD2046FFF738
:1016000089FF6564F8BD266B2023012E7CD1C606B8
:101610007AD5D60678D508684868009048694FF0B2
:101620000206400640D5E16B086840680004000CE3
:10163000E8D0A28D8242E5D9E085886920282DD0A6
:1016400020680C3050E8001F21F4807140E800123F
:10165000002AF5D12068143050E8001F21F0010164
:1016600040E80012002AF5D12068143050E8001F2D
:1016700021F0400140E80012002AF5D184F8423000
:10168000256320680C3050E8001F21F0100140E86D
:101690000012002AF5D1E06BFEF7B6FE6663A08D5E
:1016A000E18D401A81B22AE0A08DE18D401A81B20D
:1016B000E08D0028A6D00029A4D022680C3252E880
:1016C000000F20F4907042E80007002FF5D1206849
:1016D000143050E8002F22F0010240E80027002FCC
:1016E000F5D184F84230256320680C3050E8002F93
:1016F00022F0100240E80023002BF5D1666320465B
:10170000FFF707FFF8BDFFE705062BD5150629D51E
:1017100094F841002128F5D1A068B0F5805F01D18F
:101720002069B0B1206A411C2162216800784860BC
:10173000E08C401E0004000CE084E3D12068C16806
:1017400021F08001C1602068C16841F04001C160A2
:10175000D8E7206A0088C0F308004860206A801C2F
:101760002062E5E74006CDD55006CBD5CA682046B5
:1017700022F04002CA6084F8413000F0D5F8C1E799
:10178000B11F000870B5040004D094F84100002592
:1017900010B106E0012070BD84F84050204600F0F2
:1017A00023F8242084F841002068C16821F4005106
:1017B000C160204600F08CFC2068016921F4904152
:1017C00001612068416921F02A0141612068C168F6
:1017D00041F40051C1606564202084F8410084F820
:1017E00042006563002070BD70B586B0002400948F
:1017F0000194029403942E4E03682E490220032282
:101800002D4DB34226D18B6943F480438B618B69A4
:1018100003F4804304938B6943F004038B6189696B
:10182000039201F0040104910102CDE90010694620
:101830002846FEF7A5FE2815CDE90004694628468E
:101840000294FEF79DFE022211462520FFF716F8AE
:10185000252028E0194EB34227D1CB6943F4003349
:10186000CB61CB6903F4003304938B6943F0040329
:101870008B618969039201F0040104910421CDE98F
:10188000001069462846FEF77BFE0820CDE90004DB
:10189000694628460294FEF773FE022200212620A4
:1018A000FEF7ECFF2620FEF7DBFF06B070BD000060
:1018B0000038014000100240000801400044004090
:1018C00090F84230202B01D00220704721B11AB18C
:1018D0000023036300F058BC0120704710B5044694
:1018E00000680C49884204D101220B490B48FFF7DC
:1018F000E7FF0B49206888420BD10748407800F089
:101900004BF905490122BDE81040491C0548FFF785
:10191000D7BF10BD0038014000000020100100209A
:1019200000440040580100207047FEE7F0B585B044
:1019300000241C480094019402940394816941F0AE
:1019400040018161816901F040010491816941F0A8
:1019500004018161816901F004010491816941F010
:10196000080181618069104F00F0080048F22006EC
:101970000490012231463846FEF70BFF182001255E
:101980008DE8310069460948FEF7FAFD0220CDE9ED
:101990000240CDE9006569463846FEF7F1FD05B025
:1019A000F0BD000000100240000C01400018014092
:1019B00010B592B000240F941C2168461094FEF7D5
:1019C000DCFB202107A8FEF7D8FB2648244901604C
:1019D0004721C0E9011444F62061C0E903148021C5
:1019E000C0E90541FFF74DFC08B1FEF70BFD0F9470
:1019F0000FA91C481094FFF71FFA08B1FEF702FD6B
:101A00006020009040F2DC50CDE90104039404947E
:101A100005940022694613480694FFF7CCFB08B1F1
:101A2000FEF7F0FC042269460E48FFF7C4FB08B13C
:101A3000FEF7E8FC0794089409944FF400500A94C8
:101A4000CDE90B4007A907480E94FFF7CBF908B181
:101A5000FEF7D8FC0348FFF763FB12B010BD00008F
:101A6000002C01403800002010B58AB000240794F3
:101A70001C2168460894FEF780FB1848164901604F
:101A80004721C0E9011440F2E731C0E90314802185
:101A90008161FFF7F6FB08B1FEF7B4FC079407A9D4
:101AA0000E480894FFF7C8F908B1FEF7ABFC6020B8
:101AB00000904FF4FA70CDE9010408226946074806
:101AC0000494FFF778FB08B1FEF79CFC0348FFF78E
:101AD00027FB0AB010BD0000000800408000002075
:101AE0001CB500240E4800940C490194016041F695
:101AF0001F41C0E90114C7218461C160FFF7DAF911
:101B000008B1FEF77FFC0094694605480194FFF791
:101B100093F9002801D0FEF775FC1CBD00140040AD
:101B2000C80000200C4810B50A4901604FF4E131AB
:101B30004160002181600C22C160C0E90412816112
:101B4000C161FFF71FFE002803D0BDE81040FEF77B
:101B500059BC10BD00380140100100200C4810B5E0
:101B60000A4901604FF4E1314160002181600C229B
:101B7000C160C0E904128161C161FFF703FE002862
:101B800003D0BDE81040FEF73DBC10BD004400404E
:101B900058010020FEE7FEE72DE9F0413749012614
:101BA0000A464F7815786A1CD4B2354A002337B1FB
:101BB000012F08D0022F17D0032F44D005E02C2886
:101BC00003D14E700DE0122809D04B700B7000202D
:101BD0001354401CC0B20A28FAD3BDE8F081022396
:101BE0004B7050550C70F8E750550C700A2C01D210
:101BF0005B28F2D103201519487015F8050C4FF039
:101C0000FF34012800D02046FEF78AFB064615F86F
:101C1000040CFEF78EFB3146FEF712FB19490860F3
:101C200015F8030C012800D101242046FEF778FBAB
:101C3000044615F8020CFEF77CFB2146FEF700FB7C
:101C400011490860C9E7541914F8014C5B2C11D0F4
:101C50004B700B7000241355641CE4B20A2CFAD3A9
:101C6000002BBAD12C28B8D14E700B78D0545B1C05
:101C70000B70B2E70B704B70F4E7000034000020EB
:101C8000A0010020240000202000002070B51B4986
:101C900000201C4B086048608860C860C1E90630BD
:101CA000174AC1E904204039174DC1E90050886046
:101CB000C8604FF080440C614FF07C56C861C1E9A8
:101CC00005606031086048608860C860C1E906301E
:101CD000C1E9042040390D4AC1E900508860C8605C
:101CE0000C61C861C1E905606031086048608860C6
:101CF000C860C861C1E90420886170BDEC010020A2
:101D00006F12033C8FC2753C0000704200007041AE
:101D100070477047FEF748BD30B58FB02821684640
:101D2000FEF72BFA14210AA8FEF727FA012108046E
:101D3000CDE900100024029402250491CDE907505A
:101D40004FF4E01009906846FEF7A6FE08B172B69F
:101D5000FEE70F20CDE90A054FF48060CDE90C4085
:101D600002210AA80E94FEF7BBFD002801D072B62E
:101D7000FEE70FB030BD70470148FFF71EB9000005
:101D8000C8000020F0B502681C4B1D4D1D4E1E4FB3
:101D90001E4C4FF0804C984209D0A04207D06045BD
:101DA00005D0A84203D0B04201D0B84204D122F0FD
:101DB000700E4A6842EA0E02984209D0A04207D04B
:101DC000604505D0A84203D0B04201D0B84203D14B
:101DD00022F44075CA682A434D6922F080022A43E2
:101DE00002608A68C2620A688262984201D0A04298
:101DF00001D10969016301214161F0BD002C01405D
:101E00000004004000080040000C00400034014085
:101E100010B501F01F030121046A99408C4304624C
:101E2000016A9A401143016210BD0000F0B5036AD7
:101E3000026A22F00102026242688469124E24F0B2
:101E400073050C682C4323F002058B682B430D4D62
:101E5000A84201D0B04205D123F00807CB683B432C
:101E600023F00403A84201D0B04205D14D6922F409
:101E7000407215438A692A4342608461496841631C
:101E80000362F0BD002C014000340140F0B5026A4D
:101E9000036A23F010030362436884690D6824F425
:101EA000E64444EA05248D6822F0200242EA051245
:101EB0000F4D104EA84201D0B04206D1CF6822F09B
:101EC000800242EA071222F04002A84201D0B0424A
:101ED00007D14D6923F4406343EA85038D6943EAE2
:101EE000850343608461496881630262F0BD00003C
:101EF000002C014000340140F0B5026A036A23F46B
:101F0000807303624368C46922F4007224F073058D
:101F10000C68124E2C438D6842EA05220E4DA842F1
:101F200001D0B04206D1CF6822F4006242EA072213
:101F300022F48062A84201D0B04207D14D6923F457
:101F4000405343EA05138D6943EA05134360C461B6
:101F50004968C1630262F0BD002C014000340140B9
:101F600030B5046A026A22F4805202624268C36990
:101F70000D6823F4E64343EA05238D6824F40054F6
:101F800044EA0534084DA84202D0084DA84204D1C5
:101F90004D6922F4804242EA85124260C361496879
:101FA0000164046230BD0000002C01400034014097
:101FB00010B5406A0021C185C184FFF7ABFA10BD9E
:101FC00001680C3151E8002F22F4907241E800239F
:101FD000002BF5D10168143151E8002F22F00102E5
:101FE00041E80023002BF5D1016B012909D10168DB
:101FF0000C3151E8002F22F0100241E80023002BA1
:10200000F5D1202180F8421000210163704708B506
:1020100090F84210222901D0022008BD82684FF4B6
:1020200080539A4201D1016921B1816A9A421BD041
:102030004AB10AE00268816A5268C2F308020A8063
:10204000816A891C08E0026972B10268526802F074
:102050007F020A70816A491C8162C18D491E090490
:10206000090CC18503D01BE002685268F1E70168E2
:10207000CA6822F02002CA600168CA6822F480722D
:10208000CA6001684A6922F001024A61202180F891
:10209000421000214163026B012A03D0FFF71EFCAE
:1020A000002008BD016301680C3151E8002F22F0C7
:1020B000100241E80023002BF5D101680A68D2061E
:1020C00002D50A6849680091818DFFF722FAE7E797
:1020D00070B5044600680169E26821F4405111437B
:1020E00001612169A0680843616908432168CA68E1
:1020F00041F20C639A430243CA6020684169A269B5
:1021000021F44071114341611E492068884202D187
:10211000FEF78CFC01E0FEF779FC00EBC00101EB5F
:102120000012606864218000B2FBF0F3B3FBF1F3AE
:102130006FF018067343B2FBF0F5B2FBF0F605EB57
:102140008305322303EB0515B5FBF1F5B6FBF1F67C
:1021500005F0F00505EB0615B2FBF0F6B2FBF0F06A
:10216000B0FBF1F06FF01802504306EB800003EB78
:102170000010B0FBF1F0216800F00F0028448860E7
:1021800070BD00000038014081628285C285002157
:102190004164222180F84210016921B10168CA68B6
:1021A00042F48072CA6001684A6942F001024A61E1
:1021B0000068C16841F02001C16000207047000044
:1021C0000148FFF7A9B90000100100200148FFF7FE
:1021D000A3B9000058010020FEE70907090E0028F6
:1021E00004DB00F1E02080F80014704700F00F00DD
:1021F00000F1E02080F8141D704702E008C8121FAB
:1022000008C1002AFAD170477047002001E001C1DF
:10221000121F002AFBD1704702480169024800F0F2
:102220000FB80000140000200C0200200248C16812
:10223000024800F005B8000014000020EC01002066
:102240002DE9F041044681F00040A060B0F1824FDA
:1022500004DAB0F1414F01D20020A06001460D46E2
:10226000E069FDF795FF1149E061884202DA104903
:10227000884200D9E1612846E168FDF7DBFFA169EA
:10228000FDF7DEFF0646E1696069FDF7D9FF074605
:1022900029462069FDF7D4FF3946FDF779FF31461D
:1022A000FDF776FFE5606060BDE8F08100007A44EC
:1022B00000007AC4FEF780FAFFF72EFDFFF736FB29
:1022C000FFF776FBFFF7D0FBFFF72CFCFFF746FC90
:1022D000FFF706FC00211148FFF722F804210F4800
:1022E000FFF71EF801220E490E48FFF7E9FA0E48E3
:1022F000FEF72CFEFFF7CAFC01270C4D0C4C002604
:1023000008212846FEF738FA00B927701021284620
:10231000FEF732FA0028F3D12670F1E738000020EA
:102320000100002058010020C800002000180140D2
:10233000140000200A4910B5884202DC094988428D
:1023400000D908460849FDF77BFF0849FDF7AAFFB9
:102350000749FDF71DFFBDE81040FDF7EFBF000086
:102360000000A0420000A0C20000FA44000034C3F4
:102370000080BB440A4910B5884202DC0949884202
:1023800000D908460849FDF75BFF0849FDF78AFFB9
:102390000749FDF7FDFEBDE81040FDF7CFBF000087
:1023A0000000A0420000A0C20000FA44000034C3B4
:1023B0000080BB44010202030405060708090A0B5A
:1023C0000C0D0E0F101000000000000000000102B4
:1023D00003040607080900000000010203040000CE
:1023E000002400080000002038000000FA21000846
:1023F0003824000838000020180600000A220008CF
:1024000000000000010000001000000000000000BB
:102410000024F40001000000DC050000B00400000E
:102420000000000000000000000020C1000070C19A
:082430000000000000000000A4
:0400000508000131BD
:00000001FF
