:020000040800F2
:100000003007002049010008E71D0008411B0008D7
:10001000E51D000887060008912400080000000084
:10002000000000000000000000000000271F000882
:100030008906000800000000251F0008291F00088D
:100040006301000863010008630100086301000800
:1000500063010008630100086301000863010008F0
:1000600063010008630100086301000863010008E0
:1000700063010008630100086301000863010008D0
:1000800063010008630100086301000863010008C0
:1000900063010008630100086301000863010008B0
:1000A00063010008630100086301000863010008A0
:1000B0006301000863010008630100086301000890
:1000C0006301000863010008630100086301000880
:1000D000630100084D240008592400086524000825
:1000E0006301000863010008630100086301000860
:1000F0006301000863010008630100086301000850
:10010000630100086301000863010008630100083F
:100110006301000863010008630100088D1F0008E7
:10012000630100086301000863010008630100081F
:10013000DFF810D000F086FA004800470D260008CE
:10014000AFF300803007002006488047064800478C
:10015000FEE7FEE7FEE7FEE7FEE7FEE7FEE7FEE777
:10016000FEE7FEE78B1F000831010008202A04DBB0
:10017000203A21FA02F00021704721FA02F3D04020
:10018000C2F12002914008431946704740EA01033A
:100190009B0703D009E008C9121F08C0042AFAD23D
:1001A00003E011F8013B00F8013B521EF9D2704701
:1001B000D2B201E000F8012B491EFBD270470022A9
:1001C000F6E710B513460A4604461946FFF7F0FF56
:1001D000204610BDF0B480EA0102D40F4200B2EB19
:1001E000410F02D20246084611464A0042D0C30DD2
:1001F000DDB2C1F3C752AD1A202D35DAC1F31601B5
:1002000041F4000204B15242C5F1200602FA06F19F
:100210002A411044B3EBD05F23D0C4B1012DA0EB31
:10022000C35009DCF0BC4FF0004202EAC352DBB21B
:1002300000F5000000F07BB9400000F1807000EB99
:10024000C350A0F1807040EAD170490009E049082C
:1002500041EAC071A0EBC35000F50000400800EB7C
:10026000C350F0BC00F05AB96142012202EB4101D7
:10027000001BF6E7F0BC704781F00041AAE780F070
:100280000040A7E780EA010210B502F000434000F9
:1002900022D04A001FD0010E01EB1261C0F35600BC
:1002A000C2F3560240F4000042F40002A0FB022018
:1002B00000047F39140400D0401C50EA124001D4DD
:1002C0004000491EC2B20C0604EBD010401C40088E
:1002D000802A02D003E0002010BD20F00100002998
:1002E00000DA0020184310BD30B480EA010202F0A9
:1002F000004530F0004221F0004013D090B1C30D12
:10030000D40DC2F31601C0F31600E41A41F4000143
:1003100040F400027D34914201D3641C00E04900A6
:10032000002C02DA30BC002070474FF4000000239C
:10033000914201D3891A034340084FEA4101F7D1A2
:1003400051B1914202D14FF0004105E002D24FF08D
:10035000010101E06FF0010103EBC450284430BCFF
:1003600000F0DCB82DE9FE4F81EA030404F00044FC
:1003700021F0004100944FF0000B23F0004350EABD
:1003800001045ED052EA03045BD0C3F30A54C1F304
:100390000A552C44A4F2F3340194A0FB0254C1F397
:1003A000130141F48011C3F3130343F4801301FBE1
:1003B000024400FB034E840A970A44EA815447EA48
:1003C0008357A4FB076802958D0A05FB07854FEA52
:1003D000932C04FB0C542705029D4FEA065847EA6C
:1003E0001637B5EB08056EEB070C870E920E47EA41
:1003F000811742EA8312A7FB0201B6EB0B0164EB03
:1004000000042B0D43EA0C335E1844EB1C50DA4613
:100410005146E7FB0201C5F313044FEA0B3343EAED
:1004200014534FEA0432019C43EA0603A4F10C047E
:100430000294009CCDE900B400F0B6F803B0BDE82A
:10044000F08F00200146F9E7C10F80EAE070084410
:10045000CA079623002100F06AB8962300221146AD
:1004600000F065B800F0004220F00040C10DC0F37C
:10047000160040F400007F2901DA00207047962919
:1004800003DCC1F19601C84001E096398840002A9A
:10049000F4D04042704720F00040C10DC0F3160078
:1004A00040F400007F2901DA00207047962903DC20
:1004B000C1F19601C840704796398840704700F0F6
:1004C000004230F000400AD0C10D01F56071C0F368
:1004D000160042EA0151C20840071143704700204C
:1004E0000146704701F0004330B421F0004150EA6A
:1004F000010206D00A0DA2F56072C1F31301002AB1
:1005000002DC30BC00207047440F44EAC104C10043
:10051000E01830BC00EBC250AFF300800029A8BF48
:100520007047401C490008BF20F00100704710B41C
:10053000B0FA80FC00FA0CF050EA010404BF10BCD1
:10054000704749B1CCF1200421FA04F411FA0CF1FE
:1005500018BF012121430843A3EB0C01CB1D4FEA37
:1005600000614FEA102042BF002010BC704700EB32
:10057000C35010440029A4BF10BC7047401C490060
:1005800008BF20F0010010BC704710B5141E73F1B5
:10059000000408DA401C41F1000192185B411A4343
:1005A00001D120F0010010BD2DE9F04D92469B468F
:1005B00011B1B1FA81F202E0B0FA80F22032904635
:1005C00000F052F804460F4640EA0A0041EA0B01E7
:1005D00053465A46084313D0114653EA010019D036
:1005E000C8F140025046FFF7C1FD05460E46504691
:1005F0005946424600F038F8084305D0012004E08F
:1006000020463946BDE8F08D0020054346EAE076F5
:100610002C4337430A986305E40AA0EB0800002244
:10062000FD0A44EA47540A3002D500200146E9E7B2
:10063000010510196941DDE9084500196941BDE866
:10064000F04DA2E7064C074D06E0E06840F00103DC
:1006500094E8070098471034AC42F6D3FFF76CFDDE
:10066000042C0008242C0008202A04DB203A00FA7D
:1006700002F1002070479140C2F1200320FA03F3F9
:10068000194390407047FEE7704772B6FEE710B519
:1006900090F821100022022905D00421816380F8FE
:1006A0002020012010BD01680B6823F00E030B60B1
:1006B00001680B6823F001030B6090F84030C46BB5
:1006C000012101FA03F3636080F8211080F82020F3
:1006D000104610BD2DE9F05F90F82110002402298A
:1006E00003D004218163012485E001680A6822F0B7
:1006F0000E020A6001680A6822F001020A603F4E99
:100700003E4FB215DFF8F4C0DFF8F090DFF8ECA050
:10071000DFF8E8B0DFF8E4E00168783F1301150284
:10072000ACF1640CA9F15009AAF13C0AABF1280B19
:10073000AEF1140E4FF48018B14227D9B9420ED051
:10074000614512D049451DD0514518D0594518D0A2
:10075000714501D1424615E0294EB14201D1012235
:1007600010E0274E1436B14201D110220AE0244E87
:100770002836B14206D0224A3C32914201D11A4673
:1007800000E02A461E49091F0A602BE0B94213D037
:10079000614517D0494522D051451DD059451DD03E
:1007A000714501D142461AE0B14202D14FF0807248
:1007B00015E0134EB14201D1012210E0104E143663
:1007C000B14201D110220AE00D4E2836B14206D0C6
:1007D0000B4A3C32914201D11A4600E02A460749B1
:1007E00080394A60012180F82110002180F8201012
:1007F000416B01B188472046BDE8F09F8000024070
:10080000080402402DE9F84FDFF8C8910024A9F14F
:10081000040B23460F2709F1040AABF1040ED1E0C3
:100820000125A54006EA0502AA4276D1DFF8A8C153
:100830004E68A6EB0C0866452BD00DDC032E34D099
:1008400005DC36B3012E19D0022E2FD11BE0112E5C
:1008500016D0122E2AD119E0B8F5881F19D006DC5F
:10086000B8F5803F15D0B8F5801F1FD111E0B8F55D
:10087000001F0ED0B8F5041F18D10AE0CB6815E0B0
:10088000CB681B1D12E0CB6808330FE0CB680C333C
:100890000CE08B682BB1012B4FF0080303D04561AE
:1008A00004E0042302E0056100E00023FF2A01D8F0
:1008B000064601E000F104064FEA840501D9A5F1DE
:1008C0002005D6F8008007FA05FC28EA0C0803FA90
:1008D00005F548EA0508C6F800804D68ED0070D5BA
:1008E0003E4DAE6946F00106AE61AD6924F00306E7
:1008F00005F0010500953A4D06EB050CDCF80850B3
:10090000A607360F07FA06F825EA0805DFF8D480AF
:10091000404503D14FF0000825E052E0DFF8C880E1
:10092000404502D14FF001081DE0DFF8C08040458E
:1009300002D14FF0020816E0DFF8B480404502D142
:100940004FF003080FE0DFF8AC80404502D14FF0D4
:10095000040808E0DFF8A080404502D14FF0050808
:1009600001E04FF0060808FA06F848EA0508CCF856
:1009700008804D68D9F80060ED024D4601D5164358
:1009800000E096432E604D68DAF80060AD025546EF
:1009900001D5164300E096432E604D68DBF80060F9
:1009A000AD035D4601D5164300E096432E604D68C9
:1009B000DEF80060ED03754601D5164300E096436E
:1009C0002E60641C0A681646E2407FF429AFBDE839
:1009D000F88F0000080401400000111000100240D0
:1009E0000000014000080140000C014000100140DF
:1009F0000014014000180140001C01400AB10161CF
:100A000070470904FBE70000014880687047000058
:100A10000400002002488168027811448160704718
:100A200004000020074810B5016841F01001016082
:100A3000032000F079F8032000F006F800F024F815
:100A4000002010BD0020024070B50D4D04464FF44B
:100A50007A712878B1FBF0F00A490968B1FBF0F02F
:100A600000F0F2FA48B9102C07D200222146501E9D
:100A700000F03AF800206C6070BD012070BD0000ED
:100A800004000020100000200E4808B5816941F0E4
:100A900001018161816901F001010091C16941F0A9
:100AA0008051C161C06900F080500090052000F0C5
:100AB0003BF80548416821F0E06141F00071416078
:100AC00008BD00000010024000000140002809DBC2
:100AD00000F01F02012191404009800000F1E02058
:100AE000C0F8001170470000F0B40E4B1B680C46B4
:100AF000C3F30223C3F10705042D00D90425191DF2
:100B0000072901D2002300E0DB1E012606FA05F1C9
:100B1000491E214099409E40761E16403143F0BC4C
:100B200001F0C0BC0CED00E0064900F007020868C7
:100B30004FF6FF03184040EA0220034A10430860C2
:100B4000704700000CED00E00000FA05BFF34F8F86
:100B500005480168054A01F4E06111430160BFF3F3
:100B60004F8F00BFFDE700000CED00E00400FA0528
:100B70002DE9F0470F46050061D0434E306800F084
:100B80000700B84209D2306820F0070038433060CF
:100B9000306800F00700B84251D128683B4C81070B
:100BA00012D5400703D5606840F4E06060602878A3
:100BB000000703D5606840F4605060606068A96811
:100BC00020F0F000084360602878C00728D06868EB
:100BD000012810D02168022810D0890700292EDAB8
:100BE000616821F0030101436160FFF70DFF80465A
:100BF00041F288390DE021688903EFE78901EDE7CB
:100C0000FFF702FFA0EB0801494502D90320BDE828
:100C1000F0876068696800F00C00B0EB810FEFD1DD
:100C2000306800F00700B8420BD9306820F00700A8
:100C300038433060306800F00700B84201D001202E
:100C4000E5E72878400705D56068E96820F4E060AA
:100C5000084360602878000706D56068296920F499
:100C6000605040EAC100606000F038F86168084AEE
:100C7000C1F30311515CC84006490860064800688A
:100C8000FFF7E2FE0020C2E7002002400010024011
:100C9000EA2B000810000020080000200448054945
:100CA00000684968044AC1F30221515CC84070479A
:100CB0001000002000100240FA2B000804480549EB
:100CC00000684968044AC1F3C221515CC8407047BA
:100CD0001000002000100240FA2B00080E4A516854
:100CE0000E4801F00C03042B11D0082B0FD10C4837
:100CF000C1F38343C903C05C0AD55168084AC1F3F4
:100D00004041921E515C054A5043B0FBF1F07047E0
:100D100004494843704700000010024000127A0066
:100D2000DA2B000800093D002DE9F84F040070D0CF
:100D30002078C04DC00749D06868C0F38100012801
:100D400007D06868C0F38100022809D16868C00331
:100D500006D52868800339D560680028E7D035E0DB
:100D60006068B0F5803F0BD010B1B0F5A02F11D066
:100D7000286820F480302860286820F4802002E071
:100D8000286840F480302860606890B1FFF73CFE2E
:100D900006460AE0286840F480202860F0E700BF9B
:100DA000FFF732FE801B642873D828688003F7D5CC
:100DB0000CE0FFF729FE064605E000BFFFF724FE22
:100DC000801B6428F0D828688003F7D420789A4ED6
:100DD00080074FF001094FF0000839D5686810F01E
:100DE0000C0F07D06868C0F38100022809D1686839
:100DF000C00306D42868800714D52069012808D1CB
:100E000010E02069B0B1C6F80090FFF7FDFD07467D
:100E100005E00AE1FFF7F8FDC01B0228C4D82868E6
:100E20008007F7D52868616920F0F80040EAC10022
:100E300028600DE0C6F80080FFF7E6FD074604E0F5
:100E4000FFF7E2FDC01B022823D828688007F7D4EB
:100E5000207800072CD57948A169D9B1C0F8009055
:100E6000FFF7D2FD074604E0FFF7CEFDC01B0228C6
:100E70000FD8686A8007F7D571484FF4FA510068B7
:100E8000B0FBF1F0009000BF0098411E0091FAD233
:100E90000EE080E0C0F80080FFF7B6FD074604E0F2
:100EA000FFF7B2FDC01B022875D8686A8007F7D427
:100EB0002078400760D5E8690027C00008D4E869B9
:100EC00040F08050E861E869012700F08050009010
:100ED0005C480168C90513D40168834641F48071F8
:100EE0000160FFF791FD824606E000BFFFF78CFD31
:100EF000A0EB0A0064284ED8DBF80000C005F5D549
:100F0000E06801280AD008B1052813D0286A20F02B
:100F100001002862286A20F0040002E0286A40F0FC
:100F200001002862E06841F2883B98B1FFF76CFD50
:100F300082460BE0286A40F004002862EEE700BF1A
:100F4000FFF762FDA0EB0A0159455AD8286A8007CD
:100F5000F6D50CE0FFF758FD824605E0FFF754FD9B
:100F6000A0EB0A0159454CD8286A8007F6D41FB176
:100F7000E86920F08050E861E06988B36968C1F3EE
:100F80008101022944D00228C6F8608004D0FFF70E
:100F90003BFD044638E034E0FFF736FD074604E049
:100FA000FFF732FDC01B02282BD828688001F7D438
:100FB000206AB0F5803F05D16868A16820F4003050
:100FC00008436860D4E908010843696821F4741192
:100FD00008436860C6F86090FFF716FD044606E017
:100FE00025E000BFFFF710FD001B022809D8286884
:100FF0008001F7D51BE000BFFFF706FD001B0228AC
:1010000002D90320BDE8F88F28688001F4D40EE0EF
:101010000128F7D06868226A00F48031914204D137
:10102000616A00F47010884201D00120EAE70020D4
:10103000E8E7000000100240000042428004424203
:10104000100000200070004010B5401EB0F1807FFD
:1010500001D3012010BD4FF0E02460610F21601723
:1010600001F020FA0020A06107202061002010BDBF
:101070007047704770B590F83C20012A2CD00124AD
:1010800080F83C40022280F83D2003685A689D6841
:1010900022F070060A6832435A60104B02689A4286
:1010A0000ED00F4B9A420BD0B2F1804F08D00D4BAF
:1010B0009A4205D00C4B9A4202D00C4B9A4204D172
:1010C000496825F080031943916080F83D40002174
:1010D00080F83C10084670BD022070BD002C014015
:1010E000003401400004004000080040000C0040B3
:1010F00010B5040003D094F83D0010B107E00120C2
:1011000010BD002084F83C00204600F01FF80220AB
:1011100084F83D00211D206800F03EFF012084F886
:10112000460084F83E0084F83F0084F8400084F8CC
:10113000410084F8420084F8430084F8440084F8B5
:10114000450084F83D00002010BD000008B500688F
:101150000B49884212D10B48C16941F02001C1619D
:10116000C069032200F02000009011463720FFF7ED
:10117000BBFCBDE808403720FFF7A8BC08BD000055
:10118000001400400010024090F83D10012901D0E9
:1011900001207047022180F83D100168CA6842F0C2
:1011A0000102CA6000680E4988420ED00D4988428B
:1011B0000BD0B0F1804F08D00B49884205D00B49C5
:1011C000884202D00A49884204D1816801F00701AF
:1011D000062903D0016841F0010101600020704739
:1011E000002C014000340140000400400008004091
:1011F000000C0040704770B50446006801694FF06C
:101200000005C943890715D4C168C943890711D4AA
:10121000E91E01610120207720688069800720464F
:1012200002D0FFF7E7FF04E000F0DEF8204600F010
:101230008FF9257720680169C943490717D4C16828
:10124000C943490713D46FF00401016102202077DC
:101250002068806910F4407F204602D0FFF7CAFF63
:1012600004E000F0C1F8204600F072F9257720680C
:101270000169C943090716D4C168C943090712D4D3
:101280006FF008010161042020772068C0698007A1
:10129000204602D0FFF7AEFF04E000F0A5F820469C
:1012A00000F056F9257720680169C943C90617D4AB
:1012B000C168C943C90613D46FF010010161082049
:1012C00020772068C06910F4407F204602D0FFF7E5
:1012D00091FF04E000F088F8204600F039F9257706
:1012E00020680169C943C90708D1C168C943C90752
:1012F00004D1891E0161204600F086F92068016949
:10130000C943090609D4C168C943090605D46FF069
:10131000800101612046FFF7ABFE20680169C943E7
:10132000490609D4C168C943490605D46FF0400194
:101330000161204600F086F920680169C9438906E9
:101340000BD4C168C943890607D46FF0200101613D
:101350002046BDE87040FFF78CBE70BD00B585B07B
:1013600000210091019102910391194B02681948E3
:1013700002219A4218D1826942F02002826180697A
:10138000039100F0200004904803CDE90001694674
:101390001148FFF737FA1148416841F0E06141F424
:1013A0008051416005B000BD0D4B9A42FAD182696F
:1013B00042F0040282618069039100F0040004900D
:1013C0000120CDE9000169460648FFF71BFAE9E76D
:1013D00000080040001002400014014000000140DD
:1013E000000C004000080140704770B5044690F8BA
:1013F0003C0000260D4601280FD0012084F83C0057
:101400006AB1042A1DD0082A2FD00C2A3FD0012609
:10141000002084F83C00304670BD022070BD20687A
:1014200000F00EFE2068816941F0080181612068AA
:10143000816921F004018161206881692A69114371
:1014400011E0206800F02CFE2068816941F4006101
:1014500081612068816921F48061816120688169EE
:101460002A6941EA02218161D2E7206800F04EFE3C
:101470002068C16941F00801C1612068C16921F09B
:101480000401C1612068C1692A69114311E0206823
:1014900000F070FE2068C16941F40061C1612068FC
:1014A000C16921F48061C1612068C1692A6941EA8A
:1014B0000221C161ACE710B5040003D094F83D00EF
:1014C00010B107E0012010BD002084F83C00204648
:1014D00000F01EF8022084F83D00211D206800F075
:1014E0005BFD012084F8460084F83E0084F83F004C
:1014F00084F8400084F8410084F8420084F84300F6
:1015000084F8440084F8450084F83D00002010BDB4
:1015100008B50C4A01680C48914207D1C16941F0F5
:101520000401C161C06900F0040009E0074A91426A
:1015300007D1C16941F00801C161C06900F008002C
:10154000009008BD0008004000100240000C004060
:101550007047000010B50446022249B104290ED09C
:10156000082913D094F84100012816D0012010BD9D
:1015700094F83E000128F9D184F83E200FE094F859
:101580003F000128F2D184F83F2008E094F84000A1
:101590000128EBD184F8402001E084F841200122A9
:1015A000206800F03FFD13492068134A884201D0AB
:1015B000904203D1436C43F4004343642068884263
:1015C0000DD090420BD0B0F1804F08D00B4988422B
:1015D00005D00B49884202D00A49884204D181686B
:1015E00001F00701062903D0016841F00101016003
:1015F000002010BD002C01400034014000040040D8
:1016000000080040000C00400A4910B5884210D183
:1016100001F078FA00F096FA074C2068FEF73BFFDD
:1016200006490968C863A068FEF735FF04490968E0
:10163000486310BDDC000020340000204C00002076
:10164000940000207047704770470000F8B50168AB
:1016500004460868CA684B6910F00F0F4FF0000588
:1016600059D003F0010602F49077374365D0C107E3
:1016700005D0D10503D5616C41F0010161644107DA
:1016800005D5D90703D0616C41F00201616481077F
:1016900005D5D90703D0616C41F0040161640107ED
:1016A00007D502F02001314303D0616C41F00801FD
:1016B0006164616C00293AD0800604D5900602D599
:1016C000204600F0AEFD20684069616CC0F38010D8
:1016D000090700D460B3204600F07CFD2068406913
:1016E000400621D52068143050E8001F21F0400149
:1016F00040E80012002AF5D1E06BA8B16D494163C2
:10170000E06BFEF7E7FF002811D0E06B416B01B002
:10171000BDE8F040084783060FD593060DD5204657
:10172000BDE8F84000F07DBD2046FFF78DFFF8BD15
:101730002046FFF789FF6564F8BD266B2023012E44
:101740007CD1C6067AD5D60678D508684868009058
:1017500048694FF00206400640D5E16B08684068D2
:101760000004000CE8D0A28D8242E5D9E0858869AA
:1017700020282DD020680C3050E8001F21F4807103
:1017800040E80012002AF5D12068143050E8001F0C
:1017900021F0010140E80012002AF5D12068143040
:1017A00050E8001F21F0400140E80012002AF5D166
:1017B00084F84230256320680C3050E8001F21F087
:1017C000100140E80012002AF5D1E06BFEF75FFF40
:1017D0006663A08DE18D401A81B22AE0A08DE18D73
:1017E000401A81B2E08D0028A6D00029A4D022683A
:1017F0000C3252E8000F20F4907042E80007002FEE
:10180000F5D12068143050E8002F22F0010240E8A2
:101810000027002FF5D184F84230256320680C3072
:1018200050E8002F22F0100240E80023002BF5D1F1
:1018300066632046FFF707FFF8BDFFE705062BD5D7
:10184000150629D594F841002128F5D1A068B0F5F6
:10185000805F01D12069B0B1206A411C21622168FA
:1018600000784860E08C401E0004000CE084E3D166
:101870002068C16821F08001C1602068C16841F022
:101880004001C160D8E7206A0088C0F308004860C2
:10189000206A801C2062E5E74006CDD55006CBD5F6
:1018A000CA68204622F04002CA6084F8413000F045
:1018B00046F9C1E7C521000870B5040004D094F8CA
:1018C0004100002510B106E0012070BD84F84050B1
:1018D000204600F023F8242084F841002068C168E5
:1018E00021F40051C160204600F0FCFC2068016931
:1018F00021F4904101612068416921F02A01416190
:101900002068C16841F40051C1606564202084F8FA
:10191000410084F842006563002070BDF0B585B0D9
:10192000002400940194029403940368424F02201F
:1019300042490322424D4602BB4225D18B6943F402
:1019400080438B618B6903F4804304938B6943F07C
:1019500004038B618969039201F00401049101027F
:10196000CDE9001069462846FEF74CFFCDE900643A
:10197000694628460294FEF745FF022203212520EE
:10198000FFF7B2F8252029E02E4FBB422AD1CB69C0
:1019900043F40033CB61CB6903F4003304938B69C8
:1019A00043F004038B618969039201F004010491FF
:1019B0000421CDE9001069462846FEF723FF0820E0
:1019C000CDE900040120029069462846FEF71AFF7F
:1019D000012200212620FFF787F82620FFF776F85E
:1019E00005B0F0BD184DAB42FAD1CB6943F480236A
:1019F000CB61CB6903F4802304938B6943F0080324
:101A00008B618969114D01F00801CDE90321CDE910
:101A1000006069462846FEF7F5FEE814CDE90004AB
:101A2000694628460294FEF7EDFE01220321272095
:101A3000FFF75AF82720D1E7003801400010024094
:101A4000000801400044004000480040000C0140F4
:101A500090F84230202B01D00220704721B11AB1FA
:101A60000023036300F09ABC0120704710B50068A2
:101A70000849884206D10848007800F0B5F907A067
:101A800000F008FDBDE81040012203490448FFF7BB
:101A9000DFBF0000004400400000002031000000D3
:101AA0006C0100202DE9F843044690F841001F46E0
:101AB00016460D46202802D00220BDE8F8837DB1ED
:101AC00076B100206064212084F84100FEF79CFF7D
:101AD000A6848046E684A068B0F5805F02D003E06B
:101AE0000120EAE7206910B12E4600250EE000260D
:101AF0000CE08021204600F06CFCA0B9AEB116F8D5
:101B0000010B21684860E08C401EE084E08C434675
:101B10004FF0000200970028EBD14FF04001204623
:101B200000F057FC30B10320C7E735F8020BC0F3D3
:101B30000800E6E7202084F841000020BDE7704758
:101B4000FEE7000010B500F017FD0A4C606000F0E1
:101B5000EFFCE0600848616800F05CFF0748E1685E
:101B600000F058FF00F074FF206000F055FFA06007
:101B700010BD000034000020080200202C020020CC
:101B800030B585B000241E4800940194029403945B
:101B9000816941F080018161816901F080010491D6
:101BA000816941F004018161816901F004010491BE
:101BB000816941F008018161816901F008010491A6
:101BC000816941F02001816180690E4D00F02000A3
:101BD0000490012240212846FEF710FF00228021B8
:101BE0002846FEF70BFFC02000900120CDE901043C
:101BF0000220039069462846FEF704FE05B030BD7A
:101C000000100240001C014010B58AB00024079467
:101C10001C2168460894FEF7D2FA1848164901605C
:101C20004721C0E9011444F61F61C0E90314802173
:101C30008161FFF740FC08B1FEF727FD079407A973
:101C40000E480894FFF716FA08B1FEF71EFD602053
:101C5000009040F28E40CDE9010408226946074811
:101C60000494FFF7C2FB08B1FEF70FFD0348FFF72E
:101C700075FB0AB010BD0000000800404C000020B9
:101C800010B58AB0002407941C2168460894FEF71A
:101C900096FA1848164901604721C0E9011444F634
:101CA0001F61C0E9031480218161FFF704FC08B1C2
:101CB000FEF7EBFC079407A90E480894FFF7DAF942
:101CC00008B1FEF7E2FC6020009040F28E40CDE9C2
:101CD00001040022694607480494FFF786FB08B117
:101CE000FEF7D3FC0348FFF739FB0AB010BD000034
:101CF000000C0040940000201CB500240E48009405
:101D00000C490194016041F61F41C0E90114C7214B
:101D10008461C160FFF7ECF908B1FEF7B6FC0094EE
:101D2000694605480194FFF7A5F9002801D0FEF7A0
:101D3000ACFC1CBD00140040DC0000200C4810B5B9
:101D40000A4901604FF4E1314160002181600C22B9
:101D5000C160C0E904128161C161FFF7ADFD0028D7
:101D600003D0BDE81040FEF790BC10BD0038014024
:101D7000240100200C4810B50A4901604FF4E131FC
:101D80004160002181600422C160C0E904128161C8
:101D9000C161FFF791FD002803D0BDE81040FEF7B8
:101DA00074BC10BD004400406C0100200C4810B50C
:101DB0000A4901604FF4E1314160002181600C2249
:101DC000C160C0E904128161C161FFF775FD00289F
:101DD00003D0BDE81040FEF758BC10BD00480040DD
:101DE000B4010020FEE7FEE7F0B52D492C260A4697
:101DF00091F805C014790127621CD5B20022294B45
:101E0000BCF1000F09D0BCF1010F0BD0BCF1020FE7
:101E100019D0BCF1030F29D006E02C2804D14F7152
:101E20001E550EE0122808D04A710A7100201A547B
:101E3000401CC0B20A28FAD3F0BD0220487112201B
:101E400018550D71F0BD18550D710A2D01D25B2882
:101E5000F8D103204871581910F8052D8A7142787D
:101E60000A708278CA71C0784870F0BD1C4414F8BA
:101E7000014C5B2C11D04A710A7100241A55641C64
:101E8000E4B20A2CFAD3002AEFD12C28EDD14F71FD
:101E900008791E54401C0871F0BD0A714A71F4E7BC
:101EA00014000020FC010020184910B516480860F5
:101EB000002048608860C860C8614FF07F520862A7
:101EC000C1E90420124A8A614839124B086048600F
:101ED0008860C860C1E90630C1E904206C310E4C4D
:101EE000C1E900408860C8600C4CC861C1E9044089
:101EF0000B4C8C614839086048608860C860C1E953
:101F00000630C1E9042010BD0000C8425002002084
:101F10000000A040000040400000D04200006040AF
:101F20000000164370477047FEF774BD30B58FB0A0
:101F300028216846FEF743F914210AA8FEF73FF965
:101F400001210804CDE90010002402940225049127
:101F5000CDE907504FF4E01009906846FEF7E4FE23
:101F600008B172B6FEE70F20CDE90A054FF4806094
:101F7000CDE90C4002210AA80E94FEF7F9FD0028D5
:101F800001D072B6FEE70FB030BD70470148FFF7D1
:101F900032B90000DC000020F0B502681C4B1D4D7A
:101FA0001D4E1E4F1E4C4FF0804C984209D0A0424F
:101FB00007D0604505D0A84203D0B04201D0B84256
:101FC00004D122F0700E4A6842EA0E02984209D00B
:101FD000A04207D0604505D0A84203D0B04201D04E
:101FE000B84203D122F44075CA682A434D6922F0F1
:101FF00080022A4302608A68C2620A68826298424A
:1020000001D0A04201D10969016301214161F0BD04
:10201000002C01400004004000080040000C00407B
:102020000034014010B501F01F030121046A9940FA
:102030008C430462016A9A401143016210BD0000A2
:10204000F0B5036A026A22F0010202624268846902
:10205000124E24F073050C682C4323F002058B68A4
:102060002B430D4DA84201D0B04205D123F0080703
:10207000CB683B4323F00403A84201D0B04205D112
:102080004D6922F4407215438A692A434260846193
:10209000496841630362F0BD002C014000340140F7
:1020A000F0B5026A036A23F010030362436884698F
:1020B0000D6824F4E64444EA05248D6822F02002E9
:1020C00042EA05120F4D104EA84201D0B04206D18F
:1020D000CF6822F0800242EA071222F04002A842B2
:1020E00001D0B04207D14D6923F4406343EA850330
:1020F0008D6943EA850343608461496881630262B4
:10210000F0BD0000002C014000340140F0B5026A2F
:10211000036A23F4807303624368C46922F4007283
:1021200024F073050C68124E2C438D6842EA052298
:102130000E4DA84201D0B04206D1CF6822F4006211
:1021400042EA072222F48062A84201D0B04207D1BD
:102150004D6923F4405343EA05138D6943EA05139F
:102160004360C4614968C1630262F0BD002C014054
:102170000034014030B5046A026A22F480520262DF
:102180004268C3690D6823F4E64343EA05238D687A
:1021900024F4005444EA0534084DA84202D0084D06
:1021A000A84204D14D6922F4804242EA851242607D
:1021B000C36149680164046230BD0000002C014025
:1021C0000034014010B5406A0021C185C184FFF789
:1021D0003BFA10BD01680C3151E8002F22F49072D7
:1021E00041E80023002BF5D10168143151E8002F9C
:1021F00022F0010241E80023002BF5D1016B0129F7
:1022000009D101680C3151E8002F22F0100241E899
:102210000023002BF5D1202180F84210002101631A
:10222000704708B590F84210222901D0022008BD5D
:1022300082684FF480539A4201D1016921B1816AC9
:102240009A421BD04AB10AE00268816A5268C2F31E
:1022500008020A80816A891C08E0026972B102687A
:10226000526802F07F020A70816A491C8162C18D46
:10227000491E0904090CC18503D01BE0026852689D
:10228000F1E70168CA6822F02002CA600168CA68E2
:1022900022F48072CA6001684A6922F001024A6130
:1022A000202180F8421000214163026B012A03D0F3
:1022B000FFF7DCFB002008BD016301680C3151E829
:1022C000002F22F0100241E80023002BF5D1016815
:1022D0000A68D20602D50A6849680091818DFFF725
:1022E000B2F9E7E770B5044600680169E26821F4D5
:1022F0004051114301612169A068084361690843A5
:102300002168CA6841F20C639A430243CA6020689C
:102310004169A26921F44071114341611E4920685D
:10232000884202D1FEF7CAFC01E0FEF7B7FC00EBE1
:10233000C00101EB0012606864218000B2FBF0F381
:10234000B3FBF1F36FF018067343B2FBF0F5B2FB89
:10235000F0F605EB8305322303EB0515B5FBF1F52C
:10236000B6FBF1F605F0F00505EB0615B2FBF0F64D
:10237000B2FBF0F0B0FBF1F06FF01802504306EB47
:10238000800003EB0010B0FBF1F0216800F00F00BB
:102390002844886070BD0000003801408162828559
:1023A000C28500214164222180F84210016921B1D7
:1023B0000168CA6842F48072CA6001684A6942F0E2
:1023C00001024A610068C16841F02001C16000203B
:1023D00070472DE9F041984617460E460446069D83
:1023E00027E0681C25D02DB1FEF70EFBA0EB0800FE
:1023F000A8421ED920680C3050E8001F21F4D0718B
:1024000040E80012002AF5D12068143050E8001F7F
:1024100021F0010140E80012002AF5D1202084F8C3
:10242000410084F84200002084F840000320BDE809
:10243000F0812068006836EA000004D00020B8422D
:10244000CFD00020F3E70120F9E700000148FFF7B3
:10245000FDB80000240100200148FFF7F7B8000094
:102460006C010020084810B50168086800F00802F7
:102470000648427049680170012100F003F9BDE887
:1024800010400148FFF7E2B8B4010020010000202D
:10249000FEE70000014A024900F023B819250008B0
:1024A000480000200907090E002804DB00F1E020A5
:1024B00080F80014704700F00F0000F1E02080F871
:1024C000141D704702E008C8121F08C1002AFAD183
:1024D00070477047002001E001C1121F002AFBD1A4
:1024E00070472DE9F04116460F460446002503E0EB
:1024F0003946B047641C6D1C20780028F8D1284666
:10250000BDE8F08104E000BF11F8013B1844C0B2FF
:10251000521ED2B2F8D2704713B54FF6FF730122A4
:1025200069460248FFF7BEFA00981CBD240100204E
:1025300038B50D4805680D48294600F033F80446C3
:102540000B48844202DC0B48844200D904462846EA
:10255000FDF788FF012300906A461946022000F02B
:102560001BFA204638BD0000200000207402002025
:1025700000002042000020C2064810B5016806484D
:1025800000F010F80549884202DC0549884200D96C
:10259000084610BD1C000020500200200000204210
:1025A000000020C22DE9F04104460068FDF764FEFA
:1025B000A060B0F17C5F04DCB0F13F4F01D8002097
:1025C000A0600546E168FDF757FE074620622946F0
:1025D000E069FDF7FFFD0646E0613946A069FDF7B9
:1025E00051FE074631466069FDF74CFE0646294616
:1025F0002069FDF747FE3146FDF7ECFD3946FDF752
:10260000E9FDE5606060BDE8F0810000FEF70AFAD0
:10261000FFF78CFCFFF7B4FAFFF7F6FAFFF78EFB33
:10262000FFF7A8FBFFF768FBFFF7C0FBFFF728FBEE
:1026300008210E48FEF78EFF00210D48FEF78AFFA5
:1026400001220C490C48FFF703FAFFF72DFC0B4859
:102650000068C16841F02001C16000F01BF9084822
:10266000FEF792FD00F022F9FCE700004C0000208C
:1026700094000020000000206C010020B401002024
:10268000DC0000202DE9F041DFF84C800546404693
:102690000C46B8F80610C38800680A19D8F800700C
:1026A0001844802A0AD9C1F180018EB232462946E7
:1026B000FDF76CFDA21BA919384601E02246294608
:1026C000FDF764FD98F80610214401F07F01A8F899
:1026D0000610BDE8F0810000A40200202DE9F34FB0
:1026E00081B06A4D002000904FF0FF0AEB88AA8865
:1026F0002889802100F042F984B2092C6ED36889C0
:10270000A94698BB80230020B9F80470DFF880B197
:10271000E51ED9F800602CE03A18B2FBF3FC114634
:1027200003FB1C1216F802C04A1CB2FBF3F803FBB1
:102730001822B25C4CEA022C8A1CB2FBF3F803FBB1
:102740001822B25C4FEA0248CA1CB2FBF3F103FB49
:102750001121715C48EA01614CEA010CDC4506D1AB
:102760003844B0FBF3F103FB110006E017E0401C16
:1027700080B2A842D0DB4FF0FF3001B2002913DB5A
:102780000122A9F80A208AB2A9F80420B9F8063073
:10279000B9F80800802100F0F1F809281EDBB9F82B
:1027A00008004D4658B11CE0E41E3819C21700EB72
:1027B000526222F07F02801AA9F804000EE0287904
:1027C0002968421D801D02F07F0200F07F008A5CB4
:1027D000085C42EA00202881A04202D95046BDE8A8
:1027E000FE8F82B2A8881118491E802929680144E9
:1027F0000CDDC0F18000C2B20098FFF783FE297A99
:102800002A7911448139CAB2296802E0521ED2B233
:102810000098FFF777FEAB882A892E689C18611E06
:10282000CF1701EB576727F07F07C91B715C814207
:1028300027D1802C0DD9C3F1800084B2F118224633
:102840000198FDF7A3FC28892968021B0198204400
:1028500001E0F1180198FDF799FC0298298901809F
:1028600028792A6800F1090101F07F0112F801A01E
:10287000297A084400F07F00A88000202881688120
:10288000ACE75B1C03F07F00F6E70000A402002029
:10289000535A485904480021016141611830A0F1A0
:1028A0000C010860002070479802002030B5A1B0EC
:1028B0000020ADF88000441E20A96846FFF70EFFF7
:1028C0001328F9D006DC10280BD0112837D0122895
:1028D000F2D003E0142849D01528EDD021B02046CD
:1028E00030BD9DF80A009DF80D109DF80B2040EAC0
:1028F00001619DF80C009DF80F30000440EA0220B1
:1029000001439DF80E009DF811209DF8135040EAF8
:1029100002629DF81000000440EA032002439DF883
:1029200012009DF8153040EA03639DF8140000047E
:1029300040EA052003430F4800F068F8BCE79DF823
:102940000A009DF80D109DF80B2040EA01609DF8EB
:102950000C10090441EA02210843FDF775FD064900
:1029600008600146034800F055F8A5E7FEF7EEF8C9
:10297000A2E70000740200204400002010B50446C5
:102980009A4201D8981A01E0881A184480B2844209
:1029900000D9002010BD0000F8B5154600228DF8C2
:1029A00000209A06140E164A144B136004F10B0310
:1029B000C2F80530117150720A2211490020FFF748
:1029C000A1FD8DF8000022462946FFF79BFD0D4E24
:1029D0008DF8000033460A2209490B48FFF762F8D8
:1029E0003346224629460848FFF75CF83346012261
:1029F00069460548FFF756F8F8BD0000535A485994
:102A000098020020FFFF0F00B4010020103080E882
:102A10000E00704701607047084810B5016808480B
:102A200000F032F80749FDF7D5FB0749884202DC80
:102A30000649884200DA084610BD00002800002040
:102A40002C0200200020994400A0BE4400406744AE
:102A5000084810B50168084800F016F80749FDF766
:102A6000B9FB0749884202DC0649884200DA084679
:102A700010BD0000240000200802002000808944CE
:102A80000000AF44000048442DE9F04104460068CE
:102A9000FDF7F2FBA060B0F17C5F04DAB0F13F4FCC
:102AA00001D20020A0600546E168FDF7E5FB06467F
:102AB00020622946E069FDF78DFB1049E0618842FC
:102AC00002DA0F49884200D9E1613146A069FDF779
:102AD000D9FB0746E1696069FDF7D4FB0646294644
:102AE0002069FDF7CFFB3146FDF774FB3946FDF752
:102AF00071FBE5606060BDE8F081000000007A4491
:102B000000007AC42DE9F05F2D4C2E4FA068A06123
:102B10008046E068E0618146A078A579401B0930D5
:102B200013280DD22078FDF798FC3946FDF7DCFB21
:102B300006462846FDF791FC3146FDF74BFBA060A9
:102B4000E078E679801B093013280DD26078FDF714
:102B500084FC3946FDF7C8FB07463046FDF77DFC8F
:102B60003946FDF737FBE0604146A068FDF784FB7E
:102B7000154FDFF858A0DFF858B0B8420ADAD04550
:102B800008D2FDF79CFC5A46124BFDF7EBFBFDF714
:102B9000A9FC20614946E068FDF76EFBB8420ADAFD
:102BA000D14508D2FDF78BFC5A460A4BFDF7DAFBFC
:102BB000FDF798FC6061A570E670BDE8F09F00002D
:102BC000140000200000C8420000A0400000A0C087
:102BD0009A99999999394840010202030405060718
:102BE00008090A0B0C0D0E0F101000000000000069
:102BF00000000102030406070809000000000102AA
:102C000003040000242C0008000000204C000000F9
:102C1000C4240008702C00084C000020E4060000CA
:102C2000D424000800000000010000001000000093
:102C3000000000000024F40000000000000000007C
:102C40000000000000000000000000000000000084
:102C50000000000000000000000000000000000074
:102C60000000000000000000000000000000000064
:0400000508000131BD
:00000001FF
