:020000040800F2
:100000000807002049010008B12000081D1C000855
:1000100029200008BB060008D925000800000000C0
:100020000000000000000000000000001F21000888
:10003000BD060008000000001D2100082121000865
:100040006301000863010008630100086301000800
:1000500063010008630100086301000863010008F0
:1000600063010008630100086301000863010008E0
:1000700063010008630100086301000863010008D0
:1000800063010008630100086301000863010008C0
:1000900063010008630100086301000863010008B0
:1000A00063010008630100086301000863010008A0
:1000B000630100088521000863010008630100084E
:1000C0006301000863010008630100086301000880
:1000D00063010008AD250008630100086301000802
:1000E0006301000863010008630100086301000860
:1000F00063010008630100089D21000863010008F6
:10010000630100086301000863010008630100083F
:1001100063010008630100086301000891210008E1
:10012000630100086301000863010008630100081F
:10013000DFF810D000F0A0FA00480047D5260008EC
:10014000AFF30080080700200648804706480047B4
:10015000FEE7FEE7FEE7FEE7FEE7FEE7FEE7FEE777
:10016000FEE7FEE78321000831010008202A04DBB6
:10017000203A21FA02F00021704721FA02F3D04020
:10018000C2F12002914008431946704740EA01033A
:100190009B0703D009E008C9121F08C0042AFAD23D
:1001A00003E011F8013B00F8013B521EF9D2704701
:1001B000D2B201E000F8012B491EFBD270470022A9
:1001C000F6E710B513460A4604461946FFF7F0FF56
:1001D000204610BDF0B480EA0102D40F4200B2EB19
:1001E000410F02D20246084611464A0042D0C30DD2
:1001F000DDB2C1F3C752AD1A202D35DAC1F31601B5
:1002000041F4000204B15242C5F1200602FA06F19F
:100210002A411044B3EBD05F23D0C4B1012DA0EB31
:10022000C35009DCF0BC4FF0004202EAC352DBB21B
:1002300000F5000000F094B9400000F1807000EB80
:10024000C350A0F1807040EAD170490009E049082C
:1002500041EAC071A0EBC35000F50000400800EB7C
:10026000C350F0BC00F073B96142012202EB4101BE
:10027000001BF6E7F0BC704781F00041AAE780F070
:100280000040A7E780EA010210B502F000434000F9
:1002900022D04A001FD0010E01EB1261C0F35600BC
:1002A000C2F3560240F4000042F40002A0FB022018
:1002B00000047F39140400D0401C50EA124001D4DD
:1002C0004000491EC2B20C0604EBD010401C40088E
:1002D000802A02D003E0002010BD20F00100002998
:1002E00000DA0020184310BD2DE9FE4F81EA030417
:1002F00004F0004421F0004100944FF0000B23F083
:10030000004350EA01045ED052EA03045BD0C3F319
:100310000A54C1F30A552C44A4F2F3340194A0FB0F
:100320000254C1F3130141F48011C3F3130343F4E6
:10033000801301FB024400FB034E840A970A44EA3F
:10034000815447EA8357A4FB076802958D0A05FB91
:1003500007854FEA932C04FB0C542705029D4FEAB6
:10036000065847EA1637B5EB08056EEB070C870E03
:10037000920E47EA811742EA8312A7FB0201B6EB0D
:100380000B0164EB00042B0D43EA0C335E1844EBC5
:100390001C50DA465146E7FB0201C5F313044FEA4D
:1003A0000B3343EA14534FEA0432019C43EA060339
:1003B000A4F10C040294009CCDE900B400F00DF906
:1003C00003B0BDE8F08F00200146F9E72DE9F04DBC
:1003D00081EA030404F0004B21F0004514464FF07D
:1003E000000A23F0004150EA050220D054EA01023D
:1003F0001DD0C5F30A570246C5F31303C1F313001A
:10040000C1F30A5640F4801543F48013A7EB0608A5
:10041000101BD64608F2FD3873EB050002D308F135
:10042000010801E092185B41B8F1000F03DA0020E7
:100430000146BDE8F08D00204FF480110646844649
:100440000EE0171B73EB050705D3121B63EB0503C7
:1004500006434CEA010C49084FEA300092185B4110
:1004600050EA0107EDD152EA030012D082EA0400FB
:1004700083EA0501084305D0101BAB4106D20122D7
:10048000002306E000224FF0004302E06FF001027B
:1004900053101AEB06004CEB085110EB0A0041EB2D
:1004A0000B01BDE8F04D00F089B8C10F80EAE070A3
:1004B0000844CA079623002100F052B80EB5C10FB8
:1004C00080EAE0700844CA07002140F233438DE817
:1004D0000E000A460B4600F080F803B000BD00F0A5
:1004E000004220F00040C10DC0F3160040F40000AF
:1004F0007F2901DA00207047962903DCC1F19601BB
:10050000C84001E096398840002AF4D04042704744
:1005100070B5C1F30A5201F000450024C1F3130184
:1005200040F2FF3341F480119A4201DA002070BD9D
:1005300040F233439A42A2F2334203DC5242FFF7C5
:1005400015FE00E090402C43F1D0404270BD0029E0
:10055000A8BF7047401C490008BF20F00100704749
:1005600010B4B0FA80FC00FA0CF050EA010404BFA9
:1005700010BC704749B1CCF1200421FA04F411FAFF
:100580000CF118BF012121430843A3EB0C01CB1D43
:100590004FEA00614FEA102042BF002010BC7047B4
:1005A00000EBC35010440029A4BF10BC7047401C8E
:1005B000490008BF20F0010010BC704710B5141EA0
:1005C00073F1000408DA401C41F1000192185B410C
:1005D0001A4301D120F0010010BD2DE9F04D9246E3
:1005E0009B4611B1B1FA81F202E0B0FA80F22032FA
:1005F000904600F053F804460F4640EA0A0041EAEC
:100600000B0153465A46084313D0114653EA0100E2
:1006100019D0C8F140025046FFF7A8FD05460E4626
:1006200050465946424600F039F8084305D00120AB
:1006300004E020463946BDE8F08D0020054346EA37
:10064000E0762C4337430A986305E40AA0EB0800E0
:100650000022FD0A44EA47540A3002D50020014630
:10066000E9E7010510196941DDE90845001969410B
:10067000BDE8F04DA2E70000064C074D06E0E0683B
:1006800040F0010394E8070098471034AC42F6D3D9
:10069000FFF752FD5829000878290008202A04DBBA
:1006A000203A00FA02F1002070479140C2F1200385
:1006B00020FA03F3194390407047FEE7704772B683
:1006C000FEE700000B4810B50468616A0A48494219
:1006D0000AB202800023636208490C68616A4942D9
:1006E00009B24180636243681A44426082681144DF
:1006F000816010BD40000020340000206001002017
:1007000010B590F821100022022905D00421816340
:1007100080F82020012010BD01680B6823F00E0333
:100720000B6001680B6823F001030B6090F8403008
:10073000C46B012101FA03F3636080F8211080F893
:100740002020104610BD00002DE9F05F90F8211028
:100750000024022903D004218163012485E001687B
:100760000A6822F00E020A6001680A6822F001029B
:100770000A603F4E3E4FB215DFF8F4C0DFF8F0904C
:10078000DFF8ECA0DFF8E8B0DFF8E4E00168783FDC
:1007900013011502ACF1640CA9F15009AAF13C0A4D
:1007A000ABF1280BAEF1140E4FF48018B14227D9EB
:1007B000B9420ED0614512D049451DD0514518D0DF
:1007C000594518D0714501D1424615E0294EB14234
:1007D00001D1012210E0274E1436B14201D110227E
:1007E0000AE0244E2836B14206D0224A3C329142D9
:1007F00001D11A4600E02A461E49091F0A602BE073
:10080000B94213D0614517D0494522D051451DD07A
:1008100059451DD0714501D142461AE0B14202D17D
:100820004FF0807215E0134EB14201D1012210E069
:10083000104E1436B14201D110220AE00D4E283676
:10084000B14206D00B4A3C32914201D11A4600E037
:100850002A46074980394A60012180F82110002189
:1008600080F82010416B01B188472046BDE8F09F19
:1008700080000240080402402DE9F84FDFF8C891DB
:100880000024A9F1040B23460F2709F1040AABF158
:10089000040ED1E00125A54006EA0502AA4276D160
:1008A000DFF8A8C14E68A6EB0C0866452BD00DDC1E
:1008B000032E34D005DC36B3012E19D0022E2FD1F1
:1008C0001BE0112E16D0122E2AD119E0B8F5881F80
:1008D00019D006DCB8F5803F15D0B8F5801F1FD1C0
:1008E00011E0B8F5001F0ED0B8F5041F18D10AE0CA
:1008F000CB6815E0CB681B1D12E0CB6808330FE016
:10090000CB680C330CE08B682BB1012B4FF0080344
:1009100003D0456104E0042302E0056100E0002308
:10092000FF2A01D8064601E000F104064FEA8405DB
:1009300001D9A5F12005D6F8008007FA05FC28EAC0
:100940000C0803FA05F548EA0508C6F800804D686A
:10095000ED0070D53E4DAE6946F00106AE61AD6961
:1009600024F0030605F0010500953A4D06EB050C51
:10097000DCF80850A607360F07FA06F825EA08053E
:10098000DFF8D480404503D14FF0000825E052E065
:10099000DFF8C880404502D14FF001081DE0DFF8C4
:1009A000C080404502D14FF0020816E0DFF8B48065
:1009B000404502D14FF003080FE0DFF8AC8040451E
:1009C00002D14FF0040808E0DFF8A080404502D1D2
:1009D0004FF0050801E04FF0060808FA06F848EA6B
:1009E0000508CCF808804D68D9F80060ED024D4646
:1009F00001D5164300E096432E604D68DAF800609A
:100A0000AD02554601D5164300E096432E604D6871
:100A1000DBF80060AD035D4601D5164300E0964368
:100A20002E604D68DEF80060ED03754601D5164373
:100A300000E096432E60641C0A681646E2407FF48C
:100A400029AFBDE8F88F0000080401400000111034
:100A5000001002400000014000080140000C01406D
:100A6000001001400014014000180140001C01402A
:100A70000AB1016170470904FBE700000148806882
:100A80007047000004000020024881680278114489
:100A90008160704704000020074810B5016841F0EC
:100AA00010010160032000F079F8002000F006F842
:100AB00000F024F8002010BD0020024070B50D4D5C
:100AC00004464FF47A712878B1FBF0F00A490968BE
:100AD000B1FBF0F000F0E0FA48B9102C07D2002288
:100AE0002146501E00F03AF800206C6070BD0120D5
:100AF00070BD000004000020100000200E4808B562
:100B0000816941F001018161816901F00101009178
:100B1000C16941F08051C161C06900F0805000900E
:100B2000052000F03BF80548416821F0E06141F004
:100B30000071416008BD000000100240000001404B
:100B4000002809DB00F01F020121914040098000CC
:100B500000F1E020C0F8001170470000F0B40E4B27
:100B60001B680C46C3F30223C3F10705042D00D90B
:100B70000425191D072901D2002300E0DB1E0126F0
:100B800006FA05F1491E214099409E40761E164006
:100B90003143F0BC01F021BD0CED00E0064900F04E
:100BA000070208684FF6FF03184040EA0220034A94
:100BB00010430860704700000CED00E00000FA05EB
:100BC0002DE9F0470F46050061D0434E306800F034
:100BD0000700B84209D2306820F00700384330607F
:100BE000306800F00700B84251D128683B4C8107BB
:100BF00012D5400703D5606840F4E0606060287853
:100C0000000703D5606840F4605060606068A968C0
:100C100020F0F000084360602878C00728D068689A
:100C2000012810D02168022810D0890700292EDA67
:100C3000616821F0030101436160FFF71FFF8046F7
:100C400041F288390DE021688903EFE78901EDE77A
:100C5000FFF714FFA0EB0801494502D90320BDE8C6
:100C6000F0876068696800F00C00B0EB810FEFD18D
:100C7000306800F00700B8420BD9306820F0070058
:100C800038433060306800F00700B84201D00120DE
:100C9000E5E72878400705D56068E96820F4E0605A
:100CA000084360602878000706D56068296920F449
:100CB000605040EAC100606000F038F86168084A9E
:100CC000C1F30311515CC84006490860064800683A
:100CD000FFF7F4FE0020C2E70020024000100240AF
:100CE0003E290008100000200800002004480549A3
:100CF00000684968044AC1F30221515CC84070474A
:100D000010000020001002404E2900080448054948
:100D100000684968044AC1F3C221515CC840704769
:100D200010000020001002404E2900080E4A5168B1
:100D30000E4801F00C03042B11D0082B0FD10C48E6
:100D4000C1F38343C903C05C0AD55168084AC1F3A3
:100D50004041921E515C054A5043B0FBF1F0704790
:100D600004494843704700000010024000127A0016
:100D70002E29000800093D002DE9F84F040070D02D
:100D80002078C04DC00749D06868C0F381000128B1
:100D900007D06868C0F38100022809D16868C003E1
:100DA00006D52868800339D560680028E7D035E08B
:100DB0006068B0F5803F0BD010B1B0F5A02F11D016
:100DC000286820F480302860286820F4802002E021
:100DD000286840F480302860606890B1FFF74EFECC
:100DE00006460AE0286840F480202860F0E700BF4B
:100DF000FFF744FE801B642873D828688003F7D56A
:100E00000CE0FFF73BFE064605E000BFFFF736FEAD
:100E1000801B6428F0D828688003F7D420789A4E85
:100E200080074FF001094FF0000839D5686810F0CD
:100E30000C0F07D06868C0F38100022809D16868E8
:100E4000C00306D42868800714D52069012808D17A
:100E500010E02069B0B1C6F80090FFF70FFE07461A
:100E600005E00AE1FFF70AFEC01B0228C4D8286883
:100E70008007F7D52868616920F0F80040EAC100D2
:100E800028600DE0C6F80080FFF7F8FD074604E093
:100E9000FFF7F4FDC01B022823D828688007F7D489
:100EA000207800072CD57948A169D9B1C0F8009005
:100EB000FFF7E4FD074604E0FFF7E0FDC01B022852
:100EC0000FD8686A8007F7D571484FF4FA51006867
:100ED000B0FBF1F0009000BF0098411E0091FAD2E3
:100EE0000EE080E0C0F80080FFF7C8FD074604E090
:100EF000FFF7C4FDC01B022875D8686A8007F7D4C5
:100F00002078400760D5E8690027C00008D4E86968
:100F100040F08050E861E869012700F080500090BF
:100F20005C480168C90513D40168834641F48071A7
:100F30000160FFF7A3FD824606E000BFFFF79EFDBC
:100F4000A0EB0A0064284ED8DBF80000C005F5D5F8
:100F5000E06801280AD008B1052813D0286A20F0DB
:100F600001002862286A20F0040002E0286A40F0AC
:100F700001002862E06841F2883B98B1FFF77EFDEE
:100F800082460BE0286A40F004002862EEE700BFCA
:100F9000FFF774FDA0EB0A0159455AD8286A80076B
:100FA000F6D50CE0FFF76AFD824605E0FFF766FD27
:100FB000A0EB0A0159454CD8286A8007F6D41FB126
:100FC000E86920F08050E861E06988B36968C1F39E
:100FD0008101022944D00228C6F8608004D0FFF7BE
:100FE0004DFD044638E034E0FFF748FD074604E0D5
:100FF000FFF744FDC01B02282BD828688001F7D4D6
:10100000206AB0F5803F05D16868A16820F40030FF
:1010100008436860D4E908010843696821F4741141
:1010200008436860C6F86090FFF728FD044606E0B4
:1010300025E000BFFFF722FD001B022809D8286821
:101040008001F7D51BE000BFFFF718FD001B022849
:1010500002D90320BDE8F88F28688001F4D40EE09F
:101060000128F7D06868226A00F48031914204D1E7
:10107000616A00F47010884201D00120EAE7002084
:10108000E8E70000001002400000424280044242B3
:10109000100000200070004010B5401EB0F1807FAD
:1010A00001D3012010BD4FF0E02460610F216017D3
:1010B00001F093FA0020A06107202061002010BDFC
:1010C0007047704770B590F83C20012A2CD001245D
:1010D00080F83C40022280F83D2003685A689D68F1
:1010E00022F070060A6832435A60104B02689A4236
:1010F0000ED00F4B9A420BD0B2F1804F08D00D4B5F
:101100009A4205D00C4B9A4202D00C4B9A4204D121
:10111000496825F080031943916080F83D40002123
:1011200080F83C10084670BD022070BD002C0140C4
:10113000003401400004004000080040000C004062
:1011400010B5040003D094F83D0010B107E0012071
:1011500010BD002084F83C00204600F01FF802205B
:1011600084F83D00211D206801F01EF8012084F85C
:10117000460084F83E0084F83F0084F8400084F87C
:10118000410084F8420084F8430084F8440084F865
:10119000450084F83D00002010BD000008B500683F
:1011A0000B49884212D10B48C16941F02001C1614D
:1011B000C069012200F02000009002213720FFF7D3
:1011C000CDFCBDE808403720FFF7BABC08BD0000E1
:1011D000001400400010024090F83D10012901D099
:1011E00001207047022180F83D100168CA6842F072
:1011F0000102CA6000680E4988420ED00D4988423B
:101200000BD0B0F1804F08D00B49884205D00B4974
:10121000884202D00A49884204D1816801F007015E
:10122000062903D0016841F00101016000207047E8
:10123000002C014000340140000400400008004040
:10124000000C00402DE9F0410D46040003D094F855
:101250003D0018B108E00120BDE8F081002084F8CD
:101260003C00204600F040F8022084F83D00206851
:10127000816844F2070291438160211D206800F0DB
:1012800093FF226890689169166A2B68AF690343DF
:1012900040F20330814341EA0721A868EF6908431F
:1012A0004FF6FC418843E96840EA0720014328697A
:1012B0002F6A000140EA0730084369686D6926F02B
:1012C000220646EA0515294393602268906154F886
:1012D000460B0162012004F81F09E0752076E076D4
:1012E0002077A0750020B7E710B586B000210091E7
:1012F000019102910391234C03682348C0210222EB
:10130000A3421CD1C36943F00203C361C36903F064
:1013100002030493836943F00403836180690091AD
:1013200000F004000490029269461848FFF7A4FAFE
:10133000002211461D20FFF711FC1D201EE0144C59
:10134000A3421DD1836943F400538361836903F48D
:1013500000530493836943F0100383618069009113
:1013600000F010000490029269460A48FFF784FAE0
:10137000002211462E20FFF7F1FB2E20FFF7E0FBA5
:1013800006B010BD000400400010024000080140FB
:10139000003401400010014070B590F83E600446F2
:1013A00090F83F5090F8423090F84320022021B14D
:1013B00004290ED0012E1BD114E0012E18D1012BCF
:1013C00016D184F83E0084F84200012200212068F2
:1013D00020E0012D0CD1012A0AD184F83F0084F8C5
:1013E000430014E0012D03D1012B01D1012A01D0CA
:1013F000012070BD84F83E0084F83F0084F842006C
:1014000084F8430001220021206800F013FF01222C
:101410000421206800F00EFF2068016841F00101FE
:101420000160002070BD704770B504460068016916
:101430004FF00005C943890715D4C168C94389071E
:1014400011D4E91E0161012020772068806980079E
:10145000204602D0FFF7E7FF04E000F0DFF8204667
:1014600000F0B4F9257720680169C943490717D40A
:10147000C168C943490713D46FF004010161022018
:1014800020772068806910F4407F204602D0FFF763
:10149000CAFF04E000F0C2F8204600F097F9257773
:1014A00020680169C943090716D4C168C9430907FF
:1014B00012D46FF008010161042020772068C06910
:1014C0008007204602D0FFF7AEFF04E000F0A6F848
:1014D000204600F07BF9257720680169C943C906D9
:1014E00017D4C168C943C90613D46FF01001016154
:1014F000082020772068C06910F4407F204602D081
:10150000FFF791FF04E000F089F8204600F05EF953
:10151000257720680169C943C90708D1C168C94353
:10152000C90704D1891E0161204600F0ABF920688B
:101530000169C943090609D4C168C943090605D42C
:101540006FF0800101612046FFF7BAFD2068016954
:10155000C943490609D4C168C943490605D46FF097
:1015600040010161204600F0ABF920680169C943E0
:1015700089060BD4C168C943890607D46FF02001DE
:1015800001612046BDE87040FFF79BBD70BD0000C3
:1015900000B585B000210091019102910391194B92
:1015A0000268194802219A4218D1826942F0200249
:1015B00082618069039100F0200004904803CDE926
:1015C000000169461148FFF757F91148416841F099
:1015D000E06141F48051416005B000BD0D4B9A427D
:1015E000FAD1826942F0040282618069009100F0C0
:1015F00004000191CDE9031069460748FFF73CF963
:10160000EAE700000008004000100240001401401A
:1016100000000140000C004000080140704770B518
:10162000044690F83C0000260D4601280FD001200A
:1016300084F83C006AB1042A1DD0082A2FD00C2A55
:101640003FD00126002084F83C00304670BD0220C7
:1016500070BD206800F0FCFD2068816941F0080140
:1016600081612068816921F00401816120688169BC
:101670002A69114311E0206800F01AFE2068816990
:1016800041F4006181612068816921F48061816198
:10169000206881692A6941EA02218161D2E72068D4
:1016A00000F03CFE2068C16941F00801C16120687A
:1016B000C16921F00401C1612068C1692A6911432F
:1016C00011E0206800F05EFE2068C16941F400610D
:1016D000C1612068C16921F48061C1612068C1696C
:1016E0002A6941EA0221C161ACE710B5040003D0C8
:1016F00094F83D0010B107E0012010BD002084F8EF
:101700003C00204600F01EF8022084F83D00211D18
:10171000206800F049FD012084F8460084F83E006E
:1017200084F83F0084F8400084F8410084F84200C7
:1017300084F8430084F8440084F8450084F83D00B0
:10174000002010BD00B585B00021009101910291EB
:101750000391194A01681948914221D1C16941F0A8
:101760000401C161C16901F004010491816941F082
:10177000200181618069694600F020000490901486
:1017800000900220019003900D48FFF775F80D4876
:10179000416841F0E06141F48051416005B000BD15
:1017A000094A9142FAD1C16941F00801C161C06999
:1017B00000F008000490F1E700080040001002402B
:1017C0000014014000000140000C00407047000080
:1017D00010B50446022249B104290ED0082913D0BD
:1017E00094F84100012816D0012010BD94F83E0065
:1017F0000128F9D184F83E200FE094F83F00012839
:10180000F2D184F83F2008E094F840000128EBD1A1
:1018100084F8402001E084F841200122206800F093
:1018200009FD13492068134A884201D0904203D130
:10183000436C43F400434364206888420DD09042D7
:101840000BD0B0F1804F08D00B49884205D00B492E
:10185000884202D00A49884204D1816801F0070118
:10186000062903D0016841F001010160002010BD8C
:10187000002C0140003401400004004000080040FA
:10188000000C004070B50C49884214D1FEF71AFFD5
:1018900000F008FA0948056985608169C160084659
:1018A000FEF71DFE04462846FEF719FE2146BDE858
:1018B000704000F0BBBB70BD180100201400002078
:1018C0007047704770470000F8B501680446086823
:1018D000CA684B6910F00F0F4FF0000559D003F0A4
:1018E000010602F49077374365D0C10705D0D105D2
:1018F00003D5616C41F001016164410705D5D90749
:1019000003D0616C41F002016164810705D5D907FC
:1019100003D0616C41F004016164010707D502F056
:101920002001314303D0616C41F008016164616CB6
:1019300000293AD0800604D5900602D5204600F052
:1019400078FD20684069616CC0F38010090700D4FD
:1019500060B3204600F046FD20684069400621D56E
:101960002068143050E8001F21F0400140E80012C8
:10197000002AF5D1E06BA8B16D494163E06BFEF739
:10198000E3FE002811D0E06B416B01B0BDE8F040F0
:10199000084783060FD593060DD52046BDE8F840CD
:1019A00000F047BD2046FFF78DFFF8BD2046FFF74A
:1019B00089FF6564F8BD266B2023012E7CD1C60605
:1019C0007AD5D60678D508684868009048694FF0FF
:1019D0000206400640D5E16B086840680004000C30
:1019E000E8D0A28D8242E5D9E085886920282DD0F3
:1019F00020680C3050E8001F21F4807140E800128C
:101A0000002AF5D12068143050E8001F21F00101B0
:101A100040E80012002AF5D12068143050E8001F79
:101A200021F0400140E80012002AF5D184F842304C
:101A3000256320680C3050E8001F21F0100140E8B9
:101A40000012002AF5D1E06BFEF75AFE6663A08D06
:101A5000E18D401A81B22AE0A08DE18D401A81B259
:101A6000E08D0028A6D00029A4D022680C3252E8CC
:101A7000000F20F4907042E80007002FF5D1206895
:101A8000143050E8002F22F0010240E80027002F18
:101A9000F5D184F84230256320680C3050E8002FDF
:101AA00022F0100240E80023002BF5D166632046A7
:101AB000FFF707FFF8BDFFE705062BD5150629D56B
:101AC00094F841002128F5D1A068B0F5805F01D1DC
:101AD0002069B0B1206A411C216221680078486009
:101AE000E08C401E0004000CE084E3D12068C16853
:101AF00021F08001C1602068C16841F04001C160EF
:101B0000D8E7206A0088C0F308004860206A801C7B
:101B10002062E5E74006CDD55006CBD5CA68204601
:101B200022F04002CA6084F8413000F076F8C1E744
:101B3000D523000870B5040004D094F841000025B6
:101B400010B106E0012070BD84F84050204600F03E
:101B500023F8242084F841002068C16821F4005152
:101B6000C160204600F0C6FC2068016921F4904164
:101B700001612068416921F02A0141612068C16842
:101B800041F40051C1606564202084F8410084F86C
:101B900042006563002070BD30B585B0002400941C
:101BA0000194029403940068184988422CD1184883
:101BB000816941F480418161816901F4804104912E
:101BC000816941F0040181618069124D00F00400D7
:101BD00004904FF4007000900220019003200390C5
:101BE00069462846FEF748FE2815CDE900046946F7
:101BF00028460294FEF740FE002211462520FEF7FB
:101C0000ADFF2520FEF79CFF05B030BD0038014038
:101C1000001002400008014070477047FEE70000D6
:101C2000F0B51D4885B0816941F004018161816989
:101C300001F004010491816941F008018161816929
:101C400001F008010491816941F0400181618069DE
:101C500001242025CDE9005400F040000326029421
:101C6000CDE903600D4F69463846FEF705FECDE924
:101C70000054CDE902460A4C69462046FEF7FCFDB9
:101C8000002220213846FEF7F3FE002220212046C4
:101C9000FEF7EEFE05B0F0BD00100240000C014062
:101CA0000018014010B5124C6078012802D0A078CD
:101CB00001281BD12078401CC0B22070022807D315
:101CC0000020207000F0C2FC606100F0A5FCE06123
:101CD0000848616900F0A0FD0748E16900F09CFD3B
:101CE00000F0C2FD206100F099FDA06110BD000070
:101CF00014000020F0010020100200202DE9F04720
:101D000086B00024354800940194029403948169BC
:101D100041F080018161816901F080010491816954
:101D200041F004018161816901F00401049181693C
:101D300041F008018161816901F008010491816924
:101D400041F020018161816901F0200104918169E4
:101D500041F480718161816901F48071049181692C
:101D600041F0100181618069DFF8748000F010009B
:101D70004FF4C0750490012229464046FEF778FED4
:101D80000122DFF86090970339464846FEF770FE5F
:101D9000DFF854A0002218215046FEF769FE009596
:101DA000022601250396CDE9015469464046FEF717
:101DB00063FD00970396CDE9015469464846FEF756
:101DC0005BFD1820CDE90005CDE902466946504685
:101DD000FEF752FD06B0BDE8F0870000001002409B
:101DE000001C0140000C01400020014010B58CB0E7
:101DF00024216846FEF7E3F90024164809941449A3
:101E00000A94C0E900144FF6FF71C0E90241046171
:101E100084610320CDE900040120CDE90204CDE96D
:101E20000404CDE90604089069460A48FFF70AFA57
:101E300008B1FEF744FC099409A906480A94FFF783
:101E400041F9002801D0FEF73AFC0CB010BD0000AB
:101E5000000400404000002010B58AB00024079420
:101E60001C2168460894FEF7AAF917481549016035
:101E70004721C0E9011440F2E731C0E9031484614D
:101E8000FFF733FC08B1FEF71AFC079407A90E48C8
:101E90000894FFF717F908B1FEF711FC60200090D5
:101EA0004FF4FA70CDE9010408226946064804940B
:101EB000FFF7B5FB08B1FEF702FC0348FFF768FB2C
:101EC0000AB010BD000800408800002010B58AB09C
:101ED000002407941C2168460894FEF770F91748FF
:101EE000154901604721C0E9011440F2E731C0E91A
:101EF00003148461FFF7F9FB08B1FEF7E0FB0794D8
:101F000007A90E480894FFF7DDF808B1FEF7D7FBE4
:101F1000602000904FF4FA70CDE901040422694674
:101F200006480494FFF77BFB08B1FEF7C8FB0348A3
:101F3000FFF72EFB0AB010BD000C0040D0000020BF
:101F40001CB500240E4800940C490194016041F630
:101F50001F41C0E9011463218461C160FFF7F0F8FB
:101F600008B1FEF7ACFB0094694605480194FFF701
:101F7000A9F8002801D0FEF7A2FB1CBD0014004008
:101F80001801002010B58CB024216846FEF717F91F
:101F900000241648099414490A94C0E900144FF625
:101FA000FF71C0E902410461446184610320CDE90D
:101FB00000040120CDE90204CDE90404CDE90604C2
:101FC000089069460948FFF73DF908B1FEF777FB2D
:101FD000099409A905480A94FFF774F8002801D06C
:101FE000FEF76DFB0CB010BD003401406001002015
:101FF0000C4810B50A4901604FF4E13141600021FD
:1020000081600C22C160C0E904128161C161FFF7E7
:1020100091FD002803D0BDE81040FEF750BB10BD75
:1020200000380140A8010020FEE700002DE9F04142
:102030000C461D4FDFF8748005004FF4807105D405
:1020400001223846FEF714FD002205E04542002239
:102050003846FEF70DFD012210214046FEF708FD2F
:1020600040F2CA36B54200DD3546002C06DB0122BF
:1020700080213846FEF7FCFC002206E06442002284
:1020800080213846FEF7F4FC012208214046FEF785
:10209000EFFCB44200DD3446A8B200F0B3FBA0B2BE
:1020A000BDE8F04100F098BB001C01400020014059
:1020B000FEE7000030B51749154C0020C1E900408B
:1020C0008860C860144AC861C1E904208861403949
:1020D0004FF08043086048608860C8600B614FF033
:1020E0007C55C861C1E905506031C1E90040886094
:1020F000C860C861C1E9042088614039086048604F
:102100008860C8600B61C861C1E9055030BD00003E
:10211000007C924830020020BC74133C704770472A
:10212000FEF7B2BC30B58FB028216846FEF747F8FD
:1021300014210AA8FEF743F801210804CDE9001094
:102140000024029402250491CDE907504FF4E010D9
:1021500009906846FEF710FE08B172B6FEE70F2040
:10216000CDE90A054FF48060CDE90C4002210AA8B0
:102170000E94FEF725FD002801D072B6FEE70FB0E1
:1021800030BD70470148FFF74FB900004000002004
:102190000148FFF749B90000180100200148FFF786
:1021A00043B9000060010020F0B502681C4B1D4DD2
:1021B0001D4E1E4F1E4C4FF0804C984209D0A0423D
:1021C00007D0604505D0A84203D0B04201D0B84244
:1021D00004D122F0700E4A6842EA0E02984209D0F9
:1021E000A04207D0604505D0A84203D0B04201D03C
:1021F000B84203D122F44075CA682A434D6922F0DF
:1022000080022A4302608A68C2620A688262984237
:1022100001D0A04201D10969016301214161F0BDF2
:10222000002C01400004004000080040000C004069
:102230000034014010B501F01F030121046A9940E8
:102240008C430462016A9A401143016210BD000090
:10225000F0B5036A026A22F00102026242688469F0
:10226000124E24F073050C682C4323F002058B6892
:102270002B430D4DA84201D0B04205D123F00807F1
:10228000CB683B4323F00403A84201D0B04205D100
:102290004D6922F4407215438A692A434260846181
:1022A000496841630362F0BD002C014000340140E5
:1022B000F0B5026A036A23F010030362436884697D
:1022C0000D6824F4E64444EA05248D6822F02002D7
:1022D00042EA05120F4D104EA84201D0B04206D17D
:1022E000CF6822F0800242EA071222F04002A842A0
:1022F00001D0B04207D14D6923F4406343EA85031E
:102300008D6943EA850343608461496881630262A1
:10231000F0BD0000002C014000340140F0B5026A1D
:10232000036A23F4807303624368C46922F4007271
:1023300024F073050C68124E2C438D6842EA052286
:102340000E4DA84201D0B04206D1CF6822F40062FF
:1023500042EA072222F48062A84201D0B04207D1AB
:102360004D6923F4405343EA05138D6943EA05138D
:102370004360C4614968C1630262F0BD002C014042
:102380000034014030B5046A026A22F480520262CD
:102390004268C3690D6823F4E64343EA05238D6868
:1023A00024F4005444EA0534084DA84202D0084DF4
:1023B000A84204D14D6922F4804242EA851242606B
:1023C000C36149680164046230BD0000002C014013
:1023D0000034014010B5406A0021C185C184FFF777
:1023E00071FA10BD01680C3151E8002F22F490728F
:1023F00041E80023002BF5D10168143151E8002F8A
:1024000022F0010241E80023002BF5D1016B0129E4
:1024100009D101680C3151E8002F22F0100241E887
:102420000023002BF5D1202180F842100021016308
:10243000704708B590F84210222901D0022008BD4B
:1024400082684FF480539A4201D1016921B1816AB7
:102450009A421BD04AB10AE00268816A5268C2F30C
:1024600008020A80816A891C08E0026972B1026868
:10247000526802F07F020A70816A491C8162C18D34
:10248000491E0904090CC18503D01BE0026852688B
:10249000F1E70168CA6822F02002CA600168CA68D0
:1024A00022F48072CA6001684A6922F001024A611E
:1024B000202180F8421000214163026B012A03D0E1
:1024C000FFF7AAFB002008BD016301680C3151E849
:1024D000002F22F0100241E80023002BF5D1016803
:1024E0000A68D20602D50A6849680091818DFFF713
:1024F000E8F9E7E770B5044600680169E26821F48D
:102500004051114301612169A06808436169084392
:102510002168CA6841F20C639A430243CA6020688A
:102520004169A26921F44071114341611E4920684B
:10253000884202D1FEF7EAFB01E0FEF7D7FB00EB91
:10254000C00101EB0012606864218000B2FBF0F36F
:10255000B3FBF1F36FF018067343B2FBF0F5B2FB77
:10256000F0F605EB8305322303EB0515B5FBF1F51A
:10257000B6FBF1F605F0F00505EB0615B2FBF0F63B
:10258000B2FBF0F0B0FBF1F06FF01802504306EB35
:10259000800003EB0010B0FBF1F0216800F00F00A9
:1025A0002844886070BD000000380140084810B51C
:1025B0000168086800F00802064842704968017026
:1025C000012100F0C5F8BDE810400148FFF77CB9D3
:1025D000A801002000000020FEE70907090E0028DE
:1025E00004DB00F1E02080F80014704700F00F00D9
:1025F00000F1E02080F8141D704702E008C8121FA7
:1026000008C1002AFAD170477047002001E001C1DB
:10261000121F002AFBD17047084810B50068FDF76B
:1026200044FF0146064800F02BF80649884202DCC8
:102630000549884200D9084610BD00003C00002032
:10264000500200200000F0420000F0C2084810B51F
:102650000068FDF72AFF0146064800F011F8064918
:10266000884202DC0549884200D9084610BD0000B6
:1026700038000020300200200000F0420000F0C2CC
:102680002DE9F04104460068FDF7F6FD0546A0601F
:102690002946E069FDF79EFDE06107462846E168AE
:1026A000FDF7EAFDA169FDF7EDFD064639466069D3
:1026B000FDF7E8FD074629462069FDF7E3FD3946A9
:1026C000FDF788FD3146FDF785FDE5606060BDE8FA
:1026D000F0810000FEF7E0F9FFF724FDFFF70EFBA5
:1026E000FFF72EFCFFF784FCFFF780FBFFF7B4FB3E
:1026F000FFF748FCFFF7EAFB00211148FEF74CFE0C
:1027000004210F48FEF748FE00210E48FEF744FE64
:1027100004210C48FEF740FE0B48FEF75DFDFFF775
:102720007FFAFFF7C7FC09480068C16841F0200143
:10273000C16000F039F800F059F800F041F8FEE708
:10274000600100204000002018010020A8010020A6
:102750002DE9F041DFF84C80054640460C46B8F8BC
:102760000610C38800680A19D8F800701844802A37
:102770000AD9C1F180018EB232462946FDF706FD25
:10278000A21BA919384601E022462946FDF7FEFCA6
:1027900098F80610214401F07F01A8F80610BDE862
:1027A000F08100007C0200200448002101614161A9
:1027B0001830A0F10C010860002070477002002062
:1027C00003490120887008210248FFF701B8000082
:1027D00014000020880000200249C88002490968CE
:1027E000C8637047140000208800002003490120BE
:1027F000487004210248FEF7EBBF000014000020DF
:10280000D000002002498880024909688863704727
:1028100014000020D0000020016070470D4810B562
:10282000B0F90000FDF74AFE00220B4BFDF75CFDFE
:1028300000220A4BFDF758FD0022094BFDF7C6FDAB
:10284000FDF766FEFDF731FE0146BDE81040054884
:1028500000F030B83600002000408F4000004E40AD
:10286000804F2241100200200D4810B5B0F9000041
:10287000FDF724FE00220B4BFDF736FD00220A4B2C
:10288000FDF732FD0022094BFDF7A0FDFDF740FEEC
:10289000FDF70BFE0146BDE81040054800F00AB800
:1028A0003400002000408F4000004E40804F224105
:1028B000F00100202DE9F04104460068FDF7DCFC42
:1028C000A060B0F17C5F04DAB0F13F4F01D200208C
:1028D000A06001460D46E069FDF77CFC1149E0610E
:1028E000884202DA1049884200D9E1612846E1684D
:1028F000FDF7C2FCA169FDF7C5FC0646E169606908
:10290000FDF7C0FC074629462069FDF7BBFC3946A8
:10291000FDF760FC3146FDF75DFCE5606060BDE8F9
:10292000F081000000007A4400007AC40102020332
:102930000405060708090A0B0C0D0E0F1010000005
:10294000000000000000010203040607080900005F
:1029500000000102030400007829000800000020A4
:1029600040000000FA250008B829000840000020B7
:10297000C80600000A260008000000000100000050
:1029800010000000000000000024F400000000001F
:102990000000000000000000000000000000000037
:1029A0000000000000000000000000000000000027
:0829B00000000000000000001F
:0400000508000131BD
:00000001FF
