:020000040800F2
:10000000D004002049010008570C0008C70B000865
:10001000550C0008E10100081B0E0008000000005C
:100020000000000000000000000000005B0C000861
:10003000E301000800000000590C00085D0C0008F6
:100040006301000863010008630100086301000800
:1000500063010008630100086301000863010008F0
:1000600063010008630100086301000863010008E0
:1000700063010008630100086301000863010008D0
:1000800063010008630100086301000863010008C0
:1000900063010008630100086301000863010008B0
:1000A00063010008630100086301000863010008A0
:1000B0006301000863010008630100086301000890
:1000C0006301000863010008630100086301000880
:1000D0006301000863010008630100086301000870
:1000E0006301000863010008630100086301000860
:1000F0006301000863010008630100086301000850
:10010000630100086301000863010008630100083F
:10011000630100086301000863010008630100082F
:10012000630100086301000863010008630100081F
:10013000DFF810D000F042F800480047E90F00084F
:10014000AFF30080D00400200648804706480047EF
:10015000FEE7FEE7FEE7FEE7FEE7FEE7FEE7FEE777
:10016000FEE7FEE7B10C000831010008D2B201E061
:1001700000F8012B491EFBD270470022F6E710B5AC
:1001800013460A4604461946FFF7F0FF204610BD05
:1001900030B50B46014600202022012409E021FA57
:1001A00002F59D4205D303FA02F5491B04FA02F554
:1001B0002844151EA2F10102F1DC30BD064C074DAA
:1001C00006E0E06840F0010394E807009847103427
:1001D000AC42F6D3FFF7B0FF6410000884100008AB
:1001E000FEE7704772B6FEE72DE9F84FDFF8C891D9
:1001F0000024A9F1040B23460F2709F1040AABF1EF
:10020000040ED1E00125A54006EA0502AA4276D1F6
:10021000DFF8A8C14E68A6EB0C0866452BD00DDCB4
:10022000032E34D005DC36B3012E19D0022E2FD187
:100230001BE0112E16D0122E2AD119E0B8F5881F16
:1002400019D006DCB8F5803F15D0B8F5801F1FD156
:1002500011E0B8F5001F0ED0B8F5041F18D10AE060
:10026000CB6815E0CB681B1D12E0CB6808330FE0AC
:10027000CB680C330CE08B682BB1012B4FF00803DB
:1002800003D0456104E0042302E0056100E000239F
:10029000FF2A01D8064601E000F104064FEA840572
:1002A00001D9A5F12005D6F8008007FA05FC28EA57
:1002B0000C0803FA05F548EA0508C6F800804D6801
:1002C000ED0070D53E4DAE6946F00106AE61AD69F8
:1002D00024F0030605F0010500953A4D06EB050CE8
:1002E000DCF80850A607360F07FA06F825EA0805D5
:1002F000DFF8D480404503D14FF0000825E052E0FC
:10030000DFF8C880404502D14FF001081DE0DFF85A
:10031000C080404502D14FF0020816E0DFF8B480FB
:10032000404502D14FF003080FE0DFF8AC804045B4
:1003300002D14FF0040808E0DFF8A080404502D168
:100340004FF0050801E04FF0060808FA06F848EA01
:100350000508CCF808804D68D9F80060ED024D46DC
:1003600001D5164300E096432E604D68DAF8006030
:10037000AD02554601D5164300E096432E604D6808
:10038000DBF80060AD035D4601D5164300E09643FF
:100390002E604D68DEF80060ED03754601D516430A
:1003A00000E096432E60641C0A681646E2407FF423
:1003B00029AFBDE8F88F00000804014000001110CB
:1003C000001002400000014000080140000C014004
:1003D000001001400014014000180140001C0140C1
:1003E00001488068704700000400002002488168CE
:1003F000027811448160704704000020074810B55E
:10040000016841F010010160032000F067F80F203F
:1004100000F006F800F024F8002010BD0020024093
:1004200070B50D4D04464FF47A712878B1FBF0F0A9
:100430000A490968B1FBF0F000F0CEFA48B9102C77
:1004400007D200222146501E00F028F800206C60E0
:1004500070BD012070BD00000400002010000020CD
:100460000C4808B5816941F001018161816901F0A1
:1004700001010091C16941F08051C161C06900F082
:10048000805000900448416821F0E06141F0007123
:10049000416008BD0010024000000140F0B40E4B66
:1004A0001B680C46C3F30223C3F10705042D00D9D2
:1004B0000425191D072901D2002300E0DB1E0126B7
:1004C00006FA05F1491E214099409E40761E1640CD
:1004D0003143F0BC00F0B2BC0CED00E0064900F086
:1004E000070208684FF6FF03184040EA0220034A5B
:1004F00010430860704700000CED00E00000FA05B2
:100500002DE9F0470F46050061D0434E306800F0FA
:100510000700B84209D2306820F007003843306045
:10052000306800F00700B84251D128683B4C810781
:1005300012D5400703D5606840F4E0606060287819
:10054000000703D5606840F4605060606068A96887
:1005500020F0F000084360602878C00728D0686861
:10056000012810D02168022810D0890700292EDA2E
:10057000616821F0030101436160FFF731FF8046AC
:1005800041F288390DE021688903EFE78901EDE741
:10059000FFF726FFA0EB0801494502D90320BDE87B
:1005A000F0876068696800F00C00B0EB810FEFD154
:1005B000306800F00700B8420BD9306820F007001F
:1005C00038433060306800F00700B84201D00120A5
:1005D000E5E72878400705D56068E96820F4E06021
:1005E000084360602878000706D56068296920F410
:1005F000605040EAC100606000F038F86168084A65
:10060000C1F30311515CC840064908600648006800
:10061000FFF706FF0020C2E7002002400010024062
:100620004A10000810000020080000200448054976
:1006300000684968044AC1F30221515CC840704710
:1006400010000020001002405A100008044805491C
:1006500000684968044AC1F3C221515CC840704730
:1006600010000020001002405A1000080E4A516885
:100670000E4801F00C03042B11D0082B0FD10C48AD
:10068000C1F38343C903C05C0AD55168084AC1F36A
:100690004041921E515C054A5043B0FBF1F0704757
:1006A00004494843704700000010024000127A00DD
:1006B0003A10000800093D002DE9F84F040070D001
:1006C0002078C04DC00749D06868C0F38100012878
:1006D00007D06868C0F38100022809D16868C003A8
:1006E00006D52868800339D560680028E7D035E052
:1006F0006068B0F5803F0BD010B1B0F5A02F11D0DD
:10070000286820F480302860286820F4802002E0E7
:10071000286840F480302860606890B1FFF760FE80
:1007200006460AE0286840F480202860F0E700BF11
:10073000FFF756FE801B642873D828688003F7D51E
:100740000CE0FFF74DFE064605E000BFFFF748FE50
:10075000801B6428F0D828688003F7D420789A4E4C
:1007600080074FF001094FF0000839D5686810F094
:100770000C0F07D06868C0F38100022809D16868AF
:10078000C00306D42868800714D52069012808D141
:1007900010E02069B0B1C6F80090FFF721FE0746CF
:1007A00005E00AE1FFF71CFEC01B0228C4D8286838
:1007B0008007F7D52868616920F0F80040EAC10099
:1007C00028600DE0C6F80080FFF70AFE074604E047
:1007D000FFF706FEC01B022823D828688007F7D43D
:1007E000207800072CD57948A169D9B1C0F80090CC
:1007F000FFF7F6FD074604E0FFF7F2FDC01B0228F5
:100800000FD8686A8007F7D571484FF4FA5100682D
:10081000B0FBF1F0009000BF0098411E0091FAD2A9
:100820000EE080E0C0F80080FFF7DAFD074604E044
:10083000FFF7D6FDC01B022875D8686A8007F7D479
:100840002078400760D5E8690027C00008D4E8692F
:1008500040F08050E861E869012700F08050009086
:100860005C480168C90513D40168834641F480716E
:100870000160FFF7B5FD824606E000BFFFF7B0FD5F
:10088000A0EB0A0064284ED8DBF80000C005F5D5BF
:10089000E06801280AD008B1052813D0286A20F0A2
:1008A00001002862286A20F0040002E0286A40F073
:1008B00001002862E06841F2883B98B1FFF790FDA3
:1008C00082460BE0286A40F004002862EEE700BF91
:1008D000FFF786FDA0EB0A0159455AD8286A800720
:1008E000F6D50CE0FFF77CFD824605E0FFF778FDCA
:1008F000A0EB0A0159454CD8286A8007F6D41FB1ED
:10090000E86920F08050E861E06988B36968C1F364
:100910008101022944D00228C6F8608004D0FFF784
:100920005FFD044638E034E0FFF75AFD074604E077
:10093000FFF756FDC01B02282BD828688001F7D48A
:10094000206AB0F5803F05D16868A16820F40030C6
:1009500008436860D4E908010843696821F4741108
:1009600008436860C6F86090FFF73AFD044606E069
:1009700025E000BFFFF734FD001B022809D82868D6
:100980008001F7D51BE000BFFFF72AFD001B0228FE
:1009900002D90320BDE8F88F28688001F4D40EE066
:1009A0000128F7D06868226A00F48031914204D1AE
:1009B000616A00F47010884201D00120EAE700204B
:1009C000E8E700000010024000004242800442427A
:1009D000100000200070004010B5401EB0F1807F74
:1009E00001D3012010BD4FF0E02460610F2160179A
:1009F00000F024FA0020A06107202061002010BD33
:100A000070B5040004D094F84100002510B106E050
:100A1000012070BD84F84050204600F023F82420C7
:100A200084F841002068C16821F40051C16020466B
:100A300000F040F92068016921F4904101612068CB
:100A4000416921F02A0141612068C16841F40051E7
:100A5000C1606564202084F8410084F84200656329
:100A6000002070BD70B586B00024009401940294FB
:100A70000394234E0368234902200322224DB342EC
:100A800019D18B6943F480438B618B6903F48043F4
:100A900004938B6943F004038B618969039201F02D
:100AA000040104910102CDE9001069462846FFF7D0
:100AB0009BFB28151BE0154EB3421FD1CB6943F4B5
:100AC0000033CB61CB6903F4003304938B6943F0AB
:100AD00004038B618969039201F0040104910421EC
:100AE000CDE9001069462846FFF77EFB0820CDE9D6
:100AF0000004694628460294FFF776FB06B070BDF5
:100B0000003801400010024000080140004400404D
:100B100090F84230202B01D00220704721B11AB149
:100B20000023036300F022B9012070472DE9F84348
:100B3000044690F841001F4616460D46202802D074
:100B40000220BDE8F8837DB176B1002060642120E9
:100B500084F84100FFF744FCA6848046E684A06840
:100B6000B0F5805F02D003E00120EAE7206910B110
:100B70002E4600250EE000260CE08021204600F0E5
:100B800010F9A0B9AEB116F8010B21684860E08CED
:100B9000401EE084E08C43464FF00002009700289E
:100BA000EBD14FF04001204600F0FBF830B10320BC
:100BB000C7E735F8020BC0F30800E6E7202084F809
:100BC00041000020BDE7FEE7054808B5816941F016
:100BD00004018161806900F00400009008BD0000FC
:100BE000001002400C4810B50A4901604FF4E13191
:100BF0004160002181600C22C160C0E90412816162
:100C0000C161FFF7FDFE002803D0BDE81040FFF7EB
:100C1000E9BA10BD003801403C0000200C4810B576
:100C20000A4901604FF416514160002181600C2295
:100C3000C160C0E904128161C161FFF7E1FE0028D3
:100C400003D0BDE81040FFF7CDBA10BD004400400E
:100C500084000020FEE7FEE770477047FFF7C6BB41
:100C600010B590B028216846FFF787FA14210AA82A
:100C7000FFF783FA02200090012004901020002446
:100C8000059007946846FFF717FD08B172B6FEE7B6
:100C90000F20CDE90A040C940D9400210AA80E94AB
:100CA000FFF72EFC002801D072B6FEE710B010BD91
:100CB0007047000070B5044600680169E26821F4DD
:100CC0004051114301612169A068084361690843EB
:100CD0002168CA6841F20C639A430243CA602068E3
:100CE0004169A26921F44071114341611E492068A4
:100CF000884202D1FFF7AAFC01E0FFF797FC00EB66
:100D0000C00101EB0012606864218000B2FBF0F3C7
:100D1000B3FBF1F36FF018067343B2FBF0F5B2FBCF
:100D2000F0F605EB8305322303EB0515B5FBF1F572
:100D3000B6FBF1F605F0F00505EB0615B2FBF0F693
:100D4000B2FBF0F0B0FBF1F06FF01802504306EB8D
:100D5000800003EB0010B0FBF1F0216800F00F0001
:100D60002844886070BD000000380140816282859F
:100D7000C28500214164222180F84210016921B11D
:100D80000168CA6842F48072CA6001684A6942F028
:100D900001024A610068C16841F02001C160002081
:100DA00070472DE9F041984617460E460446069DC9
:100DB00027E0681C25D02DB1FFF712FBA0EB08003F
:100DC000A8421ED920680C3050E8001F21F4D071D1
:100DD00040E80012002AF5D12068143050E8001FC6
:100DE00021F0010140E80012002AF5D1202084F80A
:100DF000410084F84200002084F840000320BDE850
:100E0000F0812068006836EA000004D00020B84273
:100E1000CFD00020F3E70120F9E7FEE70FB4054B40
:100E200010B503A9044A029800F028F810BC5DF838
:100E300014FB0000D10F0008140000200907090E60
:100E4000002804DB00F1E02080F80014704700F077
:100E50000F0000F1E02080F8141D704702E008C880
:100E6000121F08C1002AFAD170477047002001E024
:100E700001C1121F002AFBD1704700002DE9FF4F6E
:100E800089B09B460446002506E025280BD05A462B
:100E90000B999047641C6D1C20780028F5D10DB08B
:100EA0002846BDE8F08F0027B8460122474900E0F8
:100EB000074314F8013F203B02FA03F00842F7D140
:100EC00020782E2819D114F8010F47F004072A289A
:100ED0000ED06FF02F022078A0F1300109290CD834
:100EE00008EB880102EB410100EB0108641CF2E70A
:100EF0000A98641C50F8048B0A9020780028CED001
:100F0000642808D0692806D075281ED05A460B9947
:100F100090476D1C58E00A994FF00A0901C90A91DF
:100F2000002802DA40422D2102E0390504D52B21A8
:100F30008DF82010012103E0F90704D02021F7E704
:100F40008A4608AE0DE00021FAE70A994FF00A0937
:100F500001C90A91F7E74946FFF71AF9303106F857
:100F6000011D0028F7D1ADEB060000F1200978073C
:100F700001D44FF00108C84502DDA8EB090000E0EC
:100F800000208046002706E008A85A46C05D0B995D
:100F900090476D1C7F1C5745F6DB04E030205A4615
:100FA0000B9990476D1CB8F10001A8F10108F5DC20
:100FB00005E016F8010B5A460B9990476D1CB9F1E4
:100FC0000001A9F10109F4DC641C65E709280100AE
:100FD00013B54FF47A73012269460248FFF7A6FD64
:100FE00000981CBD3C00002008B5FFF707FAFFF78A
:100FF00037FEFFF7E9FDFFF7F5FDFFF70FFE0122D2
:1010000006490748FFF784FD064CE068009094E825
:101010000E0005A0FFF702FFF7E700000000002028
:10102000840000201800002025642C2025642C203A
:1010300025642C2025640A0001020203040506072A
:1010400008090A0B0C0D0E0F101000000000000024
:101050000000010203040607080900000000010265
:1010600003040000841000080000002018000000A5
:101070005C0E00089C10000818000020B804000056
:101080006C0E0008000000000100000010000000CD
:0C109000000000000024F400000000003C
:0400000508000131BD
:00000001FF
