:020000040800F2
:10000000C80700204901000873240008C11F000828
:100010007124000895020008852A000800000000ED
:10002000000000000000000000000000FB240008A9
:100030009702000800000000F9240008FD240008D1
:100040006301000863010008630100086301000800
:1000500063010008630100086301000863010008F0
:1000600063010008630100086301000863010008E0
:1000700063010008630100086301000863010008D0
:100080006301000863010008B5010008630100086E
:1000900063010008630100086301000863010008B0
:1000A00063010008630100086301000863010008A0
:1000B000630100087D250008630100086301000852
:1000C0006301000863010008630100086301000880
:1000D00063010008612A00086D2A0008792A0008D7
:1000E0006301000863010008630100086301000860
:1000F00063010008630100089525000863010008FA
:10010000630100086301000863010008630100083F
:10011000CD27000863010008630100088925000855
:10012000630100086301000863010008630100081F
:10013000DFF810D000F02CF800480047992C000898
:10014000AFF30080C80700200648804706480047F4
:10015000FEE7FEE7FEE7FEE7FEE7FEE7FEE7FEE777
:10016000FEE7FEE77B25000831010008D2B201E07E
:1001700000F8012B491EFBD270470022F6E710B5AC
:1001800013460A4604461946FFF7F0FF204610BD05
:10019000064C074D06E0E06840F0010394E80700D4
:1001A00098471034AC42F6D3FFF7C6FF582D00082D
:1001B000782D0008014800F000B900002800002058
:1001C00070B5044600688168C943C90717D18168C2
:1001D00021F00101816000F04DFC05460AE000BFFE
:1001E00000F048FC401B022804D920688068C04306
:1001F000C00706D020688068C043C007F0D0002048
:1002000070BDA06A40F01000A062E06A40F00100FA
:10021000E062012070BD0000F8B50026044600969B
:1002200000688168C943C9072DD0816841F0010188
:100230008160164816490068B0FBF1F000E0401EEE
:1002400000900028FBD100F015FC054616E000BF29
:1002500000F010FC401B022810D920688068C043C1
:10026000C0070BD0A06A40F01000A062E06A40F026
:100270000100E06284F824600120F8BD20688068F5
:10028000C043C007E4D10020F8BD000014000020E6
:1002900040420F00FEE7704772B6FEE7704700006D
:1002A000F8B50024009490F824202546012A12D0A5
:1002B000012280F824204A681F23072A0DD20668ED
:1002C000776B521E02EB820293409F430B68934070
:1002D0001F43776319E00220F8BD06680D2A0AD291
:1002E000376BD21F02EB820293409F430B6893400F
:1002F0001F43376309E0F76A0D3A02EB820293402D
:100300009F430B6893401F43F7620A680723066800
:100310000A2A0AD3F7680A3A02EB420293409F4343
:100320008B6893401F43F76008E0376902EB420295
:1003300093409F438B6893401F4337610A68102A9C
:1003400001D0112A20D1124B02689A4217D193682A
:100350001B0219D4936843F40003936009681029C1
:1003600012D10C490C4A0968B1FBF2F101EB810191
:10037000490000E0491E00910029FBD104E0816A98
:1003800041F020018162012480F824502046F8BD0C
:10039000002401401400002040420F0010B5034823
:1003A00000F008F80249086010BD00002800002095
:1003B000040000200068C06C704770B504460068F7
:1003C00006684568A90625D5B10723D5A16AC906DF
:1003D00003D4A16A41F40071A1628168C1F3424172
:1003E000072910D1217B71B9416821F020014160BA
:1003F000A06A20F48070A062A06AC00403D4A06A3E
:1004000040F00100A0622046FFF7C8FF21686FF0AE
:100410001200086028062ED570072CD5A06AC006E9
:1004200003D4A06A40F40050A06220688168C1F340
:100430000231072909D04168490515D48168C1F303
:100440004241072910D1217B71B9416821F0800117
:100450004160A06A20F48050A062A06AC00503D465
:10046000A06A40F00100A0622046FFF717FF216854
:100470006FF00C00086068060CD5F0070AD0A06A7F
:1004800040F48030A062204600F096F821686FF0BA
:100490000100086070BD00002DE9F04104004FF03C
:1004A00000057FD0A06A002628B9E66284F824609F
:1004B000204600F083F82046FFF782FEA16AC906B5
:1004C00000D420B1A06A40F01000A0626AE0A16AE6
:1004D00021F4885141F00201A162334923688B4223
:1004E000E16904D1B1F5402F01D14FF40021277B00
:1004F0004FF4807C41EA470261680A43A168614584
:1005000008D0012906D0002194F814E0BEF1010FB3
:1005100002D00AE06146F7E7C7B1A76A47F02007B3
:10052000A762E76A47F00107E7625F6827F4694757
:100530000F435F60236899681C4F394011439960ED
:10054000A16861450BD0012909D00CE0DFF860E01B
:10055000A7690EEB47370F4347F40061E5E7218AAF
:100560000D05A5F580152168CB6A23F470032B4394
:10057000CB62216889680F4B1940914208D1E6622D
:10058000A16A21F0020141F00101A162BDE8F08100
:10059000A06A20F0020040F01000A062E06A40F083
:1005A0000100E0620120F1E7003C0140FDF7E1FFBE
:1005B00000E0FFFFFE0E1FFF7047000000B585B092
:1005C0000021009101910291039100681249884233
:1005D00020D11248816941F400718161816901F47F
:1005E00000710491816941F0080181618069694667
:1005F00000F00800049001200090032001900848BA
:1006000000F032F901220321122000F0A3FA122097
:1006100000F092FA05B000BD002401400010024035
:10062000000C014070B5044690F8240001280DD05C
:10063000012084F824002046FFF7EEFD02004FF071
:10064000000005D084F82400104670BD022070BD63
:10065000A16A40F60163994341F48071A162224D81
:1006600023682249AB4218D10E6816F4702F14D0BB
:10067000A66A46F48016A6620E68760505D5A66AB7
:1006800026F4005646F48056A662A66AF6040AD5F9
:10069000E66A26F00606E66206E0A66A26F48016FA
:1006A000A6625E68E9E7E06284F824006FF0020069
:1006B00018602068436843F0200343602068836823
:1006C000C3F34243072B05D1A84208D1096811F4AE
:1006D000702F04D0816841F480118160B4E7816893
:1006E00041F4A001F9E70000002801400424014082
:1006F00010B590F821100022022905D00421816351
:1007000080F82020012010BD01680B6823F00E0343
:100710000B6001680B6823F001030B6090F8403018
:10072000C46B012101FA03F3636080F8211080F8A3
:100730002020104610BD00002DE9F05F90F8211038
:100740000024022903D004218163012485E001688B
:100750000A6822F00E020A6001680A6822F00102AB
:100760000A603F4E3E4FB215DFF8F4C0DFF8F0905C
:10077000DFF8ECA0DFF8E8B0DFF8E4E00168783FEC
:1007800013011502ACF1640CA9F15009AAF13C0A5D
:10079000ABF1280BAEF1140E4FF48018B14227D9FB
:1007A000B9420ED0614512D049451DD0514518D0EF
:1007B000594518D0714501D1424615E0294EB14244
:1007C00001D1012210E0274E1436B14201D110228E
:1007D0000AE0244E2836B14206D0224A3C329142E9
:1007E00001D11A4600E02A461E49091F0A602BE083
:1007F000B94213D0614517D0494522D051451DD08B
:1008000059451DD0714501D142461AE0B14202D18D
:100810004FF0807215E0134EB14201D1012210E079
:10082000104E1436B14201D110220AE00D4E283686
:10083000B14206D00B4A3C32914201D11A4600E047
:100840002A46074980394A60012180F82110002199
:1008500080F82010416B01B188472046BDE8F09F29
:1008600080000240080402402DE9F84FDFF8C891EB
:100870000024A9F1040B23460F2709F1040AABF168
:10088000040ED1E00125A54006EA0502AA4276D170
:10089000DFF8A8C14E68A6EB0C0866452BD00DDC2E
:1008A000032E34D005DC36B3012E19D0022E2FD101
:1008B0001BE0112E16D0122E2AD119E0B8F5881F90
:1008C00019D006DCB8F5803F15D0B8F5801F1FD1D0
:1008D00011E0B8F5001F0ED0B8F5041F18D10AE0DA
:1008E000CB6815E0CB681B1D12E0CB6808330FE026
:1008F000CB680C330CE08B682BB1012B4FF0080355
:1009000003D0456104E0042302E0056100E0002318
:10091000FF2A01D8064601E000F104064FEA8405EB
:1009200001D9A5F12005D6F8008007FA05FC28EAD0
:100930000C0803FA05F548EA0508C6F800804D687A
:10094000ED0070D53E4DAE6946F00106AE61AD6971
:1009500024F0030605F0010500953A4D06EB050C61
:10096000DCF80850A607360F07FA06F825EA08054E
:10097000DFF8D480404503D14FF0000825E052E075
:10098000DFF8C880404502D14FF001081DE0DFF8D4
:10099000C080404502D14FF0020816E0DFF8B48075
:1009A000404502D14FF003080FE0DFF8AC8040452E
:1009B00002D14FF0040808E0DFF8A080404502D1E2
:1009C0004FF0050801E04FF0060808FA06F848EA7B
:1009D0000508CCF808804D68D9F80060ED024D4656
:1009E00001D5164300E096432E604D68DAF80060AA
:1009F000AD02554601D5164300E096432E604D6882
:100A0000DBF80060AD035D4601D5164300E0964378
:100A10002E604D68DEF80060ED03754601D5164383
:100A200000E096432E60641C0A681646E2407FF49C
:100A300029AFBDE8F88F0000080401400000111044
:100A4000001002400000014000080140000C01407D
:100A5000001001400014014000180140001C01403A
:100A60008068084000D0012070470AB101617047DA
:100A70000904FBE701488068704700000800002077
:100A800002488168027811448160704708000020A4
:100A9000074810B5016841F010010160032000F023
:100AA00079F8002000F006F800F024F8002010BDCE
:100AB0000020024070B50D4D04464FF47A7128783D
:100AC000B1FBF0F00A490968B1FBF0F000F056FB09
:100AD00048B9102C07D200222146501E00F03AF8E7
:100AE00000206C6070BD012070BD00000800002077
:100AF000140000200E4808B5816941F001018161B0
:100B0000816901F001010091C16941F08051C16129
:100B1000C06900F080500090052000F03BF80548C7
:100B2000416821F0E06141F00071416008BD0000C2
:100B30000010024000000140002809DB00F01F0205
:100B4000012191404009800000F1E020C0F800112F
:100B500070470000F0B40E4B1B680C46C3F3022331
:100B6000C3F10705042D00D90425191D072901D259
:100B7000002300E0DB1E012606FA05F1491E214094
:100B800099409E40761E16403143F0BC01F084BF70
:100B90000CED00E0064900F0070208684FF6FF037D
:100BA000184040EA0220034A1043086070470000E2
:100BB0000CED00E00000FA052DE9F8430546007849
:100BC000354CC00754D0E0690026C00008D4E06965
:100BD00040F08050E061E069012600F08050009014
:100BE0002E480168C90512D40168804641F480711D
:100BF0000160FFF73FFF074605E000BFFFF73AFF40
:100C0000C01B642823D8D8F80000C005F6D5206A98
:100C100010F4407021D0A98801F4407181421CD0A9
:100C2000206A1F49012220F440700A6000220A60F5
:100C30002062C00711D0FFF71DFF074641F2883838
:100C400008E000BFFFF716FFC11B414502D9032092
:100C5000BDE8F883206A8007F4D5206A696820F42B
:100C60004070084320621EB1E06920F08050E061CE
:100C70002878800705D56068A96820F440400843BB
:100C800060602878C00605D56068696920F4800036
:100C9000084360600020DBE7001002400070004065
:100CA000400442422DE9F0470F46050061D0434E13
:100CB000306800F00700B84209D2306820F0070021
:100CC00038433060306800F00700B84251D12868DE
:100CD0003B4C810712D5400703D5606840F4E060C3
:100CE00060602878000703D5606840F46050606059
:100CF0006068A96820F0F000084360602878C007A9
:100D000028D06868012810D02168022810D08907EF
:100D100000292EDA616821F0030101436160FFF7C9
:100D2000A9FE804641F288390DE021688903EFE78A
:100D30008901EDE7FFF79EFEA0EB0801494502D9C6
:100D40000320BDE8F0876068696800F00C00B0EB34
:100D5000810FEFD1306800F00700B8420BD930683E
:100D600020F0070038433060306800F00700B842D8
:100D700001D00120E5E72878400705D56068E968DB
:100D800020F4E060084360602878000706D56068BA
:100D9000296920F4605040EAC100606000F038F832
:100DA0006168084AC1F30311515CC84006490860F4
:100DB00006480068FFF77EFE0020C2E700200240E0
:100DC000001002403E2D0008140000200C000020FE
:100DD0000448054900684968044AC1F30221515C8E
:100DE000C840704714000020001002404E2D00083B
:100DF0000448054900684968044AC1F3C221515CAE
:100E0000C840704714000020001002404E2D00081A
:100E10000E4A51680E4801F00C03042B11D0082B28
:100E20000FD10C48C1F38343C903C05C0AD5516894
:100E3000084AC1F34041921E515C054A5043B0FB41
:100E4000F1F0704704494843704700000010024029
:100E500000127A002E2D000800093D002DE9F84F00
:100E6000040070D02078C04DC00749D06868C0F336
:100E70008100012807D06868C0F38100022809D1E9
:100E80006868C00306D52868800339D560680028E3
:100E9000E7D035E06068B0F5803F0BD010B1B0F519
:100EA000A02F11D0286820F480302860286820F412
:100EB000802002E0286840F480302860606890B1AB
:100EC000FFF7D8FD06460AE0286840F48020286035
:100ED000F0E700BFFFF7CEFD801B642873D82868B9
:100EE0008003F7D50CE0FFF7C5FD064605E000BF1F
:100EF000FFF7C0FD801B6428F0D828688003F7D472
:100F000020789A4E80074FF001094FF0000839D53C
:100F1000686810F00C0F07D06868C0F381000228E1
:100F200009D16868C00306D42868800714D52069F1
:100F3000012808D110E02069B0B1C6F80090FFF791
:100F400099FD074605E00AE1FFF794FDC01B022862
:100F5000C4D828688007F7D52868616920F0F800B0
:100F600040EAC10028600DE0C6F80080FFF782FD6E
:100F7000074604E0FFF77EFDC01B022823D828683F
:100F80008007F7D4207800072CD57948A169D9B11A
:100F9000C0F80090FFF76EFD074604E0FFF76AFD1A
:100FA000C01B02280FD8686A8007F7D571484FF434
:100FB000FA510068B0FBF1F0009000BF0098411EAC
:100FC0000091FAD20EE080E0C0F80080FFF752FDF9
:100FD000074604E0FFF74EFDC01B022875D8686A7B
:100FE0008007F7D42078400760D5E8690027C00063
:100FF00008D4E86940F08050E861E869012700F012
:10100000805000905C480168C90513D4016883468C
:1010100041F480710160FFF72DFD824606E000BFBC
:10102000FFF728FDA0EB0A0064284ED8DBF800008B
:10103000C005F5D5E06801280AD008B1052813D00D
:10104000286A20F001002862286A20F0040002E0EB
:10105000286A40F001002862E06841F2883B98B1BC
:10106000FFF708FD82460BE0286A40F00400286282
:10107000EEE700BFFFF7FEFCA0EB0A0159455AD886
:10108000286A8007F6D50CE0FFF7F4FC824605E0FD
:10109000FFF7F0FCA0EB0A0159454CD8286A8007FD
:1010A000F6D41FB1E86920F08050E861E06988B3A8
:1010B0006968C1F38101022944D00228C6F8608022
:1010C00004D0FFF7D7FC044638E034E0FFF7D2FC49
:1010D000074604E0FFF7CEFCC01B02282BD8286887
:1010E0008001F7D4206AB0F5803F05D16868A16817
:1010F00020F4003008436860D4E9080108436968B7
:1011000021F4741108436860C6F86090FFF7B2FCE0
:10111000044606E025E000BFFFF7ACFC001B0228F8
:1011200009D828688001F7D51BE000BFFFF7A2FCB3
:10113000001B022802D90320BDE8F88F286880012F
:10114000F4D40EE00128F7D06868226A00F48031F8
:10115000914204D1616A00F47010884201D00120EC
:10116000EAE70020E8E700000010024000004242E9
:1011700080044242140000200070004010B5401E60
:10118000B0F1807F01D3012010BD4FF0E0246061F9
:101190000F21601701F080FC0020A0610720206172
:1011A000002010BD7047704770B590F83C20012AB0
:1011B0002CD0012480F83C40022280F83D200368B6
:1011C0005A689D6822F070060A6832435A60104BD4
:1011D00002689A420ED00F4B9A420BD0B2F1804F68
:1011E00008D00D4B9A4205D00C4B9A4202D00C4BC2
:1011F0009A4204D1496825F080031943916080F830
:101200003D40002180F83C10084670BD022070BDB2
:10121000002C014000340140000400400008004060
:10122000000C004010B5040003D094F83D0010B14C
:1012300007E0012010BD002084F83C00204600F0AB
:101240001FF8022084F83D00211D206801F0A8F954
:10125000012084F8460084F83E0084F83F0084F8BA
:10126000400084F8410084F8420084F8430084F888
:10127000440084F8450084F83D00002010BD0000C3
:1012800008B500680B49884212D10B48C16941F08A
:101290002001C161C069012200F0200000900221FC
:1012A0003720FFF757FCBDE808403720FFF744BC64
:1012B00008BD0000001400400010024090F83D10EE
:1012C000012901D001207047022180F83D100168FA
:1012D000CA6842F00102CA6000680E4988420ED016
:1012E0000D4988420BD0B0F1804F08D00B4988429D
:1012F00005D00B49884202D00A49884204D181684E
:1013000001F00701062903D0016841F001010160E5
:1013100000207047002C01400034014000040040D0
:1013200000080040000C00402DE9F0410D4604008B
:1013300003D094F83D0018B108E00120BDE8F08129
:10134000002084F83C00204600F040F8022084F899
:101350003D002068816844F2070291438160211DAD
:10136000206801F01DF9226890689169166A2B685F
:10137000AF69034340F20330814341EA0721A86883
:10138000EF6908434FF6FC418843E96840EA0720CB
:10139000014328692F6A000140EA07300843696861
:1013A0006D6926F0220646EA0515294393602268F6
:1013B000906154F8460B0162012004F81F09E075A2
:1013C0002076E0762077A0750020B7E710B586B0CC
:1013D00000210091019102910391234C036823485D
:1013E000C0210222A3421CD1C36943F00203C3619E
:1013F000C36903F002030493836943F00403836128
:101400008069009100F00400049002926946184837
:10141000FFF72AFA002201211D20FFF79BFB1D2068
:101420001EE0144CA3421DD1836943F40053836131
:10143000836903F400530493836943F010038361C9
:101440008069009100F010000490029269460A48F9
:10145000FFF70AFA002211462E20FFF77BFB2E2011
:10146000FFF76AFB06B010BD000400400010024008
:1014700000080140003401400010014070B590F8B0
:101480003E60044690F83F5090F8423090F8432078
:10149000022021B104290ED0012E1BD114E0012E0F
:1014A00018D1012B16D184F83E0084F842000122A5
:1014B0000021206820E0012D0CD1012A0AD184F8F6
:1014C0003F0084F8430014E0012D03D1012B01D12A
:1014D000012A01D0012070BD84F83E0084F83F004D
:1014E00084F8420084F8430001220021206801F0C2
:1014F0009DF801220421206801F098F82068016815
:1015000041F001010160002070BD704770B50446D4
:10151000006801694FF00005C943890715D4C16807
:10152000C943890711D4E91E016101202077206891
:1015300080698007204602D0FFF7E7FF04E000F053
:10154000DFF8204600F0B4F9257720680169C94327
:10155000490717D4C168C943490713D46FF0040180
:101560000161022020772068806910F4407F2046C6
:1015700002D0FFF7CAFF04E000F0C2F8204600F0F6
:1015800097F9257720680169C943090716D4C1680E
:10159000C943090712D46FF00801016104202077C4
:1015A0002068C0698007204602D0FFF7AEFF04E044
:1015B00000F0A6F8204600F07BF925772068016945
:1015C000C943C90617D4C168C943C90613D46FF00B
:1015D00010010161082020772068C06910F4407F65
:1015E000204602D0FFF791FF04E000F089F8204682
:1015F00000F05EF9257720680169C943C90708D161
:10160000C168C943C90704D1891E0161204600F0A1
:10161000ABF920680169C943090609D4C168C94307
:10162000090605D46FF0800101612046FFF7BAFD7D
:1016300020680169C943490609D4C168C9434906FC
:1016400005D46FF040010161204600F0EFF92068F9
:101650000169C94389060BD4C168C943890607D407
:101660006FF0200101612046BDE87040FFF79BBD8F
:1016700070BD000000B585B000210091019102917C
:101680000391194B0268194802219A4218D18269C4
:1016900042F0200282618069039100F020000490F2
:1016A0004803CDE9000169461148FFF7DDF811480C
:1016B000416841F0E06141F48051416005B000BDF6
:1016C0000D4B9A42FAD1826942F00402826180692C
:1016D000009100F004000191CDE90310694607482C
:1016E000FFF7C2F8EAE700000008004000100240DF
:1016F0000014014000000140000C004000080140BF
:10170000704770B5044690F83C0000260D4601284D
:101710000FD0012084F83C006AB1042A1DD0082AA9
:101720002FD00C2A3FD00126002084F83C00304600
:1017300070BD022070BD206800F086FF20688169BE
:1017400041F0080181612068816921F00401816113
:10175000206881692A69114311E0206800F0A4FF24
:101760002068816941F4006181612068816921F408
:1017700080618161206881692A6941EA0221816171
:10178000D2E7206800F0C6FF2068C16941F0080177
:10179000C1612068C16921F00401C1612068C1698B
:1017A0002A69114311E0206800F0E8FF2068C16950
:1017B00041F40061C1612068C16921F48061C161A7
:1017C0002068C1692A6941EA0221C161ACE710B50C
:1017D000040003D094F83D0010B107E0012010BDD3
:1017E000002084F83C00204600F01EF8022084F817
:1017F0003D00211D206800F0D3FE012084F8460042
:1018000084F83E0084F83F0084F8400084F84100EA
:1018100084F8420084F8430084F8440084F84500CA
:1018200084F83D00002010BD00B585B00021009176
:10183000019102910391194A01681948914221D1FD
:10184000C16941F00401C161C16901F00401049161
:10185000816941F0200181618069694600F02000C2
:101860000490901400900220019003900D48FEF720
:10187000FBFF0D48416841F0E06141F48051416057
:1018800005B000BD094A9142FAD1C16941F0080191
:10189000C161C06900F008000490F1E70008004051
:1018A000001002400014014000000140000C004004
:1018B0007047000010B50446022249B104290ED039
:1018C000082913D094F84100012816D0012010BD3A
:1018D00094F83E000128F9D184F83E200FE094F8F6
:1018E0003F000128F2D184F83F2008E094F840003E
:1018F0000128EBD184F8402001E084F84120012246
:10190000206800F093FE13492068134A884201D0F2
:10191000904203D1436C43F40043436420688842FF
:101920000DD090420BD0B0F1804F08D00B498842C7
:1019300005D00B49884202D00A49884204D1816807
:1019400001F00701062903D0016841F0010101609F
:10195000002010BD002C0140003401400004004074
:1019600000080040000C004070B5254988422CD189
:1019700001F0CEF801F06AF92248234C027823489E
:10198000012A0ED12249097801290AD12149097871
:10199000012906D12178012903D11F49097801299C
:1019A00014D081781D4B1E4DB9B101290DD12D6880
:1019B0004FF4C871A9631B686421D963002A04D15C
:1019C0002178012901D10021817070BD0121817030
:1019D000BDE8704013A001F057B813481B6890F998
:1019E0000010484200EB80024FF4967000EB820238
:1019F000DA6301EB810100EB81002968886370BD27
:101A0000300100201E0000202200002018000020CD
:101A10001F0000202100002020000020A000002046
:101A2000E800002068000000230000207047704795
:101A300070470000F8B5016804460868CA684B6939
:101A400010F00F0F4FF0000559D003F0010602F41B
:101A50009077374365D0C10705D0D10503D5616CB8
:101A600041F001016164410705D5D90703D0616CDC
:101A700041F002016164810705D5D90703D0616C8B
:101A800041F004016164010707D502F020013143F0
:101A900003D0616C41F008016164616C00293AD0A7
:101AA000800604D5900602D5204600F0C4FE2068CA
:101AB0004069616CC0F38010090700D460B3204610
:101AC00000F092FE20684069400621D5206814305D
:101AD00050E8001F21F0400140E80012002AF5D133
:101AE000E06BA8B16D494163E06BFEF725FE00286D
:101AF00011D0E06B416B01B0BDE8F04008478306B0
:101B00000FD593060DD52046BDE8F84000F093BEF2
:101B10002046FFF78DFFF8BD2046FFF789FF65647B
:101B2000F8BD266B2023012E7CD1C6067AD5D606B9
:101B300078D508684868009048694FF0020640066A
:101B400040D5E16B086840680004000CE8D0A28D25
:101B50008242E5D9E085886920282DD020680C30A4
:101B600050E8001F21F4807140E80012002AF5D1EE
:101B70002068143050E8001F21F0010140E80012F5
:101B8000002AF5D12068143050E8001F21F04001F0
:101B900040E80012002AF5D184F84230256320681D
:101BA0000C3050E8001F21F0100140E80012002A1C
:101BB000F5D1E06BFEF79CFD6663A08DE18D401AC8
:101BC00081B22AE0A08DE18D401A81B2E08D00281B
:101BD000A6D00029A4D022680C3252E8000F20F4CD
:101BE000907042E80007002FF5D12068143050E8CB
:101BF000002F22F0010240E80027002FF5D184F8E1
:101C00004230256320680C3050E8002F22F010028B
:101C100040E80023002BF5D166632046FFF707FF5D
:101C2000F8BDFFE705062BD5150629D594F8410028
:101C30002128F5D1A068B0F5805F01D12069B0B14D
:101C4000206A411C2162216800784860E08C401EB7
:101C50000004000CE084E3D12068C16821F0800119
:101C6000C1602068C16841F04001C160D8E7206AC6
:101C70000088C0F308004860206A801C2062E5E705
:101C80004006CDD55006CBD5CA68204622F040028A
:101C9000CA6084F8413000F092F9C1E7D927000802
:101CA00070B5040004D094F84100002510B106E09E
:101CB000012070BD84F84050204600F023F8242015
:101CC00084F841002068C16821F40051C1602046B9
:101CD00000F012FE2068016921F490410161206842
:101CE000416921F02A0141612068C16841F4005135
:101CF000C1606564202084F8410084F84200656377
:101D0000002070BDF0B585B00024009401940294C9
:101D10000394D0F800C06E496E486C4F0D15022236
:101D20000323C614BC4524D1CF6947F40027CF61F3
:101D3000CF6907F4002704978F6947F010078F6178
:101D4000896901F01001CDE90331CDE900526946FE
:101D50000546FEF789FDCDE90064694628460294F0
:101D6000FEF782FD012203213420FEF7F3FE34202A
:101D700056E0DFF864E10427F44527D1CD6945F446
:101D80008015CD61CD6905F4801504958D6945F008
:101D900010058D618D6905F0100504958D6945F07C
:101DA00020058D618969039301F020010491B90236
:101DB000CDE900126946FEF757FDCDE9007469468A
:101DC00046480294FEF750FD05B0F0BDDFF810E183
:101DD0004448F44527D18E6946F480468E618E6969
:101DE00006F4804604968E6946F004068E61896981
:101DF000039301F0040104914115CDE900126946F5
:101E00000646FEF731FDCDE900546946304602949E
:101E1000FEF72AFD002203212520FEF79BFE252048
:101E2000FEF78AFED0E7DFF8C0E0F44525D1CD69A2
:101E300045F40035CD61CD6905F4003504958D6913
:101E400045F004058D618969054601F00401CDE97D
:101E50000331CDE900726946FEF706FD0820CDE9A1
:101E60000004694628460294FEF7FEFC0122022186
:101E70002620FEF76FFE2620D2E71C488445A3D11A
:101E8000C86940F48020C861C86900F480200490CB
:101E9000886940F0080088618869CDE9005200F047
:101EA0000800CDE90330124D69462846FEF7DCFCF8
:101EB000CDE90064694628460294FEF7D5FC01226C
:101EC00002212720FEF746FE2720A9E7004C00400C
:101ED000001002400010014000500040001401407A
:101EE0000038014000080140004400400048004024
:101EF000000C014090F84230202B01D002207047A6
:101F000021B11AB10023036300F052BD01207047D4
:101F1000012202490248FFF7EDBF00000000002047
:101F2000C00100202DE9F843044690F841001F4607
:101F300016460D46202802D00220BDE8F8837DB168
:101F400076B100206064212084F84100FEF792FD04
:101F5000A6848046E684A068B0F5805F02D003E0E6
:101F60000120EAE7206910B12E4600250EE0002688
:101F70000CE08021204600F036FDA0B9AEB116F885
:101F8000010B21684860E08C401EE084E08C4346F1
:101F90004FF0000200970028EBD14FF0400120469F
:101FA00000F021FD30B10320C7E735F8020BC0F384
:101FB0000800E6E7202084F841000020BDE77047D4
:101FC000FEE70000F0B51D4885B0816941F00401CD
:101FD0008161816901F004010491816941F0080186
:101FE0008161816901F008010491816941F040013A
:101FF0008161806901242025CDE9005400F0400072
:1020000003260294CDE903600D4F69463846FEF77A
:102010002BFCCDE90054CDE902460A4C6946204626
:10202000FEF722FC002220213846FEF71EFD00228A
:1020300020212046FEF719FD05B0F0BD001002403A
:10204000000C0140001801403EB5002111480091EC
:1020500001910F4A029102600124816004730175AD
:102060004FF460220461C2614160FEF715FA08B1C5
:10207000FEF712F90820CDE900040320029069461A
:102080000448FEF70DF9002801D0FEF705F93EBD22
:1020900000240140280000202DE9F04186B00024F2
:1020A00035480094019402940394816941F08001C1
:1020B0008161816901F080010491816941F004012D
:1020C0008161816901F004010491816941F0080195
:1020D0008161816901F008010491816941F0200169
:1020E0008161816901F020010491816941F480716D
:1020F0008161816901F480710491816941F010016D
:10210000816180691D4F00F010004FF460750490EC
:10211000012229463846FEF7A8FCDFF86480002239
:1021200018214046FEF7A1FC0095022601250396E2
:10213000CDE9015469463846FEF796FB4FF47040EE
:10214000CDE9000469460F480294FEF78DFB280292
:10215000CDE9000469460C480294FEF785FB18207F
:10216000CDE90005CDE9024669464046FEF77CFB15
:1021700006B0BDE8F081000000100240001C0140E4
:1021800000200140000C01400014014010B58CB04B
:1021900024216846FDF7F1FF0024164809941449EC
:1021A0000A94C0E900144FF6FF71C0E902410461CE
:1021B00084610320CDE900040120CDE90204CDE9CA
:1021C0000404CDE90604089069460A48FFF7ACF814
:1021D00008B1FEF761F8099409A906480A94FEF7C8
:1021E000E3FF002801D0FEF757F80CB010BD000047
:1021F000000400405800002010B58AB00024079465
:102200001C2168460894FDF7B8FF1748154901607E
:102210004721C0E9011440F2E731C0E903148461A9
:10222000FFF7D5FA08B1FEF737F8079407A90E486B
:102230000894FEF7B9FF08B1FEF72EF86020009071
:102240004FF4FA70CDE90104082269460648049467
:10225000FFF757FA08B1FEF71FF80348FFF70AFA2D
:102260000AB010BD00080040A000002010B58AB0E0
:10227000002407941C2168460894FDF77EFF174848
:10228000154901604721C0E9011440F2E731C0E976
:1022900003148461FFF79BFA08B1FDF7FDFF079473
:1022A00007A90E480894FEF77FFF08B1FDF7F4FF79
:1022B000602000904FF4FA70CDE9010404226946D1
:1022C00006480494FFF71DFA08B1FDF7E5FF03483F
:1022D000FFF7D0F90AB010BD000C0040E800002064
:1022E0001CB500240E4800940C490194016041F68D
:1022F0001F41C0E9011463218461C160FEF792FFB0
:1023000008B1FDF7C9FF0094694605480194FEF73E
:102310004BFF002801D0FDF7BFFF1CBD001400409B
:102320003001002010B58CB024216846FDF725FF50
:1023300000241648099414490A94C0E900144FF681
:10234000FF71C0E902410461446184610320CDE969
:1023500000040120CDE90204CDE90404CDE906041E
:10236000089069460948FEF7DFFF08B1FDF794FFC2
:10237000099409A905480A94FEF716FF002801D020
:10238000FDF78AFF0CB010BD003401407801002039
:102390000C4810B50A4901604FF416514160002104
:1023A00081600C22C160C0E904128161C161FFF744
:1023B00077FC002803D0BDE81040FDF76DBF10BDCD
:1023C00000500040080200200C4810B50A49016086
:1023D0004FF416514160002181600C22C160C0E9B8
:1023E00004128161C161FFF75BFC002803D0BDE8E6
:1023F0001040FDF751BF10BD0038014050020020D1
:102400000C4810B50A4901604FF4E13141600021E8
:1024100081600C22C160C0E904128161C161FFF7D3
:102420003FFC002803D0BDE81040FDF735BF10BDCC
:1024300000440040980200200C4810B50A49016091
:102440004FF4E1314160002181600C22C160C0E99C
:1024500004128161C161FFF723FC002803D0BDE8AD
:102460001040FDF719BF10BD00480040E0020020F9
:10247000FEE7FEE770B51C491A4C0020C1E9004098
:102480008860C860194AC861C1E904208861403980
:10249000174DC1E900508860C8604FF080430B6160
:1024A0004FF07C56C861C1E905606031C1E9004068
:1024B0008860C860C861C1E90420886140390D4A5C
:1024C000C1E900508860C8600B61C861C1E905605E
:1024D0006031086048608860C860C861C1E9042054
:1024E000886170BD0038C74668030020BC74133C87
:1024F000000070420000704170477047FEF7C0BA9C
:1025000030B595B028216846FDF737FE14210AA89A
:10251000FDF733FE18210FA8FDF72FFE0121080457
:10252000CDE900100025029502240491CDE9074071
:102530004FF4E01009906846FEF790FC08B172B6BF
:10254000FEE70AA90F2081E831004FF48060CDE951
:102550000D0502210AA8FEF7A5FB08B172B6FEE739
:102560004FF4004011900F940FA8FEF725FB0028B0
:1025700001D072B6FEE715B030BD70470148FEF7D6
:10258000C5BF0000580000200148FEF7BFBF000093
:10259000300100200148FEF7B9BF0000780100209B
:1025A000F0B502681C4B1D4D1D4E1E4F1E4C4FF0CA
:1025B000804C984209D0A04207D0604505D0A8427F
:1025C00003D0B04201D0B84204D122F0700E4A6864
:1025D00042EA0E02984209D0A04207D0604505D0D9
:1025E000A84203D0B04201D0B84203D122F44075D2
:1025F000CA682A434D6922F080022A4302608A6831
:10260000C2620A688262984201D0A04201D109697F
:10261000016301214161F0BD002C01400004004034
:1026200000080040000C00400034014010B501F0EB
:102630001F030121046A99408C430462016A9A4095
:102640001143016210BD0000F0B5036A026A22F076
:102650000102026242688469124E24F073050C681C
:102660002C4323F002058B682B430D4DA84201D06B
:10267000B04205D123F00807CB683B4323F00403A5
:10268000A84201D0B04205D14D6922F440721543F1
:102690008A692A4342608461496841630362F0BDEC
:1026A000002C014000340140F0B5026A036A23F0B7
:1026B00010030362436884690D6824F4E64444EA25
:1026C00005248D6822F0200242EA05120F4D104EBB
:1026D000A84201D0B04206D1CF6822F0800242EA7F
:1026E000071222F04002A84201D0B04207D14D6942
:1026F00023F4406343EA85038D6943EA850343601D
:102700008461496881630262F0BD0000002C0140D1
:1027100000340140F0B5026A036A23F48073036257
:102720004368C46922F4007224F073050C68124EE9
:102730002C438D6842EA05220E4DA84201D0B042DA
:1027400006D1CF6822F4006242EA072222F48062B6
:10275000A84201D0B04207D14D6923F4405343EA67
:1027600005138D6943EA05134360C4614968C16379
:102770000262F0BD002C01400034014030B5046A13
:10278000026A22F4805202624268C3690D6823F42F
:10279000E64343EA05238D6824F4005444EA0534F3
:1027A000084DA84202D0084DA84204D14D6922F438
:1027B000804242EA85124260C36149680164046252
:1027C00030BD0000002C0140003401400148FFF7FB
:1027D00031B90000C001002010B5406A0021C18558
:1027E000C184FFF725F910BD01680C3151E8002FB5
:1027F00022F4907241E80023002BF5D101681431D6
:1028000051E8002F22F0010241E80023002BF5D10E
:10281000016B012909D101680C3151E8002F22F028
:10282000100241E80023002BF5D1202180F842104E
:1028300000210163704708B590F84210222901D0A9
:10284000022008BD82684FF480539A4201D1016989
:1028500021B1816A9A421BD04AB10AE00268816ABA
:102860005268C2F308020A80816A891C08E0026982
:1028700072B10268526802F07F020A70816A491CD4
:102880008162C18D491E0904090CC18503D01BE07A
:1028900002685268F1E70168CA6822F02002CA6043
:1028A0000168CA6822F48072CA6001684A6922F02D
:1028B00001024A61202180F8421000214163026B2D
:1028C000012A03D0FFF724FB002008BD0163016843
:1028D0000C3151E8002F22F0100241E80023002BB8
:1028E000F5D101680A68D20602D50A6849680091E4
:1028F000818DFFF79CF8E7E770B504460068016931
:10290000E26821F44051114301612169A068084344
:10291000616908432168CA6841F20C639A43024323
:10292000CA6020684169A26921F440711143416184
:102930001E492068884202D1FEF75AFA01E0FEF7EC
:1029400047FA00EBC00101EB0012606864218000CF
:10295000B2FBF0F3B3FBF1F36FF018067343B2FB75
:10296000F0F5B2FBF0F605EB8305322303EB05151A
:10297000B5FBF1F5B6FBF1F605F0F00505EB061534
:10298000B2FBF0F6B2FBF0F0B0FBF1F06FF0180222
:10299000504306EB800003EB0010B0FBF1F0216820
:1029A00000F00F002844886070BD0000003801402E
:1029B00081628285C28500214164222180F8421013
:1029C000016921B10168CA6842F48072CA60016875
:1029D0004A6942F001024A610068C16841F0200181
:1029E000C160002070472DE9F041984617460E4619
:1029F0000446069D27E0681C25D02DB1FEF73AF865
:102A0000A0EB0800A8421ED920680C3050E8001F37
:102A100021F4D07140E80012002AF5D1206814306A
:102A200050E8001F21F0010140E80012002AF5D112
:102A3000202084F8410084F84200002084F84000FF
:102A40000320BDE8F0812068006836EA000004D069
:102A50000020B842CFD00020F3E70120F9E70000C2
:102A60000148FEF7E7BF0000500200200148FEF7D2
:102A7000E1BF0000980200200148FEF7DBBF000024
:102A8000E0020020FEE70000014A024900F023B8FE
:102A9000F92A0008240000200907090E002804DB99
:102AA00000F1E02080F80014704700F00F0000F102
:102AB000E02080F8141D704702E008C8121F08C10A
:102AC000002AFAD170477047002001E001C1121FAF
:102AD000002AFBD170472DE9F04116460F46044607
:102AE000002503E03946B047641C6D1C207800289F
:102AF000F8D12846BDE8F08113B54FF47A7301226E
:102B000069460248FFF70EFA00981CBD0802002033
:102B10002DE9F04100F09AF84B480278012A01D0E3
:102B200052B112E0417881B9817871B9C17861B947
:102B3000017951B9F72110E04178012905D1817857
:102B400019B9C17809B9017931B145784FF000065A
:102B500052EA050104D00AE0FD214171BDE8F0818F
:102B60008378012B03D1C3780BB9037923B184781F
:102B700051EA040702D006E04671EFE7C378012B63
:102B800001D1037923B1C37857EA030C02D006E0E0
:102B90000321E2E790F804C0BCF1010F03D0012A41
:102BA00003D06AB116E00921D7E7012D12D18CB903
:102BB00083B990F804C0BCF1000F0BD1FB21CCE726
:102BC000012D07D1012C05D123B990F804C0BCF127
:102BD000000F01D011B10AE0FF21BEE7012C06D1A0
:102BE000012B04D190F804C0BCF1000F01D017B143
:102BF00006E00121B1E7012B02D10779012F03D0B3
:102C0000012A03D05AB113E00521A6E7012D0FD107
:102C1000012C0DD163B9027952B9FC219DE7012D38
:102C200006D1012C04D1012B02D10279002AA3D0B4
:102C3000002993D1012C91D1012B8FD10179012948
:102C40008CD1042189E700001E00002070B50F4DD3
:102C50004FF480512846FDF703FF0D4C6914207096
:102C60002846FDF7FDFE60704FF480412846FDF7D1
:102C7000F7FEA0704FF400412846FDF7F1FEE0702A
:102C8000A9150448FDF7ECFE207170BD000C014051
:102C90001E00002000140140FDF7FAFEFFF730FC93
:102CA000FFF7FAF9FFF71CFBFFF78EFBFFF76EFA51
:102CB000FFF7A2FAFFF736FBFFF7D8FAFFF7C4F9E0
:102CC000FFF79EFBFFF7B8FBFFF762FB00211148FF
:102CD000FEF7D4FB04210F48FEF7D0FB00210E487D
:102CE000FEF7CCFB04210C48FEF7C8FB0B48FEF7AF
:102CF000E5FA0B48FDF796FCFFF764F9FFF7BAFB1E
:102D000004210848FEF7D6FD08210748FEF7D2FD4A
:102D1000FEE700007801002058000020300100206C
:102D200028000020E8000020A0000020010202038B
:102D30000405060708090A0B0C0D0E0F1010000001
:102D4000000000000000010203040607080900005B
:102D50000000010203040000782D0008000000209C
:102D600028000000B82A0008A02D00082800002034
:102D7000A0070000C82A00080000000000000000B2
:102D80000100000010000000000000000024F4001A
:102D90000000000000000000000000000000000033
:0400000508000131BD
:00000001FF
